{
  "_format": "hh-sol-artifact-1",
  "contractName": "CodeBounty",
  "sourceName": "contracts/CodeBounty.sol",
  "abi": [
    {
      "inputs": [],
      "stateMutability": "nonpayable",
      "type": "constructor"
    },
    {
      "anonymous": false,
      "inputs": [
        {
          "indexed": false,
          "internalType": "uint256",
          "name": "challengeId",
          "type": "uint256"
        },
        {
          "indexed": false,
          "internalType": "address",
          "name": "creator",
          "type": "address"
        }
      ],
      "name": "ChallengeCancelled",
      "type": "event"
    },
    {
      "anonymous": false,
      "inputs": [
        {
          "indexed": false,
          "internalType": "uint256",
          "name": "challengeId",
          "type": "uint256"
        },
        {
          "indexed": false,
          "internalType": "address",
          "name": "creator",
          "type": "address"
        },
        {
          "indexed": false,
          "internalType": "uint256",
          "name": "bounty",
          "type": "uint256"
        },
        {
          "indexed": false,
          "internalType": "uint256",
          "name": "duration",
          "type": "uint256"
        }
      ],
      "name": "ChallengeCreated",
      "type": "event"
    },
    {
      "anonymous": false,
      "inputs": [
        {
          "indexed": false,
          "internalType": "uint256",
          "name": "challengeId",
          "type": "uint256"
        },
        {
          "indexed": false,
          "internalType": "address",
          "name": "winner",
          "type": "address"
        }
      ],
      "name": "ChallengeExpired",
      "type": "event"
    },
    {
      "anonymous": false,
      "inputs": [
        {
          "indexed": false,
          "internalType": "uint256",
          "name": "challengeId",
          "type": "uint256"
        },
        {
          "indexed": false,
          "internalType": "address",
          "name": "winner",
          "type": "address"
        },
        {
          "indexed": false,
          "internalType": "uint256",
          "name": "amount",
          "type": "uint256"
        }
      ],
      "name": "RewardDistributed",
      "type": "event"
    },
    {
      "anonymous": false,
      "inputs": [
        {
          "indexed": false,
          "internalType": "uint256",
          "name": "challengeId",
          "type": "uint256"
        },
        {
          "indexed": false,
          "internalType": "address",
          "name": "submitter",
          "type": "address"
        },
        {
          "indexed": false,
          "internalType": "bytes32",
          "name": "solutionHash",
          "type": "bytes32"
        }
      ],
      "name": "SolutionSubmitted",
      "type": "event"
    },
    {
      "anonymous": false,
      "inputs": [
        {
          "indexed": false,
          "internalType": "uint256",
          "name": "challengeId",
          "type": "uint256"
        },
        {
          "indexed": false,
          "internalType": "address",
          "name": "verifier",
          "type": "address"
        },
        {
          "indexed": false,
          "internalType": "address",
          "name": "winner",
          "type": "address"
        }
      ],
      "name": "SolutionVerified",
      "type": "event"
    },
    {
      "inputs": [
        {
          "internalType": "uint256",
          "name": "_challengeId",
          "type": "uint256"
        }
      ],
      "name": "cancelChallenge",
      "outputs": [],
      "stateMutability": "nonpayable",
      "type": "function"
    },
    {
      "inputs": [
        {
          "internalType": "uint256",
          "name": "",
          "type": "uint256"
        }
      ],
      "name": "challengeCompleted",
      "outputs": [
        {
          "internalType": "bool",
          "name": "",
          "type": "bool"
        }
      ],
      "stateMutability": "view",
      "type": "function"
    },
    {
      "inputs": [],
      "name": "challengeIdCounter",
      "outputs": [
        {
          "internalType": "uint256",
          "name": "",
          "type": "uint256"
        }
      ],
      "stateMutability": "view",
      "type": "function"
    },
    {
      "inputs": [
        {
          "internalType": "uint256",
          "name": "",
          "type": "uint256"
        },
        {
          "internalType": "uint256",
          "name": "",
          "type": "uint256"
        }
      ],
      "name": "challengeSubmissions",
      "outputs": [
        {
          "internalType": "address",
          "name": "submitter",
          "type": "address"
        },
        {
          "internalType": "bytes32",
          "name": "solutionHash",
          "type": "bytes32"
        },
        {
          "internalType": "bool",
          "name": "isVerified",
          "type": "bool"
        },
        {
          "internalType": "uint256",
          "name": "submissionTime",
          "type": "uint256"
        }
      ],
      "stateMutability": "view",
      "type": "function"
    },
    {
      "inputs": [
        {
          "internalType": "uint256",
          "name": "",
          "type": "uint256"
        }
      ],
      "name": "challenges",
      "outputs": [
        {
          "internalType": "uint256",
          "name": "challengeId",
          "type": "uint256"
        },
        {
          "internalType": "address",
          "name": "creator",
          "type": "address"
        },
        {
          "internalType": "uint256",
          "name": "bountyAmount",
          "type": "uint256"
        },
        {
          "internalType": "string",
          "name": "title",
          "type": "string"
        },
        {
          "internalType": "string",
          "name": "description",
          "type": "string"
        },
        {
          "internalType": "string",
          "name": "requirements",
          "type": "string"
        },
        {
          "internalType": "enum CodeBounty.Status",
          "name": "challengeStatus",
          "type": "uint8"
        },
        {
          "internalType": "uint256",
          "name": "submissionsCount",
          "type": "uint256"
        },
        {
          "internalType": "uint256",
          "name": "startTime",
          "type": "uint256"
        },
        {
          "internalType": "uint256",
          "name": "duration",
          "type": "uint256"
        },
        {
          "internalType": "address",
          "name": "winner",
          "type": "address"
        }
      ],
      "stateMutability": "view",
      "type": "function"
    },
    {
      "inputs": [
        {
          "internalType": "string",
          "name": "_title",
          "type": "string"
        },
        {
          "internalType": "string",
          "name": "_description",
          "type": "string"
        },
        {
          "internalType": "string",
          "name": "_requirements",
          "type": "string"
        },
        {
          "internalType": "uint256",
          "name": "_bountyAmount",
          "type": "uint256"
        },
        {
          "internalType": "uint256",
          "name": "_durationInDays",
          "type": "uint256"
        }
      ],
      "name": "createChallenge",
      "outputs": [],
      "stateMutability": "payable",
      "type": "function"
    },
    {
      "inputs": [
        {
          "internalType": "uint256",
          "name": "_challengeId",
          "type": "uint256"
        },
        {
          "internalType": "address",
          "name": "winner",
          "type": "address"
        }
      ],
      "name": "distributeReward",
      "outputs": [],
      "stateMutability": "nonpayable",
      "type": "function"
    },
    {
      "inputs": [],
      "name": "getActiveChallenges",
      "outputs": [
        {
          "components": [
            {
              "internalType": "uint256",
              "name": "challengeId",
              "type": "uint256"
            },
            {
              "internalType": "address",
              "name": "creator",
              "type": "address"
            },
            {
              "internalType": "uint256",
              "name": "bountyAmount",
              "type": "uint256"
            },
            {
              "internalType": "string",
              "name": "title",
              "type": "string"
            },
            {
              "internalType": "string",
              "name": "description",
              "type": "string"
            },
            {
              "internalType": "string",
              "name": "requirements",
              "type": "string"
            },
            {
              "internalType": "enum CodeBounty.Status",
              "name": "challengeStatus",
              "type": "uint8"
            },
            {
              "internalType": "uint256",
              "name": "submissionsCount",
              "type": "uint256"
            },
            {
              "internalType": "uint256",
              "name": "startTime",
              "type": "uint256"
            },
            {
              "internalType": "uint256",
              "name": "duration",
              "type": "uint256"
            },
            {
              "internalType": "address",
              "name": "winner",
              "type": "address"
            }
          ],
          "internalType": "struct CodeBounty.Challenge[]",
          "name": "",
          "type": "tuple[]"
        }
      ],
      "stateMutability": "view",
      "type": "function"
    },
    {
      "inputs": [
        {
          "internalType": "uint256",
          "name": "_challengeId",
          "type": "uint256"
        }
      ],
      "name": "getChallengeRemainingTime",
      "outputs": [
        {
          "internalType": "uint256",
          "name": "",
          "type": "uint256"
        }
      ],
      "stateMutability": "view",
      "type": "function"
    },
    {
      "inputs": [
        {
          "internalType": "address",
          "name": "_user",
          "type": "address"
        }
      ],
      "name": "getUserStats",
      "outputs": [
        {
          "internalType": "uint256",
          "name": "winCount",
          "type": "uint256"
        },
        {
          "internalType": "uint256",
          "name": "submissionCount",
          "type": "uint256"
        },
        {
          "internalType": "uint256",
          "name": "totalRewards",
          "type": "uint256"
        }
      ],
      "stateMutability": "view",
      "type": "function"
    },
    {
      "inputs": [],
      "name": "owner",
      "outputs": [
        {
          "internalType": "address",
          "name": "",
          "type": "address"
        }
      ],
      "stateMutability": "view",
      "type": "function"
    },
    {
      "inputs": [
        {
          "internalType": "uint256",
          "name": "_challengeId",
          "type": "uint256"
        }
      ],
      "name": "resolveExpiredChallenge",
      "outputs": [],
      "stateMutability": "nonpayable",
      "type": "function"
    },
    {
      "inputs": [
        {
          "internalType": "uint256",
          "name": "_challengeId",
          "type": "uint256"
        },
        {
          "internalType": "bytes32",
          "name": "_solutionHash",
          "type": "bytes32"
        }
      ],
      "name": "submitSolution",
      "outputs": [],
      "stateMutability": "nonpayable",
      "type": "function"
    },
    {
      "inputs": [],
      "name": "totalSubmissionsCount",
      "outputs": [
        {
          "internalType": "uint256",
          "name": "",
          "type": "uint256"
        }
      ],
      "stateMutability": "view",
      "type": "function"
    },
    {
      "inputs": [
        {
          "internalType": "address",
          "name": "",
          "type": "address"
        }
      ],
      "name": "userRewarded",
      "outputs": [
        {
          "internalType": "uint256",
          "name": "",
          "type": "uint256"
        }
      ],
      "stateMutability": "view",
      "type": "function"
    },
    {
      "inputs": [
        {
          "internalType": "address",
          "name": "",
          "type": "address"
        }
      ],
      "name": "userStats",
      "outputs": [
        {
          "internalType": "uint256",
          "name": "winCount",
          "type": "uint256"
        },
        {
          "internalType": "uint256",
          "name": "submissionCount",
          "type": "uint256"
        },
        {
          "internalType": "uint256",
          "name": "totalRewards",
          "type": "uint256"
        }
      ],
      "stateMutability": "view",
      "type": "function"
    },
    {
      "inputs": [],
      "name": "withdrawRewards",
      "outputs": [],
      "stateMutability": "nonpayable",
      "type": "function"
    }
  ],
  "bytecode": "0x608060405234801561001057600080fd5b5033600160006101000a81548173ffffffffffffffffffffffffffffffffffffffff021916908373ffffffffffffffffffffffffffffffffffffffff16021790555061379f806100616000396000f3fe6080604052600436106100fe5760003560e01c80638da5cb5b11610095578063a5a7c33611610064578063a5a7c3361461036c578063c7b8981c146103a9578063d4e9a0af146103c0578063e1d45577146103dc578063e917fbf214610405576100fe565b80638da5cb5b146102a85780638f1d3776146102d35780638f4125ea1461031a578063a41483e314610343576100fe565b80634e43603a116100d15780634e43603a146101bf578063571446db146101fe5780635f77bf641461023e5780638a65d87414610269576100fe565b80631f47991e1461010357806343bcc29b1461012e578063481c4643146101575780634adf305114610194575b600080fd5b34801561010f57600080fd5b50610118610442565b60405161012591906125ef565b60405180910390f35b34801561013a57600080fd5b506101556004803603810190610150919061267d565b610937565b005b34801561016357600080fd5b5061017e600480360381019061017991906126bd565b610e66565b60405161018b9190612705565b60405180910390f35b3480156101a057600080fd5b506101a9610e86565b6040516101b6919061272f565b60405180910390f35b3480156101cb57600080fd5b506101e660048036038101906101e1919061274a565b610e8c565b6040516101f593929190612777565b60405180910390f35b34801561020a57600080fd5b50610225600480360381019061022091906127ae565b610ef0565b6040516102359493929190612816565b60405180910390f35b34801561024a57600080fd5b50610253610f6a565b604051610260919061272f565b60405180910390f35b34801561027557600080fd5b50610290600480360381019061028b919061274a565b610f70565b60405161029f93929190612777565b60405180910390f35b3480156102b457600080fd5b506102bd610f9a565b6040516102ca919061285b565b60405180910390f35b3480156102df57600080fd5b506102fa60048036038101906102f591906126bd565b610fc0565b6040516103119b9a999897969594939291906128cf565b60405180910390f35b34801561032657600080fd5b50610341600480360381019061033c91906126bd565b6111ff565b005b34801561034f57600080fd5b5061036a600480360381019061036591906126bd565b611855565b005b34801561037857600080fd5b50610393600480360381019061038e919061274a565b611ab6565b6040516103a0919061272f565b60405180910390f35b3480156103b557600080fd5b506103be611ace565b005b6103da60048036038101906103d59190612ac4565b611be4565b005b3480156103e857600080fd5b5061040360048036038101906103fe9190612bbf565b611eb0565b005b34801561041157600080fd5b5061042c600480360381019061042791906126bd565b612183565b604051610439919061272f565b60405180910390f35b6060600080600190505b60005481116105065760006003811115610469576104686123e5565b5b6003600083815260200190815260200160002060060160009054906101000a900460ff16600381111561049f5761049e6123e5565b5b036104f357600360008281526020019081526020016000206009015460036000838152602001908152602001600020600801546104dc9190612c2e565b4210156104f25781806104ee90612c62565b9250505b5b80806104fe90612c62565b91505061044c565b5060008167ffffffffffffffff81111561052357610522612999565b5b60405190808252806020026020018201604052801561055c57816020015b610549612237565b8152602001906001900390816105415790505b509050600080600190505b600054811161092d5760006003811115610584576105836123e5565b5b6003600083815260200190815260200160002060060160009054906101000a900460ff1660038111156105ba576105b96123e5565b5b0361091a57600360008281526020019081526020016000206009015460036000838152602001908152602001600020600801546105f79190612c2e565b421015610919576003600082815260200190815260200160002060405180610160016040529081600082015481526020016001820160009054906101000a900473ffffffffffffffffffffffffffffffffffffffff1673ffffffffffffffffffffffffffffffffffffffff1673ffffffffffffffffffffffffffffffffffffffff1681526020016002820154815260200160038201805461069790612cd9565b80601f01602080910402602001604051908101604052809291908181526020018280546106c390612cd9565b80156107105780601f106106e557610100808354040283529160200191610710565b820191906000526020600020905b8154815290600101906020018083116106f357829003601f168201915b5050505050815260200160048201805461072990612cd9565b80601f016020809104026020016040519081016040528092919081815260200182805461075590612cd9565b80156107a25780601f10610777576101008083540402835291602001916107a2565b820191906000526020600020905b81548152906001019060200180831161078557829003601f168201915b505050505081526020016005820180546107bb90612cd9565b80601f01602080910402602001604051908101604052809291908181526020018280546107e790612cd9565b80156108345780601f1061080957610100808354040283529160200191610834565b820191906000526020600020905b81548152906001019060200180831161081757829003601f168201915b505050505081526020016006820160009054906101000a900460ff166003811115610862576108616123e5565b5b6003811115610874576108736123e5565b5b8152602001600782015481526020016008820154815260200160098201548152602001600a820160009054906101000a900473ffffffffffffffffffffffffffffffffffffffff1673ffffffffffffffffffffffffffffffffffffffff1673ffffffffffffffffffffffffffffffffffffffff16815250508383815181106108ff576108fe612d0a565b5b6020026020010181905250818061091590612c62565b9250505b5b808061092590612c62565b915050610567565b5081935050505090565b816003600082815260200190815260200160002060010160009054906101000a900473ffffffffffffffffffffffffffffffffffffffff1673ffffffffffffffffffffffffffffffffffffffff163373ffffffffffffffffffffffffffffffffffffffff16146109dc576040517f08c379a00000000000000000000000000000000000000000000000000000000081526004016109d390612dab565b60405180910390fd5b600060038111156109f0576109ef6123e5565b5b6003600085815260200190815260200160002060060160009054906101000a900460ff166003811115610a2657610a256123e5565b5b14610a66576040517f08c379a0000000000000000000000000000000000000000000000000000000008152600401610a5d90612e17565b60405180910390fd5b6005600084815260200190815260200160002060009054906101000a900460ff1615610ac7576040517f08c379a0000000000000000000000000000000000000000000000000000000008152600401610abe90612e83565b60405180910390fd5b6000805b6004600086815260200190815260200160002080549050811015610bdb578373ffffffffffffffffffffffffffffffffffffffff16600460008781526020019081526020016000208281548110610b2557610b24612d0a565b5b906000526020600020906004020160000160009054906101000a900473ffffffffffffffffffffffffffffffffffffffff1673ffffffffffffffffffffffffffffffffffffffff16148015610bba5750600460008681526020019081526020016000208181548110610b9a57610b99612d0a565b5b906000526020600020906004020160020160009054906101000a900460ff165b15610bc85760019150610bdb565b8080610bd390612c62565b915050610acb565b5080610c1c576040517f08c379a0000000000000000000000000000000000000000000000000000000008152600401610c1390612f15565b60405180910390fd5b8260036000868152602001908152602001600020600a0160006101000a81548173ffffffffffffffffffffffffffffffffffffffff021916908373ffffffffffffffffffffffffffffffffffffffff1602179055506003600085815260200190815260200160002060020154600660008573ffffffffffffffffffffffffffffffffffffffff1673ffffffffffffffffffffffffffffffffffffffff1681526020019081526020016000206000828254610cd69190612c2e565b9250508190555060016003600086815260200190815260200160002060060160006101000a81548160ff02191690836003811115610d1757610d166123e5565b5b021790555060016005600086815260200190815260200160002060006101000a81548160ff021916908315150217905550600760008473ffffffffffffffffffffffffffffffffffffffff1673ffffffffffffffffffffffffffffffffffffffff1681526020019081526020016000206000016000815480929190610d9b90612c62565b91905055506003600085815260200190815260200160002060020154600760008573ffffffffffffffffffffffffffffffffffffffff1673ffffffffffffffffffffffffffffffffffffffff1681526020019081526020016000206002016000828254610e089190612c2e565b925050819055507fab7542bafced3da2d8c881cb2dd1de859fac7c20d3650d2902ad389a64e0888384846003600088815260200190815260200160002060020154604051610e5893929190612f35565b60405180910390a150505050565b60056020528060005260406000206000915054906101000a900460ff1681565b60005481565b600080600080600760008673ffffffffffffffffffffffffffffffffffffffff1673ffffffffffffffffffffffffffffffffffffffff1681526020019081526020016000209050806000015481600101548260020154935093509350509193909250565b60046020528160005260406000208181548110610f0c57600080fd5b9060005260206000209060040201600091509150508060000160009054906101000a900473ffffffffffffffffffffffffffffffffffffffff16908060010154908060020160009054906101000a900460ff16908060030154905084565b60025481565b60076020528060005260406000206000915090508060000154908060010154908060020154905083565b600160009054906101000a900473ffffffffffffffffffffffffffffffffffffffff1681565b60036020528060005260406000206000915090508060000154908060010160009054906101000a900473ffffffffffffffffffffffffffffffffffffffff169080600201549080600301805461101590612cd9565b80601f016020809104026020016040519081016040528092919081815260200182805461104190612cd9565b801561108e5780601f106110635761010080835404028352916020019161108e565b820191906000526020600020905b81548152906001019060200180831161107157829003601f168201915b5050505050908060040180546110a390612cd9565b80601f01602080910402602001604051908101604052809291908181526020018280546110cf90612cd9565b801561111c5780601f106110f15761010080835404028352916020019161111c565b820191906000526020600020905b8154815290600101906020018083116110ff57829003601f168201915b50505050509080600501805461113190612cd9565b80601f016020809104026020016040519081016040528092919081815260200182805461115d90612cd9565b80156111aa5780601f1061117f576101008083540402835291602001916111aa565b820191906000526020600020905b81548152906001019060200180831161118d57829003601f168201915b5050505050908060060160009054906101000a900460ff169080600701549080600801549080600901549080600a0160009054906101000a900473ffffffffffffffffffffffffffffffffffffffff1690508b565b60006003600083815260200190815260200160002090506000600381111561122a576112296123e5565b5b8160060160009054906101000a900460ff16600381111561124e5761124d6123e5565b5b1461128e576040517f08c379a000000000000000000000000000000000000000000000000000000000815260040161128590612fde565b60405180910390fd5b806009015481600801546112a29190612c2e565b4210156112e4576040517f08c379a00000000000000000000000000000000000000000000000000000000081526004016112db9061304a565b60405180910390fd5b6005600083815260200190815260200160002060009054906101000a900460ff1615611345576040517f08c379a000000000000000000000000000000000000000000000000000000000815260040161133c90612e83565b60405180910390fd5b60006004600084815260200190815260200160002080549050111561177a576000805b6004600085815260200190815260200160002080549050811015611440576004600085815260200190815260200160002081815481106113ab576113aa612d0a565b5b906000526020600020906004020160020160009054906101000a900460ff161561142d576004600085815260200190815260200160002081815481106113f4576113f3612d0a565b5b906000526020600020906004020160000160009054906101000a900473ffffffffffffffffffffffffffffffffffffffff169150611440565b808061143890612c62565b915050611368565b50600073ffffffffffffffffffffffffffffffffffffffff168173ffffffffffffffffffffffffffffffffffffffff161461169d578082600a0160006101000a81548173ffffffffffffffffffffffffffffffffffffffff021916908373ffffffffffffffffffffffffffffffffffffffff1602179055508160020154600660008373ffffffffffffffffffffffffffffffffffffffff1673ffffffffffffffffffffffffffffffffffffffff168152602001908152602001600020600082825461150b9190612c2e565b9250508190555060018260060160006101000a81548160ff0219169083600381111561153a576115396123e5565b5b021790555060016005600085815260200190815260200160002060006101000a81548160ff021916908315150217905550600760008273ffffffffffffffffffffffffffffffffffffffff1673ffffffffffffffffffffffffffffffffffffffff16815260200190815260200160002060000160008154809291906115be90612c62565b91905055508160020154600760008373ffffffffffffffffffffffffffffffffffffffff1673ffffffffffffffffffffffffffffffffffffffff16815260200190815260200160002060020160008282546116199190612c2e565b925050819055507f94f424150827ceaf7d7f36a7ef11c743a3ffbd87a462df186e1804189e71eba8838260405161165192919061306a565b60405180910390a17fab7542bafced3da2d8c881cb2dd1de859fac7c20d3650d2902ad389a64e088838382846002015460405161169093929190612f35565b60405180910390a1611774565b60038260060160006101000a81548160ff021916908360038111156116c5576116c46123e5565b5b02179055508160010160009054906101000a900473ffffffffffffffffffffffffffffffffffffffff1673ffffffffffffffffffffffffffffffffffffffff166108fc83600201549081150290604051600060405180830381858888f19350505050158015611738573d6000803e3d6000fd5b507f94f424150827ceaf7d7f36a7ef11c743a3ffbd87a462df186e1804189e71eba883600060405161176b92919061306a565b60405180910390a15b50611851565b60038160060160006101000a81548160ff021916908360038111156117a2576117a16123e5565b5b02179055508060010160009054906101000a900473ffffffffffffffffffffffffffffffffffffffff1673ffffffffffffffffffffffffffffffffffffffff166108fc82600201549081150290604051600060405180830381858888f19350505050158015611815573d6000803e3d6000fd5b507f94f424150827ceaf7d7f36a7ef11c743a3ffbd87a462df186e1804189e71eba882600060405161184892919061306a565b60405180910390a15b5050565b806003600082815260200190815260200160002060010160009054906101000a900473ffffffffffffffffffffffffffffffffffffffff1673ffffffffffffffffffffffffffffffffffffffff163373ffffffffffffffffffffffffffffffffffffffff16146118fa576040517f08c379a00000000000000000000000000000000000000000000000000000000081526004016118f190612dab565b60405180910390fd5b6000600381111561190e5761190d6123e5565b5b6003600084815260200190815260200160002060060160009054906101000a900460ff166003811115611944576119436123e5565b5b14611984576040517f08c379a000000000000000000000000000000000000000000000000000000000815260040161197b90613105565b60405180910390fd5b60006004600084815260200190815260200160002080549050146119dd576040517f08c379a00000000000000000000000000000000000000000000000000000000081526004016119d490613197565b60405180910390fd5b3373ffffffffffffffffffffffffffffffffffffffff166108fc60036000858152602001908152602001600020600201549081150290604051600060405180830381858888f19350505050158015611a39573d6000803e3d6000fd5b5060026003600084815260200190815260200160002060060160006101000a81548160ff02191690836003811115611a7457611a736123e5565b5b02179055507f331f4510d26912f0e9f474e9a3151c359ce5d28378f1151479d27ec63236fa098233604051611aaa92919061306a565b60405180910390a15050565b60066020528060005260406000206000915090505481565b6000600660003373ffffffffffffffffffffffffffffffffffffffff1673ffffffffffffffffffffffffffffffffffffffff16815260200190815260200160002054905060008111611b55576040517f08c379a0000000000000000000000000000000000000000000000000000000008152600401611b4c90613203565b60405180910390fd5b6000600660003373ffffffffffffffffffffffffffffffffffffffff1673ffffffffffffffffffffffffffffffffffffffff168152602001908152602001600020819055503373ffffffffffffffffffffffffffffffffffffffff166108fc829081150290604051600060405180830381858888f19350505050158015611be0573d6000803e3d6000fd5b5050565b81341015611c27576040517f08c379a0000000000000000000000000000000000000000000000000000000008152600401611c1e90613295565b60405180910390fd5b60008111611c6a576040517f08c379a0000000000000000000000000000000000000000000000000000000008152600401611c6190613301565b60405180910390fd5b600080815480929190611c7c90612c62565b919050555060405180610160016040528060005481526020013373ffffffffffffffffffffffffffffffffffffffff16815260200183815260200186815260200185815260200184815260200160006003811115611cdd57611cdc6123e5565b5b8152602001600081526020014281526020016201518083611cfe9190613321565b8152602001600073ffffffffffffffffffffffffffffffffffffffff1681525060036000805481526020019081526020016000206000820151816000015560208201518160010160006101000a81548173ffffffffffffffffffffffffffffffffffffffff021916908373ffffffffffffffffffffffffffffffffffffffff160217905550604082015181600201556060820151816003019081611da2919061350f565b506080820151816004019081611db8919061350f565b5060a0820151816005019081611dce919061350f565b5060c08201518160060160006101000a81548160ff02191690836003811115611dfa57611df96123e5565b5b021790555060e082015181600701556101008201518160080155610120820151816009015561014082015181600a0160006101000a81548173ffffffffffffffffffffffffffffffffffffffff021916908373ffffffffffffffffffffffffffffffffffffffff1602179055509050507f7c9c42ea4a98ff02e597498c394568923c74c2d3e031718ad08dbb59a42f03eb600054338484604051611ea194939291906135e1565b60405180910390a15050505050565b8160036000828152602001908152602001600020600901546003600083815260200190815260200160002060080154611ee99190612c2e565b4210611f2a576040517f08c379a0000000000000000000000000000000000000000000000000000000008152600401611f2190613672565b60405180910390fd5b60006003811115611f3e57611f3d6123e5565b5b6003600085815260200190815260200160002060060160009054906101000a900460ff166003811115611f7457611f736123e5565b5b14611fb4576040517f08c379a0000000000000000000000000000000000000000000000000000000008152600401611fab90612e17565b60405180910390fd5b6004600084815260200190815260200160002060405180608001604052803373ffffffffffffffffffffffffffffffffffffffff16815260200184815260200160011515815260200142815250908060018154018082558091505060019003906000526020600020906004020160009091909190915060008201518160000160006101000a81548173ffffffffffffffffffffffffffffffffffffffff021916908373ffffffffffffffffffffffffffffffffffffffff1602179055506020820151816001015560408201518160020160006101000a81548160ff0219169083151502179055506060820151816003015550506003600084815260200190815260200160002060070160008154809291906120ce90612c62565b9190505550600260008154809291906120e690612c62565b9190505550600760003373ffffffffffffffffffffffffffffffffffffffff1673ffffffffffffffffffffffffffffffffffffffff168152602001908152602001600020600101600081548092919061213e90612c62565b91905055507f09ac6a172865e35166d6f33bd99d072740d79f99349a94047863e2f12bb7aac483338460405161217693929190613692565b60405180910390a1505050565b6000808211801561219657506000548211155b6121d5576040517f08c379a00000000000000000000000000000000000000000000000000000000081526004016121cc90613715565b60405180910390fd5b60006003600084815260200190815260200160002060090154600360008581526020019081526020016000206008015461220f9190612c2e565b9050804210612222576000915050612232565b428161222e9190613735565b9150505b919050565b60405180610160016040528060008152602001600073ffffffffffffffffffffffffffffffffffffffff1681526020016000815260200160608152602001606081526020016060815260200160006003811115612297576122966123e5565b5b8152602001600081526020016000815260200160008152602001600073ffffffffffffffffffffffffffffffffffffffff1681525090565b600081519050919050565b600082825260208201905092915050565b6000819050602082019050919050565b6000819050919050565b61230e816122fb565b82525050565b600073ffffffffffffffffffffffffffffffffffffffff82169050919050565b600061233f82612314565b9050919050565b61234f81612334565b82525050565b600081519050919050565b600082825260208201905092915050565b60005b8381101561238f578082015181840152602081019050612374565b60008484015250505050565b6000601f19601f8301169050919050565b60006123b782612355565b6123c18185612360565b93506123d1818560208601612371565b6123da8161239b565b840191505092915050565b7f4e487b7100000000000000000000000000000000000000000000000000000000600052602160045260246000fd5b60048110612425576124246123e5565b5b50565b600081905061243682612414565b919050565b600061244682612428565b9050919050565b6124568161243b565b82525050565b6000610160830160008301516124756000860182612305565b5060208301516124886020860182612346565b50604083015161249b6040860182612305565b50606083015184820360608601526124b382826123ac565b915050608083015184820360808601526124cd82826123ac565b91505060a083015184820360a08601526124e782826123ac565b91505060c08301516124fc60c086018261244d565b5060e083015161250f60e0860182612305565b50610100830151612524610100860182612305565b50610120830151612539610120860182612305565b5061014083015161254e610140860182612346565b508091505092915050565b6000612565838361245c565b905092915050565b6000602082019050919050565b6000612585826122cf565b61258f81856122da565b9350836020820285016125a1856122eb565b8060005b858110156125dd57848403895281516125be8582612559565b94506125c98361256d565b925060208a019950506001810190506125a5565b50829750879550505050505092915050565b60006020820190508181036000830152612609818461257a565b905092915050565b6000604051905090565b600080fd5b600080fd5b61262e816122fb565b811461263957600080fd5b50565b60008135905061264b81612625565b92915050565b61265a81612334565b811461266557600080fd5b50565b60008135905061267781612651565b92915050565b600080604083850312156126945761269361261b565b5b60006126a28582860161263c565b92505060206126b385828601612668565b9150509250929050565b6000602082840312156126d3576126d261261b565b5b60006126e18482850161263c565b91505092915050565b60008115159050919050565b6126ff816126ea565b82525050565b600060208201905061271a60008301846126f6565b92915050565b612729816122fb565b82525050565b60006020820190506127446000830184612720565b92915050565b6000602082840312156127605761275f61261b565b5b600061276e84828501612668565b91505092915050565b600060608201905061278c6000830186612720565b6127996020830185612720565b6127a66040830184612720565b949350505050565b600080604083850312156127c5576127c461261b565b5b60006127d38582860161263c565b92505060206127e48582860161263c565b9150509250929050565b6127f781612334565b82525050565b6000819050919050565b612810816127fd565b82525050565b600060808201905061282b60008301876127ee565b6128386020830186612807565b61284560408301856126f6565b6128526060830184612720565b95945050505050565b600060208201905061287060008301846127ee565b92915050565b600082825260208201905092915050565b600061289282612355565b61289c8185612876565b93506128ac818560208601612371565b6128b58161239b565b840191505092915050565b6128c98161243b565b82525050565b6000610160820190506128e5600083018e612720565b6128f2602083018d6127ee565b6128ff604083018c612720565b8181036060830152612911818b612887565b90508181036080830152612925818a612887565b905081810360a08301526129398189612887565b905061294860c08301886128c0565b61295560e0830187612720565b612963610100830186612720565b612971610120830185612720565b61297f6101408301846127ee565b9c9b505050505050505050505050565b600080fd5b600080fd5b7f4e487b7100000000000000000000000000000000000000000000000000000000600052604160045260246000fd5b6129d18261239b565b810181811067ffffffffffffffff821117156129f0576129ef612999565b5b80604052505050565b6000612a03612611565b9050612a0f82826129c8565b919050565b600067ffffffffffffffff821115612a2f57612a2e612999565b5b612a388261239b565b9050602081019050919050565b82818337600083830152505050565b6000612a67612a6284612a14565b6129f9565b905082815260208101848484011115612a8357612a82612994565b5b612a8e848285612a45565b509392505050565b600082601f830112612aab57612aaa61298f565b5b8135612abb848260208601612a54565b91505092915050565b600080600080600060a08688031215612ae057612adf61261b565b5b600086013567ffffffffffffffff811115612afe57612afd612620565b5b612b0a88828901612a96565b955050602086013567ffffffffffffffff811115612b2b57612b2a612620565b5b612b3788828901612a96565b945050604086013567ffffffffffffffff811115612b5857612b57612620565b5b612b6488828901612a96565b9350506060612b758882890161263c565b9250506080612b868882890161263c565b9150509295509295909350565b612b9c816127fd565b8114612ba757600080fd5b50565b600081359050612bb981612b93565b92915050565b60008060408385031215612bd657612bd561261b565b5b6000612be48582860161263c565b9250506020612bf585828601612baa565b9150509250929050565b7f4e487b7100000000000000000000000000000000000000000000000000000000600052601160045260246000fd5b6000612c39826122fb565b9150612c44836122fb565b9250828201905080821115612c5c57612c5b612bff565b5b92915050565b6000612c6d826122fb565b91507fffffffffffffffffffffffffffffffffffffffffffffffffffffffffffffffff8203612c9f57612c9e612bff565b5b600182019050919050565b7f4e487b7100000000000000000000000000000000000000000000000000000000600052602260045260246000fd5b60006002820490506001821680612cf157607f821691505b602082108103612d0457612d03612caa565b5b50919050565b7f4e487b7100000000000000000000000000000000000000000000000000000000600052603260045260246000fd5b7f4f6e6c79206368616c6c656e67652063726561746f722063616e2063616c6c2060008201527f746869732066756e6374696f6e00000000000000000000000000000000000000602082015250565b6000612d95602d83612876565b9150612da082612d39565b604082019050919050565b60006020820190508181036000830152612dc481612d88565b9050919050565b7f4368616c6c656e6765206973206e6f7420616374697665000000000000000000600082015250565b6000612e01601783612876565b9150612e0c82612dcb565b602082019050919050565b60006020820190508181036000830152612e3081612df4565b9050919050565b7f4368616c6c656e676520616c726561647920636f6d706c657465640000000000600082015250565b6000612e6d601b83612876565b9150612e7882612e37565b602082019050919050565b60006020820190508181036000830152612e9c81612e60565b9050919050565b7f57696e6e6572206d7573742062652061207665726966696564207375626d697460008201527f7465720000000000000000000000000000000000000000000000000000000000602082015250565b6000612eff602383612876565b9150612f0a82612ea3565b604082019050919050565b60006020820190508181036000830152612f2e81612ef2565b9050919050565b6000606082019050612f4a6000830186612720565b612f5760208301856127ee565b612f646040830184612720565b949350505050565b7f4368616c6c656e6765206973206e6f7420696e2077616974696e67207374617460008201527f7573000000000000000000000000000000000000000000000000000000000000602082015250565b6000612fc8602283612876565b9150612fd382612f6c565b604082019050919050565b60006020820190508181036000830152612ff781612fbb565b9050919050565b7f4368616c6c656e676520686173206e6f74206578706972656420796574000000600082015250565b6000613034601d83612876565b915061303f82612ffe565b602082019050919050565b6000602082019050818103600083015261306381613027565b9050919050565b600060408201905061307f6000830185612720565b61308c60208301846127ee565b9392505050565b7f4368616c6c656e676520697320616c726561647920636f6d706c65746564206f60008201527f722063616e63656c6c6564000000000000000000000000000000000000000000602082015250565b60006130ef602b83612876565b91506130fa82613093565b604082019050919050565b6000602082019050818103600083015261311e816130e2565b9050919050565b7f4368616c6c656e676520686173207375626d697373696f6e732c2063616e6e6f60008201527f742063616e63656c000000000000000000000000000000000000000000000000602082015250565b6000613181602883612876565b915061318c82613125565b604082019050919050565b600060208201905081810360008301526131b081613174565b9050919050565b7f4e6f207265776172647320746f20776974686472617700000000000000000000600082015250565b60006131ed601683612876565b91506131f8826131b7565b602082019050919050565b6000602082019050818103600083015261321c816131e0565b9050919050565b7f416d6f756e742050616964206973204c657373205468616e2056616c7565205060008201527f75626c6973686564000000000000000000000000000000000000000000000000602082015250565b600061327f602883612876565b915061328a82613223565b604082019050919050565b600060208201905081810360008301526132ae81613272565b9050919050565b7f4475726174696f6e206d7573742062652067726561746572207468616e203000600082015250565b60006132eb601f83612876565b91506132f6826132b5565b602082019050919050565b6000602082019050818103600083015261331a816132de565b9050919050565b600061332c826122fb565b9150613337836122fb565b9250828202613345816122fb565b9150828204841483151761335c5761335b612bff565b5b5092915050565b60008190508160005260206000209050919050565b60006020601f8301049050919050565b600082821b905092915050565b6000600883026133c57fffffffffffffffffffffffffffffffffffffffffffffffffffffffffffffffff82613388565b6133cf8683613388565b95508019841693508086168417925050509392505050565b6000819050919050565b600061340c613407613402846122fb565b6133e7565b6122fb565b9050919050565b6000819050919050565b613426836133f1565b61343a61343282613413565b848454613395565b825550505050565b600090565b61344f613442565b61345a81848461341d565b505050565b5b8181101561347e57613473600082613447565b600181019050613460565b5050565b601f8211156134c35761349481613363565b61349d84613378565b810160208510156134ac578190505b6134c06134b885613378565b83018261345f565b50505b505050565b600082821c905092915050565b60006134e6600019846008026134c8565b1980831691505092915050565b60006134ff83836134d5565b9150826002028217905092915050565b61351882612355565b67ffffffffffffffff81111561353157613530612999565b5b61353b8254612cd9565b613546828285613482565b600060209050601f8311600181146135795760008415613567578287015190505b61357185826134f3565b8655506135d9565b601f19841661358786613363565b60005b828110156135af5784890151825560018201915060208501945060208101905061358a565b868310156135cc57848901516135c8601f8916826134d5565b8355505b6001600288020188555050505b505050505050565b60006080820190506135f66000830187612720565b61360360208301866127ee565b6136106040830185612720565b61361d6060830184612720565b95945050505050565b7f4368616c6c656e67652068617320657870697265640000000000000000000000600082015250565b600061365c601583612876565b915061366782613626565b602082019050919050565b6000602082019050818103600083015261368b8161364f565b9050919050565b60006060820190506136a76000830186612720565b6136b460208301856127ee565b6136c16040830184612807565b949350505050565b7f496e76616c6964206368616c6c656e6765204944000000000000000000000000600082015250565b60006136ff601483612876565b915061370a826136c9565b602082019050919050565b6000602082019050818103600083015261372e816136f2565b9050919050565b6000613740826122fb565b915061374b836122fb565b925082820390508181111561376357613762612bff565b5b9291505056fea264697066735822122067da8c6edb4ce5adfe5fa11522df8ee3c0ca61323300a86092dd4d9622a10a1164736f6c63430008130033",
  "linkReferences": {},
  "deployedLinkReferences": {}
}