{
  "_format": "hh-sol-artifact-1",
  "contractName": "CodeBounty",
  "sourceName": "contracts/CodeBounty.sol",
  "abi": [
    {
      "inputs": [],
      "stateMutability": "nonpayable",
      "type": "constructor"
    },
    {
      "anonymous": false,
      "inputs": [
        {
          "indexed": false,
          "internalType": "uint256",
          "name": "challengeId",
          "type": "uint256"
        },
        {
          "indexed": false,
          "internalType": "address",
          "name": "creator",
          "type": "address"
        }
      ],
      "name": "ChallengeCancelled",
      "type": "event"
    },
    {
      "anonymous": false,
      "inputs": [
        {
          "indexed": false,
          "internalType": "uint256",
          "name": "challengeId",
          "type": "uint256"
        },
        {
          "indexed": false,
          "internalType": "address",
          "name": "creator",
          "type": "address"
        },
        {
          "indexed": false,
          "internalType": "uint256",
          "name": "bounty",
          "type": "uint256"
        },
        {
          "indexed": false,
          "internalType": "uint256",
          "name": "duration",
          "type": "uint256"
        }
      ],
      "name": "ChallengeCreated",
      "type": "event"
    },
    {
      "anonymous": false,
      "inputs": [
        {
          "indexed": false,
          "internalType": "uint256",
          "name": "challengeId",
          "type": "uint256"
        },
        {
          "indexed": false,
          "internalType": "address",
          "name": "winner",
          "type": "address"
        }
      ],
      "name": "ChallengeExpired",
      "type": "event"
    },
    {
      "anonymous": false,
      "inputs": [
        {
          "indexed": false,
          "internalType": "uint256",
          "name": "challengeId",
          "type": "uint256"
        },
        {
          "indexed": false,
          "internalType": "address",
          "name": "winner",
          "type": "address"
        },
        {
          "indexed": false,
          "internalType": "uint256",
          "name": "amount",
          "type": "uint256"
        }
      ],
      "name": "RewardDistributed",
      "type": "event"
    },
    {
      "anonymous": false,
      "inputs": [
        {
          "indexed": false,
          "internalType": "uint256",
          "name": "challengeId",
          "type": "uint256"
        },
        {
          "indexed": false,
          "internalType": "address",
          "name": "submitter",
          "type": "address"
        },
        {
          "indexed": false,
          "internalType": "bytes32",
          "name": "solutionHash",
          "type": "bytes32"
        }
      ],
      "name": "SolutionSubmitted",
      "type": "event"
    },
    {
      "anonymous": false,
      "inputs": [
        {
          "indexed": false,
          "internalType": "uint256",
          "name": "challengeId",
          "type": "uint256"
        },
        {
          "indexed": false,
          "internalType": "address",
          "name": "verifier",
          "type": "address"
        },
        {
          "indexed": false,
          "internalType": "address",
          "name": "winner",
          "type": "address"
        }
      ],
      "name": "SolutionVerified",
      "type": "event"
    },
    {
      "inputs": [
        {
          "internalType": "uint256",
          "name": "_challengeId",
          "type": "uint256"
        }
      ],
      "name": "cancelChallenge",
      "outputs": [],
      "stateMutability": "nonpayable",
      "type": "function"
    },
    {
      "inputs": [
        {
          "internalType": "uint256",
          "name": "",
          "type": "uint256"
        }
      ],
      "name": "challengeCompleted",
      "outputs": [
        {
          "internalType": "bool",
          "name": "",
          "type": "bool"
        }
      ],
      "stateMutability": "view",
      "type": "function"
    },
    {
      "inputs": [],
      "name": "challengeIdCounter",
      "outputs": [
        {
          "internalType": "uint256",
          "name": "",
          "type": "uint256"
        }
      ],
      "stateMutability": "view",
      "type": "function"
    },
    {
      "inputs": [
        {
          "internalType": "uint256",
          "name": "",
          "type": "uint256"
        },
        {
          "internalType": "uint256",
          "name": "",
          "type": "uint256"
        }
      ],
      "name": "challengeSubmissions",
      "outputs": [
        {
          "internalType": "address",
          "name": "submitter",
          "type": "address"
        },
        {
          "internalType": "bytes32",
          "name": "solutionHash",
          "type": "bytes32"
        },
        {
          "internalType": "bool",
          "name": "isVerified",
          "type": "bool"
        },
        {
          "internalType": "uint256",
          "name": "submissionTime",
          "type": "uint256"
        }
      ],
      "stateMutability": "view",
      "type": "function"
    },
    {
      "inputs": [
        {
          "internalType": "uint256",
          "name": "",
          "type": "uint256"
        }
      ],
      "name": "challenges",
      "outputs": [
        {
          "internalType": "uint256",
          "name": "challengeId",
          "type": "uint256"
        },
        {
          "internalType": "address",
          "name": "creator",
          "type": "address"
        },
        {
          "internalType": "uint256",
          "name": "bountyAmount",
          "type": "uint256"
        },
        {
          "internalType": "string",
          "name": "title",
          "type": "string"
        },
        {
          "internalType": "string",
          "name": "description",
          "type": "string"
        },
        {
          "internalType": "string",
          "name": "requirements",
          "type": "string"
        },
        {
          "internalType": "enum CodeBounty.Status",
          "name": "challengeStatus",
          "type": "uint8"
        },
        {
          "internalType": "uint256",
          "name": "submissionsCount",
          "type": "uint256"
        },
        {
          "internalType": "uint256",
          "name": "startTime",
          "type": "uint256"
        },
        {
          "internalType": "uint256",
          "name": "duration",
          "type": "uint256"
        },
        {
          "internalType": "address",
          "name": "winner",
          "type": "address"
        }
      ],
      "stateMutability": "view",
      "type": "function"
    },
    {
      "inputs": [
        {
          "internalType": "string",
          "name": "_title",
          "type": "string"
        },
        {
          "internalType": "string",
          "name": "_description",
          "type": "string"
        },
        {
          "internalType": "string",
          "name": "_requirements",
          "type": "string"
        },
        {
          "internalType": "string[]",
          "name": "_tags",
          "type": "string[]"
        },
        {
          "internalType": "uint256",
          "name": "_bountyAmount",
          "type": "uint256"
        },
        {
          "internalType": "uint256",
          "name": "_durationInDays",
          "type": "uint256"
        }
      ],
      "name": "createChallenge",
      "outputs": [],
      "stateMutability": "payable",
      "type": "function"
    },
    {
      "inputs": [
        {
          "internalType": "uint256",
          "name": "_challengeId",
          "type": "uint256"
        },
        {
          "internalType": "address",
          "name": "winner",
          "type": "address"
        }
      ],
      "name": "distributeReward",
      "outputs": [],
      "stateMutability": "nonpayable",
      "type": "function"
    },
    {
      "inputs": [],
      "name": "getActiveChallenges",
      "outputs": [
        {
          "components": [
            {
              "internalType": "uint256",
              "name": "challengeId",
              "type": "uint256"
            },
            {
              "internalType": "address",
              "name": "creator",
              "type": "address"
            },
            {
              "internalType": "uint256",
              "name": "bountyAmount",
              "type": "uint256"
            },
            {
              "internalType": "string",
              "name": "title",
              "type": "string"
            },
            {
              "internalType": "string",
              "name": "description",
              "type": "string"
            },
            {
              "internalType": "string",
              "name": "requirements",
              "type": "string"
            },
            {
              "internalType": "string[]",
              "name": "tags",
              "type": "string[]"
            },
            {
              "internalType": "enum CodeBounty.Status",
              "name": "challengeStatus",
              "type": "uint8"
            },
            {
              "internalType": "uint256",
              "name": "submissionsCount",
              "type": "uint256"
            },
            {
              "internalType": "uint256",
              "name": "startTime",
              "type": "uint256"
            },
            {
              "internalType": "uint256",
              "name": "duration",
              "type": "uint256"
            },
            {
              "internalType": "address",
              "name": "winner",
              "type": "address"
            }
          ],
          "internalType": "struct CodeBounty.Challenge[]",
          "name": "",
          "type": "tuple[]"
        }
      ],
      "stateMutability": "view",
      "type": "function"
    },
    {
      "inputs": [
        {
          "internalType": "uint256",
          "name": "_challengeId",
          "type": "uint256"
        }
      ],
      "name": "getChallengeRemainingTime",
      "outputs": [
        {
          "internalType": "uint256",
          "name": "",
          "type": "uint256"
        }
      ],
      "stateMutability": "view",
      "type": "function"
    },
    {
      "inputs": [
        {
          "internalType": "address",
          "name": "_user",
          "type": "address"
        }
      ],
      "name": "getUserStats",
      "outputs": [
        {
          "internalType": "uint256",
          "name": "winCount",
          "type": "uint256"
        },
        {
          "internalType": "uint256",
          "name": "submissionCount",
          "type": "uint256"
        },
        {
          "internalType": "uint256",
          "name": "totalRewards",
          "type": "uint256"
        }
      ],
      "stateMutability": "view",
      "type": "function"
    },
    {
      "inputs": [],
      "name": "owner",
      "outputs": [
        {
          "internalType": "address",
          "name": "",
          "type": "address"
        }
      ],
      "stateMutability": "view",
      "type": "function"
    },
    {
      "inputs": [
        {
          "internalType": "uint256",
          "name": "_challengeId",
          "type": "uint256"
        }
      ],
      "name": "resolveExpiredChallenge",
      "outputs": [],
      "stateMutability": "nonpayable",
      "type": "function"
    },
    {
      "inputs": [
        {
          "internalType": "uint256",
          "name": "_challengeId",
          "type": "uint256"
        },
        {
          "internalType": "bytes32",
          "name": "_solutionHash",
          "type": "bytes32"
        }
      ],
      "name": "submitSolution",
      "outputs": [],
      "stateMutability": "nonpayable",
      "type": "function"
    },
    {
      "inputs": [],
      "name": "totalSubmissionsCount",
      "outputs": [
        {
          "internalType": "uint256",
          "name": "",
          "type": "uint256"
        }
      ],
      "stateMutability": "view",
      "type": "function"
    },
    {
      "inputs": [
        {
          "internalType": "address",
          "name": "",
          "type": "address"
        }
      ],
      "name": "userRewarded",
      "outputs": [
        {
          "internalType": "uint256",
          "name": "",
          "type": "uint256"
        }
      ],
      "stateMutability": "view",
      "type": "function"
    },
    {
      "inputs": [
        {
          "internalType": "address",
          "name": "",
          "type": "address"
        }
      ],
      "name": "userStats",
      "outputs": [
        {
          "internalType": "uint256",
          "name": "winCount",
          "type": "uint256"
        },
        {
          "internalType": "uint256",
          "name": "submissionCount",
          "type": "uint256"
        },
        {
          "internalType": "uint256",
          "name": "totalRewards",
          "type": "uint256"
        }
      ],
      "stateMutability": "view",
      "type": "function"
    },
    {
      "inputs": [],
      "name": "withdrawRewards",
      "outputs": [],
      "stateMutability": "nonpayable",
      "type": "function"
    }
  ],
  "bytecode": "0x608060405234801561001057600080fd5b5033600160006101000a81548173ffffffffffffffffffffffffffffffffffffffff021916908373ffffffffffffffffffffffffffffffffffffffff160217905550613c80806100616000396000f3fe6080604052600436106100fe5760003560e01c80638a65d87411610095578063a41483e311610064578063a41483e31461035f578063a5a7c33614610388578063c7b8981c146103c5578063e1d45577146103dc578063e917fbf214610405576100fe565b80638a65d874146102855780638da5cb5b146102c45780638f1d3776146102ef5780638f4125ea14610336576100fe565b80634e43603a116100d15780634e43603a146101bf578063571446db146101fe5780635f77bf641461023e578063791d7fc914610269576100fe565b80631f47991e1461010357806343bcc29b1461012e578063481c4643146101575780634adf305114610194575b600080fd5b34801561010f57600080fd5b50610118610442565b6040516101259190612950565b60405180910390f35b34801561013a57600080fd5b50610155600480360381019061015091906129de565b610a10565b005b34801561016357600080fd5b5061017e60048036038101906101799190612a1e565b610f3f565b60405161018b9190612a66565b60405180910390f35b3480156101a057600080fd5b506101a9610f5f565b6040516101b69190612a90565b60405180910390f35b3480156101cb57600080fd5b506101e660048036038101906101e19190612aab565b610f65565b6040516101f593929190612ad8565b60405180910390f35b34801561020a57600080fd5b5061022560048036038101906102209190612b0f565b610fc9565b6040516102359493929190612b77565b60405180910390f35b34801561024a57600080fd5b50610253611043565b6040516102609190612a90565b60405180910390f35b610283600480360381019061027e9190612dd7565b611049565b005b34801561029157600080fd5b506102ac60048036038101906102a79190612aab565b61133a565b6040516102bb93929190612ad8565b60405180910390f35b3480156102d057600080fd5b506102d9611364565b6040516102e69190612ed4565b60405180910390f35b3480156102fb57600080fd5b5061031660048036038101906103119190612a1e565b61138a565b60405161032d9b9a99989796959493929190612f48565b60405180910390f35b34801561034257600080fd5b5061035d60048036038101906103589190612a1e565b6115c9565b005b34801561036b57600080fd5b5061038660048036038101906103819190612a1e565b611c1f565b005b34801561039457600080fd5b506103af60048036038101906103aa9190612aab565b611e80565b6040516103bc9190612a90565b60405180910390f35b3480156103d157600080fd5b506103da611e98565b005b3480156103e857600080fd5b5061040360048036038101906103fe9190613034565b611fae565b005b34801561041157600080fd5b5061042c60048036038101906104279190612a1e565b612325565b6040516104399190612a90565b60405180910390f35b6060600080600190505b600054811161050657600060038111156104695761046861272a565b5b6003600083815260200190815260200160002060070160009054906101000a900460ff16600381111561049f5761049e61272a565b5b036104f35760036000828152602001908152602001600020600a015460036000838152602001908152602001600020600901546104dc91906130a3565b4210156104f25781806104ee906130d7565b9250505b5b80806104fe906130d7565b91505061044c565b5060008167ffffffffffffffff81111561052357610522612bc6565b5b60405190808252806020026020018201604052801561055c57816020015b6105496123d9565b8152602001906001900390816105415790505b509050600080600190505b6000548111610a0657600060038111156105845761058361272a565b5b6003600083815260200190815260200160002060070160009054906101000a900460ff1660038111156105ba576105b961272a565b5b036109f35760036000828152602001908152602001600020600a015460036000838152602001908152602001600020600901546105f791906130a3565b4210156109f2576003600082815260200190815260200160002060405180610180016040529081600082015481526020016001820160009054906101000a900473ffffffffffffffffffffffffffffffffffffffff1673ffffffffffffffffffffffffffffffffffffffff1673ffffffffffffffffffffffffffffffffffffffff168152602001600282015481526020016003820180546106979061314e565b80601f01602080910402602001604051908101604052809291908181526020018280546106c39061314e565b80156107105780601f106106e557610100808354040283529160200191610710565b820191906000526020600020905b8154815290600101906020018083116106f357829003601f168201915b505050505081526020016004820180546107299061314e565b80601f01602080910402602001604051908101604052809291908181526020018280546107559061314e565b80156107a25780601f10610777576101008083540402835291602001916107a2565b820191906000526020600020905b81548152906001019060200180831161078557829003601f168201915b505050505081526020016005820180546107bb9061314e565b80601f01602080910402602001604051908101604052809291908181526020018280546107e79061314e565b80156108345780601f1061080957610100808354040283529160200191610834565b820191906000526020600020905b81548152906001019060200180831161081757829003601f168201915b5050505050815260200160068201805480602002602001604051908101604052809291908181526020016000905b8282101561090e5783829060005260206000200180546108819061314e565b80601f01602080910402602001604051908101604052809291908181526020018280546108ad9061314e565b80156108fa5780601f106108cf576101008083540402835291602001916108fa565b820191906000526020600020905b8154815290600101906020018083116108dd57829003601f168201915b505050505081526020019060010190610862565b5050505081526020016007820160009054906101000a900460ff16600381111561093b5761093a61272a565b5b600381111561094d5761094c61272a565b5b81526020016008820154815260200160098201548152602001600a8201548152602001600b820160009054906101000a900473ffffffffffffffffffffffffffffffffffffffff1673ffffffffffffffffffffffffffffffffffffffff1673ffffffffffffffffffffffffffffffffffffffff16815250508383815181106109d8576109d761317f565b5b602002602001018190525081806109ee906130d7565b9250505b5b80806109fe906130d7565b915050610567565b5081935050505090565b816003600082815260200190815260200160002060010160009054906101000a900473ffffffffffffffffffffffffffffffffffffffff1673ffffffffffffffffffffffffffffffffffffffff163373ffffffffffffffffffffffffffffffffffffffff1614610ab5576040517f08c379a0000000000000000000000000000000000000000000000000000000008152600401610aac90613220565b60405180910390fd5b60006003811115610ac957610ac861272a565b5b6003600085815260200190815260200160002060070160009054906101000a900460ff166003811115610aff57610afe61272a565b5b14610b3f576040517f08c379a0000000000000000000000000000000000000000000000000000000008152600401610b369061328c565b60405180910390fd5b6005600084815260200190815260200160002060009054906101000a900460ff1615610ba0576040517f08c379a0000000000000000000000000000000000000000000000000000000008152600401610b97906132f8565b60405180910390fd5b6000805b6004600086815260200190815260200160002080549050811015610cb4578373ffffffffffffffffffffffffffffffffffffffff16600460008781526020019081526020016000208281548110610bfe57610bfd61317f565b5b906000526020600020906004020160000160009054906101000a900473ffffffffffffffffffffffffffffffffffffffff1673ffffffffffffffffffffffffffffffffffffffff16148015610c935750600460008681526020019081526020016000208181548110610c7357610c7261317f565b5b906000526020600020906004020160020160009054906101000a900460ff165b15610ca15760019150610cb4565b8080610cac906130d7565b915050610ba4565b5080610cf5576040517f08c379a0000000000000000000000000000000000000000000000000000000008152600401610cec9061338a565b60405180910390fd5b8260036000868152602001908152602001600020600b0160006101000a81548173ffffffffffffffffffffffffffffffffffffffff021916908373ffffffffffffffffffffffffffffffffffffffff1602179055506003600085815260200190815260200160002060020154600660008573ffffffffffffffffffffffffffffffffffffffff1673ffffffffffffffffffffffffffffffffffffffff1681526020019081526020016000206000828254610daf91906130a3565b9250508190555060016003600086815260200190815260200160002060070160006101000a81548160ff02191690836003811115610df057610def61272a565b5b021790555060016005600086815260200190815260200160002060006101000a81548160ff021916908315150217905550600760008473ffffffffffffffffffffffffffffffffffffffff1673ffffffffffffffffffffffffffffffffffffffff1681526020019081526020016000206000016000815480929190610e74906130d7565b91905055506003600085815260200190815260200160002060020154600760008573ffffffffffffffffffffffffffffffffffffffff1673ffffffffffffffffffffffffffffffffffffffff1681526020019081526020016000206002016000828254610ee191906130a3565b925050819055507fab7542bafced3da2d8c881cb2dd1de859fac7c20d3650d2902ad389a64e0888384846003600088815260200190815260200160002060020154604051610f31939291906133aa565b60405180910390a150505050565b60056020528060005260406000206000915054906101000a900460ff1681565b60005481565b600080600080600760008673ffffffffffffffffffffffffffffffffffffffff1673ffffffffffffffffffffffffffffffffffffffff1681526020019081526020016000209050806000015481600101548260020154935093509350509193909250565b60046020528160005260406000208181548110610fe557600080fd5b9060005260206000209060040201600091509150508060000160009054906101000a900473ffffffffffffffffffffffffffffffffffffffff16908060010154908060020160009054906101000a900460ff16908060030154905084565b60025481565b8134101561108c576040517f08c379a000000000000000000000000000000000000000000000000000000000815260040161108390613453565b60405180910390fd5b600081116110cf576040517f08c379a00000000000000000000000000000000000000000000000000000000081526004016110c6906134bf565b60405180910390fd5b6000808154809291906110e1906130d7565b919050555060405180610180016040528060005481526020013373ffffffffffffffffffffffffffffffffffffffff168152602001838152602001878152602001868152602001858152602001848152602001600060038111156111485761114761272a565b5b815260200160008152602001428152602001620151808361116991906134df565b8152602001600073ffffffffffffffffffffffffffffffffffffffff1681525060036000805481526020019081526020016000206000820151816000015560208201518160010160006101000a81548173ffffffffffffffffffffffffffffffffffffffff021916908373ffffffffffffffffffffffffffffffffffffffff16021790555060408201518160020155606082015181600301908161120d91906136cd565b50608082015181600401908161122391906136cd565b5060a082015181600501908161123991906136cd565b5060c0820151816006019080519060200190611256929190612478565b5060e08201518160070160006101000a81548160ff021916908360038111156112825761128161272a565b5b02179055506101008201518160080155610120820151816009015561014082015181600a015561016082015181600b0160006101000a81548173ffffffffffffffffffffffffffffffffffffffff021916908373ffffffffffffffffffffffffffffffffffffffff1602179055509050507f7c9c42ea4a98ff02e597498c394568923c74c2d3e031718ad08dbb59a42f03eb60005433848460405161132a949392919061379f565b60405180910390a1505050505050565b60076020528060005260406000206000915090508060000154908060010154908060020154905083565b600160009054906101000a900473ffffffffffffffffffffffffffffffffffffffff1681565b60036020528060005260406000206000915090508060000154908060010160009054906101000a900473ffffffffffffffffffffffffffffffffffffffff16908060020154908060030180546113df9061314e565b80601f016020809104026020016040519081016040528092919081815260200182805461140b9061314e565b80156114585780601f1061142d57610100808354040283529160200191611458565b820191906000526020600020905b81548152906001019060200180831161143b57829003601f168201915b50505050509080600401805461146d9061314e565b80601f01602080910402602001604051908101604052809291908181526020018280546114999061314e565b80156114e65780601f106114bb576101008083540402835291602001916114e6565b820191906000526020600020905b8154815290600101906020018083116114c957829003601f168201915b5050505050908060050180546114fb9061314e565b80601f01602080910402602001604051908101604052809291908181526020018280546115279061314e565b80156115745780601f1061154957610100808354040283529160200191611574565b820191906000526020600020905b81548152906001019060200180831161155757829003601f168201915b5050505050908060070160009054906101000a900460ff169080600801549080600901549080600a01549080600b0160009054906101000a900473ffffffffffffffffffffffffffffffffffffffff1690508b565b6000600360008381526020019081526020016000209050600060038111156115f4576115f361272a565b5b8160070160009054906101000a900460ff1660038111156116185761161761272a565b5b14611658576040517f08c379a000000000000000000000000000000000000000000000000000000000815260040161164f90613856565b60405180910390fd5b80600a0154816009015461166c91906130a3565b4210156116ae576040517f08c379a00000000000000000000000000000000000000000000000000000000081526004016116a5906138c2565b60405180910390fd5b6005600083815260200190815260200160002060009054906101000a900460ff161561170f576040517f08c379a0000000000000000000000000000000000000000000000000000000008152600401611706906132f8565b60405180910390fd5b600060046000848152602001908152602001600020805490501115611b44576000805b600460008581526020019081526020016000208054905081101561180a576004600085815260200190815260200160002081815481106117755761177461317f565b5b906000526020600020906004020160020160009054906101000a900460ff16156117f7576004600085815260200190815260200160002081815481106117be576117bd61317f565b5b906000526020600020906004020160000160009054906101000a900473ffffffffffffffffffffffffffffffffffffffff16915061180a565b8080611802906130d7565b915050611732565b50600073ffffffffffffffffffffffffffffffffffffffff168173ffffffffffffffffffffffffffffffffffffffff1614611a67578082600b0160006101000a81548173ffffffffffffffffffffffffffffffffffffffff021916908373ffffffffffffffffffffffffffffffffffffffff1602179055508160020154600660008373ffffffffffffffffffffffffffffffffffffffff1673ffffffffffffffffffffffffffffffffffffffff16815260200190815260200160002060008282546118d591906130a3565b9250508190555060018260070160006101000a81548160ff021916908360038111156119045761190361272a565b5b021790555060016005600085815260200190815260200160002060006101000a81548160ff021916908315150217905550600760008273ffffffffffffffffffffffffffffffffffffffff1673ffffffffffffffffffffffffffffffffffffffff1681526020019081526020016000206000016000815480929190611988906130d7565b91905055508160020154600760008373ffffffffffffffffffffffffffffffffffffffff1673ffffffffffffffffffffffffffffffffffffffff16815260200190815260200160002060020160008282546119e391906130a3565b925050819055507f94f424150827ceaf7d7f36a7ef11c743a3ffbd87a462df186e1804189e71eba88382604051611a1b9291906138e2565b60405180910390a17fab7542bafced3da2d8c881cb2dd1de859fac7c20d3650d2902ad389a64e0888383828460020154604051611a5a939291906133aa565b60405180910390a1611b3e565b60038260070160006101000a81548160ff02191690836003811115611a8f57611a8e61272a565b5b02179055508160010160009054906101000a900473ffffffffffffffffffffffffffffffffffffffff1673ffffffffffffffffffffffffffffffffffffffff166108fc83600201549081150290604051600060405180830381858888f19350505050158015611b02573d6000803e3d6000fd5b507f94f424150827ceaf7d7f36a7ef11c743a3ffbd87a462df186e1804189e71eba8836000604051611b359291906138e2565b60405180910390a15b50611c1b565b60038160070160006101000a81548160ff02191690836003811115611b6c57611b6b61272a565b5b02179055508060010160009054906101000a900473ffffffffffffffffffffffffffffffffffffffff1673ffffffffffffffffffffffffffffffffffffffff166108fc82600201549081150290604051600060405180830381858888f19350505050158015611bdf573d6000803e3d6000fd5b507f94f424150827ceaf7d7f36a7ef11c743a3ffbd87a462df186e1804189e71eba8826000604051611c129291906138e2565b60405180910390a15b5050565b806003600082815260200190815260200160002060010160009054906101000a900473ffffffffffffffffffffffffffffffffffffffff1673ffffffffffffffffffffffffffffffffffffffff163373ffffffffffffffffffffffffffffffffffffffff1614611cc4576040517f08c379a0000000000000000000000000000000000000000000000000000000008152600401611cbb90613220565b60405180910390fd5b60006003811115611cd857611cd761272a565b5b6003600084815260200190815260200160002060070160009054906101000a900460ff166003811115611d0e57611d0d61272a565b5b14611d4e576040517f08c379a0000000000000000000000000000000000000000000000000000000008152600401611d459061397d565b60405180910390fd5b6000600460008481526020019081526020016000208054905014611da7576040517f08c379a0000000000000000000000000000000000000000000000000000000008152600401611d9e90613a0f565b60405180910390fd5b3373ffffffffffffffffffffffffffffffffffffffff166108fc60036000858152602001908152602001600020600201549081150290604051600060405180830381858888f19350505050158015611e03573d6000803e3d6000fd5b5060026003600084815260200190815260200160002060070160006101000a81548160ff02191690836003811115611e3e57611e3d61272a565b5b02179055507f331f4510d26912f0e9f474e9a3151c359ce5d28378f1151479d27ec63236fa098233604051611e749291906138e2565b60405180910390a15050565b60066020528060005260406000206000915090505481565b6000600660003373ffffffffffffffffffffffffffffffffffffffff1673ffffffffffffffffffffffffffffffffffffffff16815260200190815260200160002054905060008111611f1f576040517f08c379a0000000000000000000000000000000000000000000000000000000008152600401611f1690613a7b565b60405180910390fd5b6000600660003373ffffffffffffffffffffffffffffffffffffffff1673ffffffffffffffffffffffffffffffffffffffff168152602001908152602001600020819055503373ffffffffffffffffffffffffffffffffffffffff166108fc829081150290604051600060405180830381858888f19350505050158015611faa573d6000803e3d6000fd5b5050565b8160036000828152602001908152602001600020600a01546003600083815260200190815260200160002060090154611fe791906130a3565b4210612028576040517f08c379a000000000000000000000000000000000000000000000000000000000815260040161201f90613ae7565b60405180910390fd5b6003600084815260200190815260200160002060010160009054906101000a900473ffffffffffffffffffffffffffffffffffffffff1673ffffffffffffffffffffffffffffffffffffffff163373ffffffffffffffffffffffffffffffffffffffff16036120cc576040517f08c379a00000000000000000000000000000000000000000000000000000000081526004016120c390613b53565b60405180910390fd5b600060038111156120e0576120df61272a565b5b6003600085815260200190815260200160002060070160009054906101000a900460ff1660038111156121165761211561272a565b5b14612156576040517f08c379a000000000000000000000000000000000000000000000000000000000815260040161214d9061328c565b60405180910390fd5b6004600084815260200190815260200160002060405180608001604052803373ffffffffffffffffffffffffffffffffffffffff16815260200184815260200160011515815260200142815250908060018154018082558091505060019003906000526020600020906004020160009091909190915060008201518160000160006101000a81548173ffffffffffffffffffffffffffffffffffffffff021916908373ffffffffffffffffffffffffffffffffffffffff1602179055506020820151816001015560408201518160020160006101000a81548160ff021916908315150217905550606082015181600301555050600360008481526020019081526020016000206008016000815480929190612270906130d7565b919050555060026000815480929190612288906130d7565b9190505550600760003373ffffffffffffffffffffffffffffffffffffffff1673ffffffffffffffffffffffffffffffffffffffff16815260200190815260200160002060010160008154809291906122e0906130d7565b91905055507f09ac6a172865e35166d6f33bd99d072740d79f99349a94047863e2f12bb7aac483338460405161231893929190613b73565b60405180910390a1505050565b6000808211801561233857506000548211155b612377576040517f08c379a000000000000000000000000000000000000000000000000000000000815260040161236e90613bf6565b60405180910390fd5b600060036000848152602001908152602001600020600a015460036000858152602001908152602001600020600901546123b191906130a3565b90508042106123c45760009150506123d4565b42816123d09190613c16565b9150505b919050565b60405180610180016040528060008152602001600073ffffffffffffffffffffffffffffffffffffffff1681526020016000815260200160608152602001606081526020016060815260200160608152602001600060038111156124405761243f61272a565b5b8152602001600081526020016000815260200160008152602001600073ffffffffffffffffffffffffffffffffffffffff1681525090565b8280548282559060005260206000209081019282156124c0579160200282015b828111156124bf5782518290816124af91906136cd565b5091602001919060010190612498565b5b5090506124cd91906124d1565b5090565b5b808211156124f157600081816124e891906124f5565b506001016124d2565b5090565b5080546125019061314e565b6000825580601f106125135750612532565b601f0160209004906000526020600020908101906125319190612535565b5b50565b5b8082111561254e576000816000905550600101612536565b5090565b600081519050919050565b600082825260208201905092915050565b6000819050602082019050919050565b6000819050919050565b6125918161257e565b82525050565b600073ffffffffffffffffffffffffffffffffffffffff82169050919050565b60006125c282612597565b9050919050565b6125d2816125b7565b82525050565b600081519050919050565b600082825260208201905092915050565b60005b838110156126125780820151818401526020810190506125f7565b60008484015250505050565b6000601f19601f8301169050919050565b600061263a826125d8565b61264481856125e3565b93506126548185602086016125f4565b61265d8161261e565b840191505092915050565b600081519050919050565b600082825260208201905092915050565b6000819050602082019050919050565b60006126a0838361262f565b905092915050565b6000602082019050919050565b60006126c082612668565b6126ca8185612673565b9350836020820285016126dc85612684565b8060005b8581101561271857848403895281516126f98582612694565b9450612704836126a8565b925060208a019950506001810190506126e0565b50829750879550505050505092915050565b7f4e487b7100000000000000000000000000000000000000000000000000000000600052602160045260246000fd5b6004811061276a5761276961272a565b5b50565b600081905061277b82612759565b919050565b600061278b8261276d565b9050919050565b61279b81612780565b82525050565b6000610180830160008301516127ba6000860182612588565b5060208301516127cd60208601826125c9565b5060408301516127e06040860182612588565b50606083015184820360608601526127f8828261262f565b91505060808301518482036080860152612812828261262f565b91505060a083015184820360a086015261282c828261262f565b91505060c083015184820360c086015261284682826126b5565b91505060e083015161285b60e0860182612792565b50610100830151612870610100860182612588565b50610120830151612885610120860182612588565b5061014083015161289a610140860182612588565b506101608301516128af6101608601826125c9565b508091505092915050565b60006128c683836127a1565b905092915050565b6000602082019050919050565b60006128e682612552565b6128f0818561255d565b9350836020820285016129028561256e565b8060005b8581101561293e578484038952815161291f85826128ba565b945061292a836128ce565b925060208a01995050600181019050612906565b50829750879550505050505092915050565b6000602082019050818103600083015261296a81846128db565b905092915050565b6000604051905090565b600080fd5b600080fd5b61298f8161257e565b811461299a57600080fd5b50565b6000813590506129ac81612986565b92915050565b6129bb816125b7565b81146129c657600080fd5b50565b6000813590506129d8816129b2565b92915050565b600080604083850312156129f5576129f461297c565b5b6000612a038582860161299d565b9250506020612a14858286016129c9565b9150509250929050565b600060208284031215612a3457612a3361297c565b5b6000612a428482850161299d565b91505092915050565b60008115159050919050565b612a6081612a4b565b82525050565b6000602082019050612a7b6000830184612a57565b92915050565b612a8a8161257e565b82525050565b6000602082019050612aa56000830184612a81565b92915050565b600060208284031215612ac157612ac061297c565b5b6000612acf848285016129c9565b91505092915050565b6000606082019050612aed6000830186612a81565b612afa6020830185612a81565b612b076040830184612a81565b949350505050565b60008060408385031215612b2657612b2561297c565b5b6000612b348582860161299d565b9250506020612b458582860161299d565b9150509250929050565b612b58816125b7565b82525050565b6000819050919050565b612b7181612b5e565b82525050565b6000608082019050612b8c6000830187612b4f565b612b996020830186612b68565b612ba66040830185612a57565b612bb36060830184612a81565b95945050505050565b600080fd5b600080fd5b7f4e487b7100000000000000000000000000000000000000000000000000000000600052604160045260246000fd5b612bfe8261261e565b810181811067ffffffffffffffff82111715612c1d57612c1c612bc6565b5b80604052505050565b6000612c30612972565b9050612c3c8282612bf5565b919050565b600067ffffffffffffffff821115612c5c57612c5b612bc6565b5b612c658261261e565b9050602081019050919050565b82818337600083830152505050565b6000612c94612c8f84612c41565b612c26565b905082815260208101848484011115612cb057612caf612bc1565b5b612cbb848285612c72565b509392505050565b600082601f830112612cd857612cd7612bbc565b5b8135612ce8848260208601612c81565b91505092915050565b600067ffffffffffffffff821115612d0c57612d0b612bc6565b5b602082029050602081019050919050565b600080fd5b6000612d35612d3084612cf1565b612c26565b90508083825260208201905060208402830185811115612d5857612d57612d1d565b5b835b81811015612d9f57803567ffffffffffffffff811115612d7d57612d7c612bbc565b5b808601612d8a8982612cc3565b85526020850194505050602081019050612d5a565b5050509392505050565b600082601f830112612dbe57612dbd612bbc565b5b8135612dce848260208601612d22565b91505092915050565b60008060008060008060c08789031215612df457612df361297c565b5b600087013567ffffffffffffffff811115612e1257612e11612981565b5b612e1e89828a01612cc3565b965050602087013567ffffffffffffffff811115612e3f57612e3e612981565b5b612e4b89828a01612cc3565b955050604087013567ffffffffffffffff811115612e6c57612e6b612981565b5b612e7889828a01612cc3565b945050606087013567ffffffffffffffff811115612e9957612e98612981565b5b612ea589828a01612da9565b9350506080612eb689828a0161299d565b92505060a0612ec789828a0161299d565b9150509295509295509295565b6000602082019050612ee96000830184612b4f565b92915050565b600082825260208201905092915050565b6000612f0b826125d8565b612f158185612eef565b9350612f258185602086016125f4565b612f2e8161261e565b840191505092915050565b612f4281612780565b82525050565b600061016082019050612f5e600083018e612a81565b612f6b602083018d612b4f565b612f78604083018c612a81565b8181036060830152612f8a818b612f00565b90508181036080830152612f9e818a612f00565b905081810360a0830152612fb28189612f00565b9050612fc160c0830188612f39565b612fce60e0830187612a81565b612fdc610100830186612a81565b612fea610120830185612a81565b612ff8610140830184612b4f565b9c9b505050505050505050505050565b61301181612b5e565b811461301c57600080fd5b50565b60008135905061302e81613008565b92915050565b6000806040838503121561304b5761304a61297c565b5b60006130598582860161299d565b925050602061306a8582860161301f565b9150509250929050565b7f4e487b7100000000000000000000000000000000000000000000000000000000600052601160045260246000fd5b60006130ae8261257e565b91506130b98361257e565b92508282019050808211156130d1576130d0613074565b5b92915050565b60006130e28261257e565b91507fffffffffffffffffffffffffffffffffffffffffffffffffffffffffffffffff820361311457613113613074565b5b600182019050919050565b7f4e487b7100000000000000000000000000000000000000000000000000000000600052602260045260246000fd5b6000600282049050600182168061316657607f821691505b6020821081036131795761317861311f565b5b50919050565b7f4e487b7100000000000000000000000000000000000000000000000000000000600052603260045260246000fd5b7f4f6e6c79206368616c6c656e67652063726561746f722063616e2063616c6c2060008201527f746869732066756e6374696f6e00000000000000000000000000000000000000602082015250565b600061320a602d83612eef565b9150613215826131ae565b604082019050919050565b60006020820190508181036000830152613239816131fd565b9050919050565b7f4368616c6c656e6765206973206e6f7420616374697665000000000000000000600082015250565b6000613276601783612eef565b915061328182613240565b602082019050919050565b600060208201905081810360008301526132a581613269565b9050919050565b7f4368616c6c656e676520616c726561647920636f6d706c657465640000000000600082015250565b60006132e2601b83612eef565b91506132ed826132ac565b602082019050919050565b60006020820190508181036000830152613311816132d5565b9050919050565b7f57696e6e6572206d7573742062652061207665726966696564207375626d697460008201527f7465720000000000000000000000000000000000000000000000000000000000602082015250565b6000613374602383612eef565b915061337f82613318565b604082019050919050565b600060208201905081810360008301526133a381613367565b9050919050565b60006060820190506133bf6000830186612a81565b6133cc6020830185612b4f565b6133d96040830184612a81565b949350505050565b7f416d6f756e742050616964206973204c657373205468616e2056616c7565205060008201527f75626c6973686564000000000000000000000000000000000000000000000000602082015250565b600061343d602883612eef565b9150613448826133e1565b604082019050919050565b6000602082019050818103600083015261346c81613430565b9050919050565b7f4475726174696f6e206d7573742062652067726561746572207468616e203000600082015250565b60006134a9601f83612eef565b91506134b482613473565b602082019050919050565b600060208201905081810360008301526134d88161349c565b9050919050565b60006134ea8261257e565b91506134f58361257e565b92508282026135038161257e565b9150828204841483151761351a57613519613074565b5b5092915050565b60008190508160005260206000209050919050565b60006020601f8301049050919050565b600082821b905092915050565b6000600883026135837fffffffffffffffffffffffffffffffffffffffffffffffffffffffffffffffff82613546565b61358d8683613546565b95508019841693508086168417925050509392505050565b6000819050919050565b60006135ca6135c56135c08461257e565b6135a5565b61257e565b9050919050565b6000819050919050565b6135e4836135af565b6135f86135f0826135d1565b848454613553565b825550505050565b600090565b61360d613600565b6136188184846135db565b505050565b5b8181101561363c57613631600082613605565b60018101905061361e565b5050565b601f8211156136815761365281613521565b61365b84613536565b8101602085101561366a578190505b61367e61367685613536565b83018261361d565b50505b505050565b600082821c905092915050565b60006136a460001984600802613686565b1980831691505092915050565b60006136bd8383613693565b9150826002028217905092915050565b6136d6826125d8565b67ffffffffffffffff8111156136ef576136ee612bc6565b5b6136f9825461314e565b613704828285613640565b600060209050601f8311600181146137375760008415613725578287015190505b61372f85826136b1565b865550613797565b601f19841661374586613521565b60005b8281101561376d57848901518255600182019150602085019450602081019050613748565b8683101561378a5784890151613786601f891682613693565b8355505b6001600288020188555050505b505050505050565b60006080820190506137b46000830187612a81565b6137c16020830186612b4f565b6137ce6040830185612a81565b6137db6060830184612a81565b95945050505050565b7f4368616c6c656e6765206973206e6f7420696e2077616974696e67207374617460008201527f7573000000000000000000000000000000000000000000000000000000000000602082015250565b6000613840602283612eef565b915061384b826137e4565b604082019050919050565b6000602082019050818103600083015261386f81613833565b9050919050565b7f4368616c6c656e676520686173206e6f74206578706972656420796574000000600082015250565b60006138ac601d83612eef565b91506138b782613876565b602082019050919050565b600060208201905081810360008301526138db8161389f565b9050919050565b60006040820190506138f76000830185612a81565b6139046020830184612b4f565b9392505050565b7f4368616c6c656e676520697320616c726561647920636f6d706c65746564206f60008201527f722063616e63656c6c6564000000000000000000000000000000000000000000602082015250565b6000613967602b83612eef565b91506139728261390b565b604082019050919050565b600060208201905081810360008301526139968161395a565b9050919050565b7f4368616c6c656e676520686173207375626d697373696f6e732c2063616e6e6f60008201527f742063616e63656c000000000000000000000000000000000000000000000000602082015250565b60006139f9602883612eef565b9150613a048261399d565b604082019050919050565b60006020820190508181036000830152613a28816139ec565b9050919050565b7f4e6f207265776172647320746f20776974686472617700000000000000000000600082015250565b6000613a65601683612eef565b9150613a7082613a2f565b602082019050919050565b60006020820190508181036000830152613a9481613a58565b9050919050565b7f4368616c6c656e67652068617320657870697265640000000000000000000000600082015250565b6000613ad1601583612eef565b9150613adc82613a9b565b602082019050919050565b60006020820190508181036000830152613b0081613ac4565b9050919050565b7f43726561746f722063616e6e6f74207375626d697420736f6c7574696f6e0000600082015250565b6000613b3d601e83612eef565b9150613b4882613b07565b602082019050919050565b60006020820190508181036000830152613b6c81613b30565b9050919050565b6000606082019050613b886000830186612a81565b613b956020830185612b4f565b613ba26040830184612b68565b949350505050565b7f496e76616c6964206368616c6c656e6765204944000000000000000000000000600082015250565b6000613be0601483612eef565b9150613beb82613baa565b602082019050919050565b60006020820190508181036000830152613c0f81613bd3565b9050919050565b6000613c218261257e565b9150613c2c8361257e565b9250828203905081811115613c4457613c43613074565b5b9291505056fea26469706673582212203a75a4015624f3d84be711acd2f98004472329263641423c9e36d15fa2e227d964736f6c63430008140033",
  "linkReferences": {},
  "deployedLinkReferences": {}
}