{
  "_format": "hh-sol-artifact-1",
  "contractName": "CodeBounty",
  "sourceName": "contracts/CodeBounty.sol",
  "abi": [
    {
      "inputs": [],
      "stateMutability": "nonpayable",
      "type": "constructor"
    },
    {
      "anonymous": false,
      "inputs": [
        {
          "indexed": false,
          "internalType": "uint256",
          "name": "challengeId",
          "type": "uint256"
        },
        {
          "indexed": false,
          "internalType": "address",
          "name": "creator",
          "type": "address"
        }
      ],
      "name": "ChallengeCancelled",
      "type": "event"
    },
    {
      "anonymous": false,
      "inputs": [
        {
          "indexed": false,
          "internalType": "uint256",
          "name": "challengeId",
          "type": "uint256"
        },
        {
          "indexed": false,
          "internalType": "address",
          "name": "creator",
          "type": "address"
        },
        {
          "indexed": false,
          "internalType": "uint256",
          "name": "bounty",
          "type": "uint256"
        },
        {
          "indexed": false,
          "internalType": "uint256",
          "name": "duration",
          "type": "uint256"
        }
      ],
      "name": "ChallengeCreated",
      "type": "event"
    },
    {
      "anonymous": false,
      "inputs": [
        {
          "indexed": false,
          "internalType": "uint256",
          "name": "challengeId",
          "type": "uint256"
        },
        {
          "indexed": false,
          "internalType": "address",
          "name": "winner",
          "type": "address"
        }
      ],
      "name": "ChallengeExpired",
      "type": "event"
    },
    {
      "anonymous": false,
      "inputs": [
        {
          "indexed": false,
          "internalType": "uint256",
          "name": "challengeId",
          "type": "uint256"
        },
        {
          "indexed": false,
          "internalType": "address",
          "name": "winner",
          "type": "address"
        },
        {
          "indexed": false,
          "internalType": "uint256",
          "name": "amount",
          "type": "uint256"
        }
      ],
      "name": "RewardDistributed",
      "type": "event"
    },
    {
      "anonymous": false,
      "inputs": [
        {
          "indexed": false,
          "internalType": "uint256",
          "name": "challengeId",
          "type": "uint256"
        },
        {
          "indexed": false,
          "internalType": "address",
          "name": "submitter",
          "type": "address"
        },
        {
          "indexed": false,
          "internalType": "bytes32",
          "name": "solutionHash",
          "type": "bytes32"
        }
      ],
      "name": "SolutionSubmitted",
      "type": "event"
    },
    {
      "anonymous": false,
      "inputs": [
        {
          "indexed": false,
          "internalType": "uint256",
          "name": "challengeId",
          "type": "uint256"
        },
        {
          "indexed": false,
          "internalType": "address",
          "name": "verifier",
          "type": "address"
        },
        {
          "indexed": false,
          "internalType": "address",
          "name": "winner",
          "type": "address"
        }
      ],
      "name": "SolutionVerified",
      "type": "event"
    },
    {
      "inputs": [
        {
          "internalType": "uint256",
          "name": "_challengeId",
          "type": "uint256"
        }
      ],
      "name": "cancelChallenge",
      "outputs": [],
      "stateMutability": "nonpayable",
      "type": "function"
    },
    {
      "inputs": [
        {
          "internalType": "uint256",
          "name": "",
          "type": "uint256"
        }
      ],
      "name": "challengeCompleted",
      "outputs": [
        {
          "internalType": "bool",
          "name": "",
          "type": "bool"
        }
      ],
      "stateMutability": "view",
      "type": "function"
    },
    {
      "inputs": [],
      "name": "challengeIdCounter",
      "outputs": [
        {
          "internalType": "uint256",
          "name": "",
          "type": "uint256"
        }
      ],
      "stateMutability": "view",
      "type": "function"
    },
    {
      "inputs": [
        {
          "internalType": "uint256",
          "name": "",
          "type": "uint256"
        },
        {
          "internalType": "uint256",
          "name": "",
          "type": "uint256"
        }
      ],
      "name": "challengeSubmissions",
      "outputs": [
        {
          "internalType": "address",
          "name": "submitter",
          "type": "address"
        },
        {
          "internalType": "bytes32",
          "name": "solutionHash",
          "type": "bytes32"
        },
        {
          "internalType": "bool",
          "name": "isVerified",
          "type": "bool"
        },
        {
          "internalType": "uint256",
          "name": "submissionTime",
          "type": "uint256"
        }
      ],
      "stateMutability": "view",
      "type": "function"
    },
    {
      "inputs": [
        {
          "internalType": "uint256",
          "name": "",
          "type": "uint256"
        }
      ],
      "name": "challenges",
      "outputs": [
        {
          "internalType": "uint256",
          "name": "challengeId",
          "type": "uint256"
        },
        {
          "internalType": "address",
          "name": "creator",
          "type": "address"
        },
        {
          "internalType": "uint256",
          "name": "bountyAmount",
          "type": "uint256"
        },
        {
          "internalType": "string",
          "name": "title",
          "type": "string"
        },
        {
          "internalType": "string",
          "name": "description",
          "type": "string"
        },
        {
          "internalType": "string",
          "name": "requirements",
          "type": "string"
        },
        {
          "internalType": "enum CodeBounty.Status",
          "name": "challengeStatus",
          "type": "uint8"
        },
        {
          "internalType": "uint256",
          "name": "submissionsCount",
          "type": "uint256"
        },
        {
          "internalType": "uint256",
          "name": "startTime",
          "type": "uint256"
        },
        {
          "internalType": "uint256",
          "name": "duration",
          "type": "uint256"
        },
        {
          "internalType": "address",
          "name": "winner",
          "type": "address"
        }
      ],
      "stateMutability": "view",
      "type": "function"
    },
    {
      "inputs": [
        {
          "internalType": "string",
          "name": "_title",
          "type": "string"
        },
        {
          "internalType": "string",
          "name": "_description",
          "type": "string"
        },
        {
          "internalType": "string",
          "name": "_requirements",
          "type": "string"
        },
        {
          "internalType": "string[]",
          "name": "_tags",
          "type": "string[]"
        },
        {
          "internalType": "uint256",
          "name": "_bountyAmount",
          "type": "uint256"
        },
        {
          "internalType": "uint256",
          "name": "_durationInDays",
          "type": "uint256"
        }
      ],
      "name": "createChallenge",
      "outputs": [],
      "stateMutability": "payable",
      "type": "function"
    },
    {
      "inputs": [
        {
          "internalType": "uint256",
          "name": "_challengeId",
          "type": "uint256"
        },
        {
          "internalType": "address",
          "name": "winner",
          "type": "address"
        }
      ],
      "name": "distributeReward",
      "outputs": [],
      "stateMutability": "nonpayable",
      "type": "function"
    },
    {
      "inputs": [],
      "name": "getActiveChallenges",
      "outputs": [
        {
          "components": [
            {
              "internalType": "uint256",
              "name": "challengeId",
              "type": "uint256"
            },
            {
              "internalType": "address",
              "name": "creator",
              "type": "address"
            },
            {
              "internalType": "uint256",
              "name": "bountyAmount",
              "type": "uint256"
            },
            {
              "internalType": "string",
              "name": "title",
              "type": "string"
            },
            {
              "internalType": "string",
              "name": "description",
              "type": "string"
            },
            {
              "internalType": "string",
              "name": "requirements",
              "type": "string"
            },
            {
              "internalType": "string[]",
              "name": "tags",
              "type": "string[]"
            },
            {
              "internalType": "enum CodeBounty.Status",
              "name": "challengeStatus",
              "type": "uint8"
            },
            {
              "internalType": "uint256",
              "name": "submissionsCount",
              "type": "uint256"
            },
            {
              "internalType": "uint256",
              "name": "startTime",
              "type": "uint256"
            },
            {
              "internalType": "uint256",
              "name": "duration",
              "type": "uint256"
            },
            {
              "internalType": "address",
              "name": "winner",
              "type": "address"
            }
          ],
          "internalType": "struct CodeBounty.Challenge[]",
          "name": "",
          "type": "tuple[]"
        }
      ],
      "stateMutability": "view",
      "type": "function"
    },
    {
      "inputs": [],
      "name": "getCancelledChallenges",
      "outputs": [
        {
          "components": [
            {
              "internalType": "uint256",
              "name": "challengeId",
              "type": "uint256"
            },
            {
              "internalType": "address",
              "name": "creator",
              "type": "address"
            },
            {
              "internalType": "uint256",
              "name": "bountyAmount",
              "type": "uint256"
            },
            {
              "internalType": "string",
              "name": "title",
              "type": "string"
            },
            {
              "internalType": "string",
              "name": "description",
              "type": "string"
            },
            {
              "internalType": "string",
              "name": "requirements",
              "type": "string"
            },
            {
              "internalType": "string[]",
              "name": "tags",
              "type": "string[]"
            },
            {
              "internalType": "enum CodeBounty.Status",
              "name": "challengeStatus",
              "type": "uint8"
            },
            {
              "internalType": "uint256",
              "name": "submissionsCount",
              "type": "uint256"
            },
            {
              "internalType": "uint256",
              "name": "startTime",
              "type": "uint256"
            },
            {
              "internalType": "uint256",
              "name": "duration",
              "type": "uint256"
            },
            {
              "internalType": "address",
              "name": "winner",
              "type": "address"
            }
          ],
          "internalType": "struct CodeBounty.Challenge[]",
          "name": "",
          "type": "tuple[]"
        }
      ],
      "stateMutability": "view",
      "type": "function"
    },
    {
      "inputs": [
        {
          "internalType": "uint256",
          "name": "_challengeId",
          "type": "uint256"
        }
      ],
      "name": "getChallengeRemainingTime",
      "outputs": [
        {
          "internalType": "uint256",
          "name": "",
          "type": "uint256"
        }
      ],
      "stateMutability": "view",
      "type": "function"
    },
    {
      "inputs": [],
      "name": "getCompletedChallenges",
      "outputs": [
        {
          "components": [
            {
              "internalType": "uint256",
              "name": "challengeId",
              "type": "uint256"
            },
            {
              "internalType": "address",
              "name": "creator",
              "type": "address"
            },
            {
              "internalType": "uint256",
              "name": "bountyAmount",
              "type": "uint256"
            },
            {
              "internalType": "string",
              "name": "title",
              "type": "string"
            },
            {
              "internalType": "string",
              "name": "description",
              "type": "string"
            },
            {
              "internalType": "string",
              "name": "requirements",
              "type": "string"
            },
            {
              "internalType": "string[]",
              "name": "tags",
              "type": "string[]"
            },
            {
              "internalType": "enum CodeBounty.Status",
              "name": "challengeStatus",
              "type": "uint8"
            },
            {
              "internalType": "uint256",
              "name": "submissionsCount",
              "type": "uint256"
            },
            {
              "internalType": "uint256",
              "name": "startTime",
              "type": "uint256"
            },
            {
              "internalType": "uint256",
              "name": "duration",
              "type": "uint256"
            },
            {
              "internalType": "address",
              "name": "winner",
              "type": "address"
            }
          ],
          "internalType": "struct CodeBounty.Challenge[]",
          "name": "",
          "type": "tuple[]"
        }
      ],
      "stateMutability": "view",
      "type": "function"
    },
    {
      "inputs": [],
      "name": "getExpiredChallenges",
      "outputs": [
        {
          "components": [
            {
              "internalType": "uint256",
              "name": "challengeId",
              "type": "uint256"
            },
            {
              "internalType": "address",
              "name": "creator",
              "type": "address"
            },
            {
              "internalType": "uint256",
              "name": "bountyAmount",
              "type": "uint256"
            },
            {
              "internalType": "string",
              "name": "title",
              "type": "string"
            },
            {
              "internalType": "string",
              "name": "description",
              "type": "string"
            },
            {
              "internalType": "string",
              "name": "requirements",
              "type": "string"
            },
            {
              "internalType": "string[]",
              "name": "tags",
              "type": "string[]"
            },
            {
              "internalType": "enum CodeBounty.Status",
              "name": "challengeStatus",
              "type": "uint8"
            },
            {
              "internalType": "uint256",
              "name": "submissionsCount",
              "type": "uint256"
            },
            {
              "internalType": "uint256",
              "name": "startTime",
              "type": "uint256"
            },
            {
              "internalType": "uint256",
              "name": "duration",
              "type": "uint256"
            },
            {
              "internalType": "address",
              "name": "winner",
              "type": "address"
            }
          ],
          "internalType": "struct CodeBounty.Challenge[]",
          "name": "",
          "type": "tuple[]"
        }
      ],
      "stateMutability": "view",
      "type": "function"
    },
    {
      "inputs": [
        {
          "internalType": "address",
          "name": "_user",
          "type": "address"
        }
      ],
      "name": "getUserStats",
      "outputs": [
        {
          "internalType": "uint256",
          "name": "winCount",
          "type": "uint256"
        },
        {
          "internalType": "uint256",
          "name": "submissionCount",
          "type": "uint256"
        },
        {
          "internalType": "uint256",
          "name": "totalRewards",
          "type": "uint256"
        }
      ],
      "stateMutability": "view",
      "type": "function"
    },
    {
      "inputs": [],
      "name": "owner",
      "outputs": [
        {
          "internalType": "address",
          "name": "",
          "type": "address"
        }
      ],
      "stateMutability": "view",
      "type": "function"
    },
    {
      "inputs": [
        {
          "internalType": "uint256",
          "name": "_challengeId",
          "type": "uint256"
        }
      ],
      "name": "resolveExpiredChallenge",
      "outputs": [],
      "stateMutability": "nonpayable",
      "type": "function"
    },
    {
      "inputs": [
        {
          "internalType": "uint256",
          "name": "_challengeId",
          "type": "uint256"
        },
        {
          "internalType": "bytes32",
          "name": "_solutionHash",
          "type": "bytes32"
        }
      ],
      "name": "submitSolution",
      "outputs": [],
      "stateMutability": "nonpayable",
      "type": "function"
    },
    {
      "inputs": [],
      "name": "totalSubmissionsCount",
      "outputs": [
        {
          "internalType": "uint256",
          "name": "",
          "type": "uint256"
        }
      ],
      "stateMutability": "view",
      "type": "function"
    },
    {
      "inputs": [
        {
          "internalType": "address",
          "name": "",
          "type": "address"
        }
      ],
      "name": "userRewarded",
      "outputs": [
        {
          "internalType": "uint256",
          "name": "",
          "type": "uint256"
        }
      ],
      "stateMutability": "view",
      "type": "function"
    },
    {
      "inputs": [
        {
          "internalType": "address",
          "name": "",
          "type": "address"
        }
      ],
      "name": "userStats",
      "outputs": [
        {
          "internalType": "uint256",
          "name": "winCount",
          "type": "uint256"
        },
        {
          "internalType": "uint256",
          "name": "submissionCount",
          "type": "uint256"
        },
        {
          "internalType": "uint256",
          "name": "totalRewards",
          "type": "uint256"
        }
      ],
      "stateMutability": "view",
      "type": "function"
    },
    {
      "inputs": [],
      "name": "withdrawRewards",
      "outputs": [],
      "stateMutability": "nonpayable",
      "type": "function"
    }
  ],
  "bytecode": "0x608060405234801561001057600080fd5b5033600160006101000a81548173ffffffffffffffffffffffffffffffffffffffff021916908373ffffffffffffffffffffffffffffffffffffffff160217905550614d0a806100616000396000f3fe60806040526004361061011f5760003560e01c80638da5cb5b116100a0578063c6f20ddb11610064578063c6f20ddb14610411578063c7b8981c1461043c578063de4ba26d14610453578063e1d455771461047e578063e917fbf2146104a75761011f565b80638da5cb5b146103105780638f1d37761461033b5780638f4125ea14610382578063a41483e3146103ab578063a5a7c336146103d45761011f565b80634e43603a116100e75780634e43603a1461020b578063571446db1461024a5780635f77bf641461028a578063791d7fc9146102b55780638a65d874146102d15761011f565b806309f2313e146101245780631f47991e1461014f57806343bcc29b1461017a578063481c4643146101a35780634adf3051146101e0575b600080fd5b34801561013057600080fd5b506101396104e4565b60405161014691906139da565b60405180910390f35b34801561015b57600080fd5b50610164610a32565b60405161017191906139da565b60405180910390f35b34801561018657600080fd5b506101a1600480360381019061019c9190613a68565b611000565b005b3480156101af57600080fd5b506101ca60048036038101906101c59190613aa8565b61152f565b6040516101d79190613af0565b60405180910390f35b3480156101ec57600080fd5b506101f561154f565b6040516102029190613b1a565b60405180910390f35b34801561021757600080fd5b50610232600480360381019061022d9190613b35565b611555565b60405161024193929190613b62565b60405180910390f35b34801561025657600080fd5b50610271600480360381019061026c9190613b99565b6115b9565b6040516102819493929190613c01565b60405180910390f35b34801561029657600080fd5b5061029f611633565b6040516102ac9190613b1a565b60405180910390f35b6102cf60048036038101906102ca9190613e61565b611639565b005b3480156102dd57600080fd5b506102f860048036038101906102f39190613b35565b61192a565b60405161030793929190613b62565b60405180910390f35b34801561031c57600080fd5b50610325611954565b6040516103329190613f5e565b60405180910390f35b34801561034757600080fd5b50610362600480360381019061035d9190613aa8565b61197a565b6040516103799b9a99989796959493929190613fd2565b60405180910390f35b34801561038e57600080fd5b506103a960048036038101906103a49190613aa8565b611bb9565b005b3480156103b757600080fd5b506103d260048036038101906103cd9190613aa8565b61220f565b005b3480156103e057600080fd5b506103fb60048036038101906103f69190613b35565b612470565b6040516104089190613b1a565b60405180910390f35b34801561041d57600080fd5b50610426612488565b60405161043391906139da565b60405180910390f35b34801561044857600080fd5b506104516129d4565b005b34801561045f57600080fd5b50610468612aea565b60405161047591906139da565b60405180910390f35b34801561048a57600080fd5b506104a560048036038101906104a091906140be565b613038565b005b3480156104b357600080fd5b506104ce60048036038101906104c99190613aa8565b6133af565b6040516104db9190613b1a565b60405180910390f35b6060600080600190505b6000548111610568576001600381111561050b5761050a6137b4565b5b6003600083815260200190815260200160002060070160009054906101000a900460ff166003811115610541576105406137b4565b5b036105555781806105519061412d565b9250505b80806105609061412d565b9150506104ee565b5060008167ffffffffffffffff81111561058557610584613c50565b5b6040519080825280602002602001820160405280156105be57816020015b6105ab613463565b8152602001906001900390816105a35790505b509050600080600190505b6000548111610a2857600160038111156105e6576105e56137b4565b5b6003600083815260200190815260200160002060070160009054906101000a900460ff16600381111561061c5761061b6137b4565b5b03610a15576003600082815260200190815260200160002060405180610180016040529081600082015481526020016001820160009054906101000a900473ffffffffffffffffffffffffffffffffffffffff1673ffffffffffffffffffffffffffffffffffffffff1673ffffffffffffffffffffffffffffffffffffffff168152602001600282015481526020016003820180546106ba906141a4565b80601f01602080910402602001604051908101604052809291908181526020018280546106e6906141a4565b80156107335780601f1061070857610100808354040283529160200191610733565b820191906000526020600020905b81548152906001019060200180831161071657829003601f168201915b5050505050815260200160048201805461074c906141a4565b80601f0160208091040260200160405190810160405280929190818152602001828054610778906141a4565b80156107c55780601f1061079a576101008083540402835291602001916107c5565b820191906000526020600020905b8154815290600101906020018083116107a857829003601f168201915b505050505081526020016005820180546107de906141a4565b80601f016020809104026020016040519081016040528092919081815260200182805461080a906141a4565b80156108575780601f1061082c57610100808354040283529160200191610857565b820191906000526020600020905b81548152906001019060200180831161083a57829003601f168201915b5050505050815260200160068201805480602002602001604051908101604052809291908181526020016000905b828210156109315783829060005260206000200180546108a4906141a4565b80601f01602080910402602001604051908101604052809291908181526020018280546108d0906141a4565b801561091d5780601f106108f25761010080835404028352916020019161091d565b820191906000526020600020905b81548152906001019060200180831161090057829003601f168201915b505050505081526020019060010190610885565b5050505081526020016007820160009054906101000a900460ff16600381111561095e5761095d6137b4565b5b60038111156109705761096f6137b4565b5b81526020016008820154815260200160098201548152602001600a8201548152602001600b820160009054906101000a900473ffffffffffffffffffffffffffffffffffffffff1673ffffffffffffffffffffffffffffffffffffffff1673ffffffffffffffffffffffffffffffffffffffff16815250508383815181106109fb576109fa6141d5565b5b60200260200101819052508180610a119061412d565b9250505b8080610a209061412d565b9150506105c9565b5081935050505090565b6060600080600190505b6000548111610af65760006003811115610a5957610a586137b4565b5b6003600083815260200190815260200160002060070160009054906101000a900460ff166003811115610a8f57610a8e6137b4565b5b03610ae35760036000828152602001908152602001600020600a01546003600083815260200190815260200160002060090154610acc9190614204565b421015610ae2578180610ade9061412d565b9250505b5b8080610aee9061412d565b915050610a3c565b5060008167ffffffffffffffff811115610b1357610b12613c50565b5b604051908082528060200260200182016040528015610b4c57816020015b610b39613463565b815260200190600190039081610b315790505b509050600080600190505b6000548111610ff65760006003811115610b7457610b736137b4565b5b6003600083815260200190815260200160002060070160009054906101000a900460ff166003811115610baa57610ba96137b4565b5b03610fe35760036000828152602001908152602001600020600a01546003600083815260200190815260200160002060090154610be79190614204565b421015610fe2576003600082815260200190815260200160002060405180610180016040529081600082015481526020016001820160009054906101000a900473ffffffffffffffffffffffffffffffffffffffff1673ffffffffffffffffffffffffffffffffffffffff1673ffffffffffffffffffffffffffffffffffffffff16815260200160028201548152602001600382018054610c87906141a4565b80601f0160208091040260200160405190810160405280929190818152602001828054610cb3906141a4565b8015610d005780601f10610cd557610100808354040283529160200191610d00565b820191906000526020600020905b815481529060010190602001808311610ce357829003601f168201915b50505050508152602001600482018054610d19906141a4565b80601f0160208091040260200160405190810160405280929190818152602001828054610d45906141a4565b8015610d925780601f10610d6757610100808354040283529160200191610d92565b820191906000526020600020905b815481529060010190602001808311610d7557829003601f168201915b50505050508152602001600582018054610dab906141a4565b80601f0160208091040260200160405190810160405280929190818152602001828054610dd7906141a4565b8015610e245780601f10610df957610100808354040283529160200191610e24565b820191906000526020600020905b815481529060010190602001808311610e0757829003601f168201915b5050505050815260200160068201805480602002602001604051908101604052809291908181526020016000905b82821015610efe578382906000526020600020018054610e71906141a4565b80601f0160208091040260200160405190810160405280929190818152602001828054610e9d906141a4565b8015610eea5780601f10610ebf57610100808354040283529160200191610eea565b820191906000526020600020905b815481529060010190602001808311610ecd57829003601f168201915b505050505081526020019060010190610e52565b5050505081526020016007820160009054906101000a900460ff166003811115610f2b57610f2a6137b4565b5b6003811115610f3d57610f3c6137b4565b5b81526020016008820154815260200160098201548152602001600a8201548152602001600b820160009054906101000a900473ffffffffffffffffffffffffffffffffffffffff1673ffffffffffffffffffffffffffffffffffffffff1673ffffffffffffffffffffffffffffffffffffffff1681525050838381518110610fc857610fc76141d5565b5b60200260200101819052508180610fde9061412d565b9250505b5b8080610fee9061412d565b915050610b57565b5081935050505090565b816003600082815260200190815260200160002060010160009054906101000a900473ffffffffffffffffffffffffffffffffffffffff1673ffffffffffffffffffffffffffffffffffffffff163373ffffffffffffffffffffffffffffffffffffffff16146110a5576040517f08c379a000000000000000000000000000000000000000000000000000000000815260040161109c906142aa565b60405180910390fd5b600060038111156110b9576110b86137b4565b5b6003600085815260200190815260200160002060070160009054906101000a900460ff1660038111156110ef576110ee6137b4565b5b1461112f576040517f08c379a000000000000000000000000000000000000000000000000000000000815260040161112690614316565b60405180910390fd5b6005600084815260200190815260200160002060009054906101000a900460ff1615611190576040517f08c379a000000000000000000000000000000000000000000000000000000000815260040161118790614382565b60405180910390fd5b6000805b60046000868152602001908152602001600020805490508110156112a4578373ffffffffffffffffffffffffffffffffffffffff166004600087815260200190815260200160002082815481106111ee576111ed6141d5565b5b906000526020600020906004020160000160009054906101000a900473ffffffffffffffffffffffffffffffffffffffff1673ffffffffffffffffffffffffffffffffffffffff161480156112835750600460008681526020019081526020016000208181548110611263576112626141d5565b5b906000526020600020906004020160020160009054906101000a900460ff165b1561129157600191506112a4565b808061129c9061412d565b915050611194565b50806112e5576040517f08c379a00000000000000000000000000000000000000000000000000000000081526004016112dc90614414565b60405180910390fd5b8260036000868152602001908152602001600020600b0160006101000a81548173ffffffffffffffffffffffffffffffffffffffff021916908373ffffffffffffffffffffffffffffffffffffffff1602179055506003600085815260200190815260200160002060020154600660008573ffffffffffffffffffffffffffffffffffffffff1673ffffffffffffffffffffffffffffffffffffffff168152602001908152602001600020600082825461139f9190614204565b9250508190555060016003600086815260200190815260200160002060070160006101000a81548160ff021916908360038111156113e0576113df6137b4565b5b021790555060016005600086815260200190815260200160002060006101000a81548160ff021916908315150217905550600760008473ffffffffffffffffffffffffffffffffffffffff1673ffffffffffffffffffffffffffffffffffffffff16815260200190815260200160002060000160008154809291906114649061412d565b91905055506003600085815260200190815260200160002060020154600760008573ffffffffffffffffffffffffffffffffffffffff1673ffffffffffffffffffffffffffffffffffffffff16815260200190815260200160002060020160008282546114d19190614204565b925050819055507fab7542bafced3da2d8c881cb2dd1de859fac7c20d3650d2902ad389a64e088838484600360008881526020019081526020016000206002015460405161152193929190614434565b60405180910390a150505050565b60056020528060005260406000206000915054906101000a900460ff1681565b60005481565b600080600080600760008673ffffffffffffffffffffffffffffffffffffffff1673ffffffffffffffffffffffffffffffffffffffff1681526020019081526020016000209050806000015481600101548260020154935093509350509193909250565b600460205281600052604060002081815481106115d557600080fd5b9060005260206000209060040201600091509150508060000160009054906101000a900473ffffffffffffffffffffffffffffffffffffffff16908060010154908060020160009054906101000a900460ff16908060030154905084565b60025481565b8134101561167c576040517f08c379a0000000000000000000000000000000000000000000000000000000008152600401611673906144dd565b60405180910390fd5b600081116116bf576040517f08c379a00000000000000000000000000000000000000000000000000000000081526004016116b690614549565b60405180910390fd5b6000808154809291906116d19061412d565b919050555060405180610180016040528060005481526020013373ffffffffffffffffffffffffffffffffffffffff16815260200183815260200187815260200186815260200185815260200184815260200160006003811115611738576117376137b4565b5b81526020016000815260200142815260200162015180836117599190614569565b8152602001600073ffffffffffffffffffffffffffffffffffffffff1681525060036000805481526020019081526020016000206000820151816000015560208201518160010160006101000a81548173ffffffffffffffffffffffffffffffffffffffff021916908373ffffffffffffffffffffffffffffffffffffffff1602179055506040820151816002015560608201518160030190816117fd9190614757565b5060808201518160040190816118139190614757565b5060a08201518160050190816118299190614757565b5060c0820151816006019080519060200190611846929190613502565b5060e08201518160070160006101000a81548160ff02191690836003811115611872576118716137b4565b5b02179055506101008201518160080155610120820151816009015561014082015181600a015561016082015181600b0160006101000a81548173ffffffffffffffffffffffffffffffffffffffff021916908373ffffffffffffffffffffffffffffffffffffffff1602179055509050507f7c9c42ea4a98ff02e597498c394568923c74c2d3e031718ad08dbb59a42f03eb60005433848460405161191a9493929190614829565b60405180910390a1505050505050565b60076020528060005260406000206000915090508060000154908060010154908060020154905083565b600160009054906101000a900473ffffffffffffffffffffffffffffffffffffffff1681565b60036020528060005260406000206000915090508060000154908060010160009054906101000a900473ffffffffffffffffffffffffffffffffffffffff16908060020154908060030180546119cf906141a4565b80601f01602080910402602001604051908101604052809291908181526020018280546119fb906141a4565b8015611a485780601f10611a1d57610100808354040283529160200191611a48565b820191906000526020600020905b815481529060010190602001808311611a2b57829003601f168201915b505050505090806004018054611a5d906141a4565b80601f0160208091040260200160405190810160405280929190818152602001828054611a89906141a4565b8015611ad65780601f10611aab57610100808354040283529160200191611ad6565b820191906000526020600020905b815481529060010190602001808311611ab957829003601f168201915b505050505090806005018054611aeb906141a4565b80601f0160208091040260200160405190810160405280929190818152602001828054611b17906141a4565b8015611b645780601f10611b3957610100808354040283529160200191611b64565b820191906000526020600020905b815481529060010190602001808311611b4757829003601f168201915b5050505050908060070160009054906101000a900460ff169080600801549080600901549080600a01549080600b0160009054906101000a900473ffffffffffffffffffffffffffffffffffffffff1690508b565b600060036000838152602001908152602001600020905060006003811115611be457611be36137b4565b5b8160070160009054906101000a900460ff166003811115611c0857611c076137b4565b5b14611c48576040517f08c379a0000000000000000000000000000000000000000000000000000000008152600401611c3f906148e0565b60405180910390fd5b80600a01548160090154611c5c9190614204565b421015611c9e576040517f08c379a0000000000000000000000000000000000000000000000000000000008152600401611c959061494c565b60405180910390fd5b6005600083815260200190815260200160002060009054906101000a900460ff1615611cff576040517f08c379a0000000000000000000000000000000000000000000000000000000008152600401611cf690614382565b60405180910390fd5b600060046000848152602001908152602001600020805490501115612134576000805b6004600085815260200190815260200160002080549050811015611dfa57600460008581526020019081526020016000208181548110611d6557611d646141d5565b5b906000526020600020906004020160020160009054906101000a900460ff1615611de757600460008581526020019081526020016000208181548110611dae57611dad6141d5565b5b906000526020600020906004020160000160009054906101000a900473ffffffffffffffffffffffffffffffffffffffff169150611dfa565b8080611df29061412d565b915050611d22565b50600073ffffffffffffffffffffffffffffffffffffffff168173ffffffffffffffffffffffffffffffffffffffff1614612057578082600b0160006101000a81548173ffffffffffffffffffffffffffffffffffffffff021916908373ffffffffffffffffffffffffffffffffffffffff1602179055508160020154600660008373ffffffffffffffffffffffffffffffffffffffff1673ffffffffffffffffffffffffffffffffffffffff1681526020019081526020016000206000828254611ec59190614204565b9250508190555060018260070160006101000a81548160ff02191690836003811115611ef457611ef36137b4565b5b021790555060016005600085815260200190815260200160002060006101000a81548160ff021916908315150217905550600760008273ffffffffffffffffffffffffffffffffffffffff1673ffffffffffffffffffffffffffffffffffffffff1681526020019081526020016000206000016000815480929190611f789061412d565b91905055508160020154600760008373ffffffffffffffffffffffffffffffffffffffff1673ffffffffffffffffffffffffffffffffffffffff1681526020019081526020016000206002016000828254611fd39190614204565b925050819055507f94f424150827ceaf7d7f36a7ef11c743a3ffbd87a462df186e1804189e71eba8838260405161200b92919061496c565b60405180910390a17fab7542bafced3da2d8c881cb2dd1de859fac7c20d3650d2902ad389a64e088838382846002015460405161204a93929190614434565b60405180910390a161212e565b60038260070160006101000a81548160ff0219169083600381111561207f5761207e6137b4565b5b02179055508160010160009054906101000a900473ffffffffffffffffffffffffffffffffffffffff1673ffffffffffffffffffffffffffffffffffffffff166108fc83600201549081150290604051600060405180830381858888f193505050501580156120f2573d6000803e3d6000fd5b507f94f424150827ceaf7d7f36a7ef11c743a3ffbd87a462df186e1804189e71eba883600060405161212592919061496c565b60405180910390a15b5061220b565b60038160070160006101000a81548160ff0219169083600381111561215c5761215b6137b4565b5b02179055508060010160009054906101000a900473ffffffffffffffffffffffffffffffffffffffff1673ffffffffffffffffffffffffffffffffffffffff166108fc82600201549081150290604051600060405180830381858888f193505050501580156121cf573d6000803e3d6000fd5b507f94f424150827ceaf7d7f36a7ef11c743a3ffbd87a462df186e1804189e71eba882600060405161220292919061496c565b60405180910390a15b5050565b806003600082815260200190815260200160002060010160009054906101000a900473ffffffffffffffffffffffffffffffffffffffff1673ffffffffffffffffffffffffffffffffffffffff163373ffffffffffffffffffffffffffffffffffffffff16146122b4576040517f08c379a00000000000000000000000000000000000000000000000000000000081526004016122ab906142aa565b60405180910390fd5b600060038111156122c8576122c76137b4565b5b6003600084815260200190815260200160002060070160009054906101000a900460ff1660038111156122fe576122fd6137b4565b5b1461233e576040517f08c379a000000000000000000000000000000000000000000000000000000000815260040161233590614a07565b60405180910390fd5b6000600460008481526020019081526020016000208054905014612397576040517f08c379a000000000000000000000000000000000000000000000000000000000815260040161238e90614a99565b60405180910390fd5b3373ffffffffffffffffffffffffffffffffffffffff166108fc60036000858152602001908152602001600020600201549081150290604051600060405180830381858888f193505050501580156123f3573d6000803e3d6000fd5b5060026003600084815260200190815260200160002060070160006101000a81548160ff0219169083600381111561242e5761242d6137b4565b5b02179055507f331f4510d26912f0e9f474e9a3151c359ce5d28378f1151479d27ec63236fa09823360405161246492919061496c565b60405180910390a15050565b60066020528060005260406000206000915090505481565b6060600080600190505b600054811161250b576003808111156124ae576124ad6137b4565b5b6003600083815260200190815260200160002060070160009054906101000a900460ff1660038111156124e4576124e36137b4565b5b036124f85781806124f49061412d565b9250505b80806125039061412d565b915050612492565b5060008167ffffffffffffffff81111561252857612527613c50565b5b60405190808252806020026020018201604052801561256157816020015b61254e613463565b8152602001906001900390816125465790505b509050600080600190505b60005481116129ca57600380811115612588576125876137b4565b5b6003600083815260200190815260200160002060070160009054906101000a900460ff1660038111156125be576125bd6137b4565b5b036129b7576003600082815260200190815260200160002060405180610180016040529081600082015481526020016001820160009054906101000a900473ffffffffffffffffffffffffffffffffffffffff1673ffffffffffffffffffffffffffffffffffffffff1673ffffffffffffffffffffffffffffffffffffffff1681526020016002820154815260200160038201805461265c906141a4565b80601f0160208091040260200160405190810160405280929190818152602001828054612688906141a4565b80156126d55780601f106126aa576101008083540402835291602001916126d5565b820191906000526020600020905b8154815290600101906020018083116126b857829003601f168201915b505050505081526020016004820180546126ee906141a4565b80601f016020809104026020016040519081016040528092919081815260200182805461271a906141a4565b80156127675780601f1061273c57610100808354040283529160200191612767565b820191906000526020600020905b81548152906001019060200180831161274a57829003601f168201915b50505050508152602001600582018054612780906141a4565b80601f01602080910402602001604051908101604052809291908181526020018280546127ac906141a4565b80156127f95780601f106127ce576101008083540402835291602001916127f9565b820191906000526020600020905b8154815290600101906020018083116127dc57829003601f168201915b5050505050815260200160068201805480602002602001604051908101604052809291908181526020016000905b828210156128d3578382906000526020600020018054612846906141a4565b80601f0160208091040260200160405190810160405280929190818152602001828054612872906141a4565b80156128bf5780601f10612894576101008083540402835291602001916128bf565b820191906000526020600020905b8154815290600101906020018083116128a257829003601f168201915b505050505081526020019060010190612827565b5050505081526020016007820160009054906101000a900460ff166003811115612900576128ff6137b4565b5b6003811115612912576129116137b4565b5b81526020016008820154815260200160098201548152602001600a8201548152602001600b820160009054906101000a900473ffffffffffffffffffffffffffffffffffffffff1673ffffffffffffffffffffffffffffffffffffffff1673ffffffffffffffffffffffffffffffffffffffff168152505083838151811061299d5761299c6141d5565b5b602002602001018190525081806129b39061412d565b9250505b80806129c29061412d565b91505061256c565b5081935050505090565b6000600660003373ffffffffffffffffffffffffffffffffffffffff1673ffffffffffffffffffffffffffffffffffffffff16815260200190815260200160002054905060008111612a5b576040517f08c379a0000000000000000000000000000000000000000000000000000000008152600401612a5290614b05565b60405180910390fd5b6000600660003373ffffffffffffffffffffffffffffffffffffffff1673ffffffffffffffffffffffffffffffffffffffff168152602001908152602001600020819055503373ffffffffffffffffffffffffffffffffffffffff166108fc829081150290604051600060405180830381858888f19350505050158015612ae6573d6000803e3d6000fd5b5050565b6060600080600190505b6000548111612b6e5760026003811115612b1157612b106137b4565b5b6003600083815260200190815260200160002060070160009054906101000a900460ff166003811115612b4757612b466137b4565b5b03612b5b578180612b579061412d565b9250505b8080612b669061412d565b915050612af4565b5060008167ffffffffffffffff811115612b8b57612b8a613c50565b5b604051908082528060200260200182016040528015612bc457816020015b612bb1613463565b815260200190600190039081612ba95790505b509050600080600190505b600054811161302e5760026003811115612bec57612beb6137b4565b5b6003600083815260200190815260200160002060070160009054906101000a900460ff166003811115612c2257612c216137b4565b5b0361301b576003600082815260200190815260200160002060405180610180016040529081600082015481526020016001820160009054906101000a900473ffffffffffffffffffffffffffffffffffffffff1673ffffffffffffffffffffffffffffffffffffffff1673ffffffffffffffffffffffffffffffffffffffff16815260200160028201548152602001600382018054612cc0906141a4565b80601f0160208091040260200160405190810160405280929190818152602001828054612cec906141a4565b8015612d395780601f10612d0e57610100808354040283529160200191612d39565b820191906000526020600020905b815481529060010190602001808311612d1c57829003601f168201915b50505050508152602001600482018054612d52906141a4565b80601f0160208091040260200160405190810160405280929190818152602001828054612d7e906141a4565b8015612dcb5780601f10612da057610100808354040283529160200191612dcb565b820191906000526020600020905b815481529060010190602001808311612dae57829003601f168201915b50505050508152602001600582018054612de4906141a4565b80601f0160208091040260200160405190810160405280929190818152602001828054612e10906141a4565b8015612e5d5780601f10612e3257610100808354040283529160200191612e5d565b820191906000526020600020905b815481529060010190602001808311612e4057829003601f168201915b5050505050815260200160068201805480602002602001604051908101604052809291908181526020016000905b82821015612f37578382906000526020600020018054612eaa906141a4565b80601f0160208091040260200160405190810160405280929190818152602001828054612ed6906141a4565b8015612f235780601f10612ef857610100808354040283529160200191612f23565b820191906000526020600020905b815481529060010190602001808311612f0657829003601f168201915b505050505081526020019060010190612e8b565b5050505081526020016007820160009054906101000a900460ff166003811115612f6457612f636137b4565b5b6003811115612f7657612f756137b4565b5b81526020016008820154815260200160098201548152602001600a8201548152602001600b820160009054906101000a900473ffffffffffffffffffffffffffffffffffffffff1673ffffffffffffffffffffffffffffffffffffffff1673ffffffffffffffffffffffffffffffffffffffff1681525050838381518110613001576130006141d5565b5b602002602001018190525081806130179061412d565b9250505b80806130269061412d565b915050612bcf565b5081935050505090565b8160036000828152602001908152602001600020600a015460036000838152602001908152602001600020600901546130719190614204565b42106130b2576040517f08c379a00000000000000000000000000000000000000000000000000000000081526004016130a990614b71565b60405180910390fd5b6003600084815260200190815260200160002060010160009054906101000a900473ffffffffffffffffffffffffffffffffffffffff1673ffffffffffffffffffffffffffffffffffffffff163373ffffffffffffffffffffffffffffffffffffffff1603613156576040517f08c379a000000000000000000000000000000000000000000000000000000000815260040161314d90614bdd565b60405180910390fd5b6000600381111561316a576131696137b4565b5b6003600085815260200190815260200160002060070160009054906101000a900460ff1660038111156131a05761319f6137b4565b5b146131e0576040517f08c379a00000000000000000000000000000000000000000000000000000000081526004016131d790614316565b60405180910390fd5b6004600084815260200190815260200160002060405180608001604052803373ffffffffffffffffffffffffffffffffffffffff16815260200184815260200160011515815260200142815250908060018154018082558091505060019003906000526020600020906004020160009091909190915060008201518160000160006101000a81548173ffffffffffffffffffffffffffffffffffffffff021916908373ffffffffffffffffffffffffffffffffffffffff1602179055506020820151816001015560408201518160020160006101000a81548160ff0219169083151502179055506060820151816003015550506003600084815260200190815260200160002060080160008154809291906132fa9061412d565b9190505550600260008154809291906133129061412d565b9190505550600760003373ffffffffffffffffffffffffffffffffffffffff1673ffffffffffffffffffffffffffffffffffffffff168152602001908152602001600020600101600081548092919061336a9061412d565b91905055507f09ac6a172865e35166d6f33bd99d072740d79f99349a94047863e2f12bb7aac48333846040516133a293929190614bfd565b60405180910390a1505050565b600080821180156133c257506000548211155b613401576040517f08c379a00000000000000000000000000000000000000000000000000000000081526004016133f890614c80565b60405180910390fd5b600060036000848152602001908152602001600020600a0154600360008581526020019081526020016000206009015461343b9190614204565b905080421061344e57600091505061345e565b428161345a9190614ca0565b9150505b919050565b60405180610180016040528060008152602001600073ffffffffffffffffffffffffffffffffffffffff1681526020016000815260200160608152602001606081526020016060815260200160608152602001600060038111156134ca576134c96137b4565b5b8152602001600081526020016000815260200160008152602001600073ffffffffffffffffffffffffffffffffffffffff1681525090565b82805482825590600052602060002090810192821561354a579160200282015b828111156135495782518290816135399190614757565b5091602001919060010190613522565b5b509050613557919061355b565b5090565b5b8082111561357b5760008181613572919061357f565b5060010161355c565b5090565b50805461358b906141a4565b6000825580601f1061359d57506135bc565b601f0160209004906000526020600020908101906135bb91906135bf565b5b50565b5b808211156135d85760008160009055506001016135c0565b5090565b600081519050919050565b600082825260208201905092915050565b6000819050602082019050919050565b6000819050919050565b61361b81613608565b82525050565b600073ffffffffffffffffffffffffffffffffffffffff82169050919050565b600061364c82613621565b9050919050565b61365c81613641565b82525050565b600081519050919050565b600082825260208201905092915050565b60005b8381101561369c578082015181840152602081019050613681565b60008484015250505050565b6000601f19601f8301169050919050565b60006136c482613662565b6136ce818561366d565b93506136de81856020860161367e565b6136e7816136a8565b840191505092915050565b600081519050919050565b600082825260208201905092915050565b6000819050602082019050919050565b600061372a83836136b9565b905092915050565b6000602082019050919050565b600061374a826136f2565b61375481856136fd565b9350836020820285016137668561370e565b8060005b858110156137a25784840389528151613783858261371e565b945061378e83613732565b925060208a0199505060018101905061376a565b50829750879550505050505092915050565b7f4e487b7100000000000000000000000000000000000000000000000000000000600052602160045260246000fd5b600481106137f4576137f36137b4565b5b50565b6000819050613805826137e3565b919050565b6000613815826137f7565b9050919050565b6138258161380a565b82525050565b6000610180830160008301516138446000860182613612565b5060208301516138576020860182613653565b50604083015161386a6040860182613612565b506060830151848203606086015261388282826136b9565b9150506080830151848203608086015261389c82826136b9565b91505060a083015184820360a08601526138b682826136b9565b91505060c083015184820360c08601526138d0828261373f565b91505060e08301516138e560e086018261381c565b506101008301516138fa610100860182613612565b5061012083015161390f610120860182613612565b50610140830151613924610140860182613612565b50610160830151613939610160860182613653565b508091505092915050565b6000613950838361382b565b905092915050565b6000602082019050919050565b6000613970826135dc565b61397a81856135e7565b93508360208202850161398c856135f8565b8060005b858110156139c857848403895281516139a98582613944565b94506139b483613958565b925060208a01995050600181019050613990565b50829750879550505050505092915050565b600060208201905081810360008301526139f48184613965565b905092915050565b6000604051905090565b600080fd5b600080fd5b613a1981613608565b8114613a2457600080fd5b50565b600081359050613a3681613a10565b92915050565b613a4581613641565b8114613a5057600080fd5b50565b600081359050613a6281613a3c565b92915050565b60008060408385031215613a7f57613a7e613a06565b5b6000613a8d85828601613a27565b9250506020613a9e85828601613a53565b9150509250929050565b600060208284031215613abe57613abd613a06565b5b6000613acc84828501613a27565b91505092915050565b60008115159050919050565b613aea81613ad5565b82525050565b6000602082019050613b056000830184613ae1565b92915050565b613b1481613608565b82525050565b6000602082019050613b2f6000830184613b0b565b92915050565b600060208284031215613b4b57613b4a613a06565b5b6000613b5984828501613a53565b91505092915050565b6000606082019050613b776000830186613b0b565b613b846020830185613b0b565b613b916040830184613b0b565b949350505050565b60008060408385031215613bb057613baf613a06565b5b6000613bbe85828601613a27565b9250506020613bcf85828601613a27565b9150509250929050565b613be281613641565b82525050565b6000819050919050565b613bfb81613be8565b82525050565b6000608082019050613c166000830187613bd9565b613c236020830186613bf2565b613c306040830185613ae1565b613c3d6060830184613b0b565b95945050505050565b600080fd5b600080fd5b7f4e487b7100000000000000000000000000000000000000000000000000000000600052604160045260246000fd5b613c88826136a8565b810181811067ffffffffffffffff82111715613ca757613ca6613c50565b5b80604052505050565b6000613cba6139fc565b9050613cc68282613c7f565b919050565b600067ffffffffffffffff821115613ce657613ce5613c50565b5b613cef826136a8565b9050602081019050919050565b82818337600083830152505050565b6000613d1e613d1984613ccb565b613cb0565b905082815260208101848484011115613d3a57613d39613c4b565b5b613d45848285613cfc565b509392505050565b600082601f830112613d6257613d61613c46565b5b8135613d72848260208601613d0b565b91505092915050565b600067ffffffffffffffff821115613d9657613d95613c50565b5b602082029050602081019050919050565b600080fd5b6000613dbf613dba84613d7b565b613cb0565b90508083825260208201905060208402830185811115613de257613de1613da7565b5b835b81811015613e2957803567ffffffffffffffff811115613e0757613e06613c46565b5b808601613e148982613d4d565b85526020850194505050602081019050613de4565b5050509392505050565b600082601f830112613e4857613e47613c46565b5b8135613e58848260208601613dac565b91505092915050565b60008060008060008060c08789031215613e7e57613e7d613a06565b5b600087013567ffffffffffffffff811115613e9c57613e9b613a0b565b5b613ea889828a01613d4d565b965050602087013567ffffffffffffffff811115613ec957613ec8613a0b565b5b613ed589828a01613d4d565b955050604087013567ffffffffffffffff811115613ef657613ef5613a0b565b5b613f0289828a01613d4d565b945050606087013567ffffffffffffffff811115613f2357613f22613a0b565b5b613f2f89828a01613e33565b9350506080613f4089828a01613a27565b92505060a0613f5189828a01613a27565b9150509295509295509295565b6000602082019050613f736000830184613bd9565b92915050565b600082825260208201905092915050565b6000613f9582613662565b613f9f8185613f79565b9350613faf81856020860161367e565b613fb8816136a8565b840191505092915050565b613fcc8161380a565b82525050565b600061016082019050613fe8600083018e613b0b565b613ff5602083018d613bd9565b614002604083018c613b0b565b8181036060830152614014818b613f8a565b90508181036080830152614028818a613f8a565b905081810360a083015261403c8189613f8a565b905061404b60c0830188613fc3565b61405860e0830187613b0b565b614066610100830186613b0b565b614074610120830185613b0b565b614082610140830184613bd9565b9c9b505050505050505050505050565b61409b81613be8565b81146140a657600080fd5b50565b6000813590506140b881614092565b92915050565b600080604083850312156140d5576140d4613a06565b5b60006140e385828601613a27565b92505060206140f4858286016140a9565b9150509250929050565b7f4e487b7100000000000000000000000000000000000000000000000000000000600052601160045260246000fd5b600061413882613608565b91507fffffffffffffffffffffffffffffffffffffffffffffffffffffffffffffffff820361416a576141696140fe565b5b600182019050919050565b7f4e487b7100000000000000000000000000000000000000000000000000000000600052602260045260246000fd5b600060028204905060018216806141bc57607f821691505b6020821081036141cf576141ce614175565b5b50919050565b7f4e487b7100000000000000000000000000000000000000000000000000000000600052603260045260246000fd5b600061420f82613608565b915061421a83613608565b9250828201905080821115614232576142316140fe565b5b92915050565b7f4f6e6c79206368616c6c656e67652063726561746f722063616e2063616c6c2060008201527f746869732066756e6374696f6e00000000000000000000000000000000000000602082015250565b6000614294602d83613f79565b915061429f82614238565b604082019050919050565b600060208201905081810360008301526142c381614287565b9050919050565b7f4368616c6c656e6765206973206e6f7420616374697665000000000000000000600082015250565b6000614300601783613f79565b915061430b826142ca565b602082019050919050565b6000602082019050818103600083015261432f816142f3565b9050919050565b7f4368616c6c656e676520616c726561647920636f6d706c657465640000000000600082015250565b600061436c601b83613f79565b915061437782614336565b602082019050919050565b6000602082019050818103600083015261439b8161435f565b9050919050565b7f57696e6e6572206d7573742062652061207665726966696564207375626d697460008201527f7465720000000000000000000000000000000000000000000000000000000000602082015250565b60006143fe602383613f79565b9150614409826143a2565b604082019050919050565b6000602082019050818103600083015261442d816143f1565b9050919050565b60006060820190506144496000830186613b0b565b6144566020830185613bd9565b6144636040830184613b0b565b949350505050565b7f416d6f756e742050616964206973204c657373205468616e2056616c7565205060008201527f75626c6973686564000000000000000000000000000000000000000000000000602082015250565b60006144c7602883613f79565b91506144d28261446b565b604082019050919050565b600060208201905081810360008301526144f6816144ba565b9050919050565b7f4475726174696f6e206d7573742062652067726561746572207468616e203000600082015250565b6000614533601f83613f79565b915061453e826144fd565b602082019050919050565b6000602082019050818103600083015261456281614526565b9050919050565b600061457482613608565b915061457f83613608565b925082820261458d81613608565b915082820484148315176145a4576145a36140fe565b5b5092915050565b60008190508160005260206000209050919050565b60006020601f8301049050919050565b600082821b905092915050565b60006008830261460d7fffffffffffffffffffffffffffffffffffffffffffffffffffffffffffffffff826145d0565b61461786836145d0565b95508019841693508086168417925050509392505050565b6000819050919050565b600061465461464f61464a84613608565b61462f565b613608565b9050919050565b6000819050919050565b61466e83614639565b61468261467a8261465b565b8484546145dd565b825550505050565b600090565b61469761468a565b6146a2818484614665565b505050565b5b818110156146c6576146bb60008261468f565b6001810190506146a8565b5050565b601f82111561470b576146dc816145ab565b6146e5846145c0565b810160208510156146f4578190505b614708614700856145c0565b8301826146a7565b50505b505050565b600082821c905092915050565b600061472e60001984600802614710565b1980831691505092915050565b6000614747838361471d565b9150826002028217905092915050565b61476082613662565b67ffffffffffffffff81111561477957614778613c50565b5b61478382546141a4565b61478e8282856146ca565b600060209050601f8311600181146147c157600084156147af578287015190505b6147b9858261473b565b865550614821565b601f1984166147cf866145ab565b60005b828110156147f7578489015182556001820191506020850194506020810190506147d2565b868310156148145784890151614810601f89168261471d565b8355505b6001600288020188555050505b505050505050565b600060808201905061483e6000830187613b0b565b61484b6020830186613bd9565b6148586040830185613b0b565b6148656060830184613b0b565b95945050505050565b7f4368616c6c656e6765206973206e6f7420696e2077616974696e67207374617460008201527f7573000000000000000000000000000000000000000000000000000000000000602082015250565b60006148ca602283613f79565b91506148d58261486e565b604082019050919050565b600060208201905081810360008301526148f9816148bd565b9050919050565b7f4368616c6c656e676520686173206e6f74206578706972656420796574000000600082015250565b6000614936601d83613f79565b915061494182614900565b602082019050919050565b6000602082019050818103600083015261496581614929565b9050919050565b60006040820190506149816000830185613b0b565b61498e6020830184613bd9565b9392505050565b7f4368616c6c656e676520697320616c726561647920636f6d706c65746564206f60008201527f722063616e63656c6c6564000000000000000000000000000000000000000000602082015250565b60006149f1602b83613f79565b91506149fc82614995565b604082019050919050565b60006020820190508181036000830152614a20816149e4565b9050919050565b7f4368616c6c656e676520686173207375626d697373696f6e732c2063616e6e6f60008201527f742063616e63656c000000000000000000000000000000000000000000000000602082015250565b6000614a83602883613f79565b9150614a8e82614a27565b604082019050919050565b60006020820190508181036000830152614ab281614a76565b9050919050565b7f4e6f207265776172647320746f20776974686472617700000000000000000000600082015250565b6000614aef601683613f79565b9150614afa82614ab9565b602082019050919050565b60006020820190508181036000830152614b1e81614ae2565b9050919050565b7f4368616c6c656e67652068617320657870697265640000000000000000000000600082015250565b6000614b5b601583613f79565b9150614b6682614b25565b602082019050919050565b60006020820190508181036000830152614b8a81614b4e565b9050919050565b7f43726561746f722063616e6e6f74207375626d697420736f6c7574696f6e0000600082015250565b6000614bc7601e83613f79565b9150614bd282614b91565b602082019050919050565b60006020820190508181036000830152614bf681614bba565b9050919050565b6000606082019050614c126000830186613b0b565b614c1f6020830185613bd9565b614c2c6040830184613bf2565b949350505050565b7f496e76616c6964206368616c6c656e6765204944000000000000000000000000600082015250565b6000614c6a601483613f79565b9150614c7582614c34565b602082019050919050565b60006020820190508181036000830152614c9981614c5d565b9050919050565b6000614cab82613608565b9150614cb683613608565b9250828203905081811115614cce57614ccd6140fe565b5b9291505056fea2646970667358221220c381243bcbcc9f6912d75332ce86b0da9578c7ab19b88c96d59ebe0b3a3c5fc964736f6c63430008140033",
  "linkReferences": {},
  "deployedLinkReferences": {}
}