{
  "_format": "hh-sol-artifact-1",
  "contractName": "CodeBounty",
  "sourceName": "contracts/CodeBounty.sol",
  "abi": [
    {
      "inputs": [],
      "stateMutability": "nonpayable",
      "type": "constructor"
    },
    {
      "anonymous": false,
      "inputs": [
        {
          "indexed": false,
          "internalType": "uint256",
          "name": "challengeId",
          "type": "uint256"
        },
        {
          "indexed": false,
          "internalType": "address",
          "name": "creator",
          "type": "address"
        }
      ],
      "name": "ChallengeCancelled",
      "type": "event"
    },
    {
      "anonymous": false,
      "inputs": [
        {
          "indexed": false,
          "internalType": "uint256",
          "name": "challengeId",
          "type": "uint256"
        },
        {
          "indexed": false,
          "internalType": "address",
          "name": "creator",
          "type": "address"
        },
        {
          "indexed": false,
          "internalType": "uint256",
          "name": "bounty",
          "type": "uint256"
        },
        {
          "indexed": false,
          "internalType": "uint256",
          "name": "duration",
          "type": "uint256"
        }
      ],
      "name": "ChallengeCreated",
      "type": "event"
    },
    {
      "anonymous": false,
      "inputs": [
        {
          "indexed": false,
          "internalType": "uint256",
          "name": "challengeId",
          "type": "uint256"
        },
        {
          "indexed": false,
          "internalType": "address",
          "name": "winner",
          "type": "address"
        }
      ],
      "name": "ChallengeExpired",
      "type": "event"
    },
    {
      "anonymous": false,
      "inputs": [
        {
          "indexed": false,
          "internalType": "uint256",
          "name": "challengeId",
          "type": "uint256"
        },
        {
          "indexed": false,
          "internalType": "address",
          "name": "winner",
          "type": "address"
        },
        {
          "indexed": false,
          "internalType": "uint256",
          "name": "amount",
          "type": "uint256"
        }
      ],
      "name": "RewardDistributed",
      "type": "event"
    },
    {
      "anonymous": false,
      "inputs": [
        {
          "indexed": false,
          "internalType": "uint256",
          "name": "challengeId",
          "type": "uint256"
        },
        {
          "indexed": false,
          "internalType": "address",
          "name": "submitter",
          "type": "address"
        },
        {
          "indexed": false,
          "internalType": "bytes32",
          "name": "solutionHash",
          "type": "bytes32"
        }
      ],
      "name": "SolutionSubmitted",
      "type": "event"
    },
    {
      "anonymous": false,
      "inputs": [
        {
          "indexed": false,
          "internalType": "uint256",
          "name": "challengeId",
          "type": "uint256"
        },
        {
          "indexed": false,
          "internalType": "address",
          "name": "verifier",
          "type": "address"
        },
        {
          "indexed": false,
          "internalType": "address",
          "name": "winner",
          "type": "address"
        }
      ],
      "name": "SolutionVerified",
      "type": "event"
    },
    {
      "inputs": [
        {
          "internalType": "uint256",
          "name": "_challengeId",
          "type": "uint256"
        }
      ],
      "name": "cancelChallenge",
      "outputs": [],
      "stateMutability": "nonpayable",
      "type": "function"
    },
    {
      "inputs": [
        {
          "internalType": "uint256",
          "name": "",
          "type": "uint256"
        }
      ],
      "name": "challengeCompleted",
      "outputs": [
        {
          "internalType": "bool",
          "name": "",
          "type": "bool"
        }
      ],
      "stateMutability": "view",
      "type": "function"
    },
    {
      "inputs": [],
      "name": "challengeIdCounter",
      "outputs": [
        {
          "internalType": "uint256",
          "name": "",
          "type": "uint256"
        }
      ],
      "stateMutability": "view",
      "type": "function"
    },
    {
      "inputs": [
        {
          "internalType": "uint256",
          "name": "",
          "type": "uint256"
        },
        {
          "internalType": "uint256",
          "name": "",
          "type": "uint256"
        }
      ],
      "name": "challengeSubmissions",
      "outputs": [
        {
          "internalType": "address",
          "name": "submitter",
          "type": "address"
        },
        {
          "internalType": "bytes32",
          "name": "solutionHash",
          "type": "bytes32"
        },
        {
          "internalType": "bool",
          "name": "isVerified",
          "type": "bool"
        },
        {
          "internalType": "uint256",
          "name": "submissionTime",
          "type": "uint256"
        }
      ],
      "stateMutability": "view",
      "type": "function"
    },
    {
      "inputs": [
        {
          "internalType": "uint256",
          "name": "",
          "type": "uint256"
        }
      ],
      "name": "challenges",
      "outputs": [
        {
          "internalType": "uint256",
          "name": "challengeId",
          "type": "uint256"
        },
        {
          "internalType": "address",
          "name": "creator",
          "type": "address"
        },
        {
          "internalType": "uint256",
          "name": "bountyAmount",
          "type": "uint256"
        },
        {
          "internalType": "string",
          "name": "title",
          "type": "string"
        },
        {
          "internalType": "string",
          "name": "description",
          "type": "string"
        },
        {
          "internalType": "string",
          "name": "requirements",
          "type": "string"
        },
        {
          "internalType": "enum CodeBounty.Status",
          "name": "challengeStatus",
          "type": "uint8"
        },
        {
          "internalType": "uint256",
          "name": "submissionsCount",
          "type": "uint256"
        },
        {
          "internalType": "uint256",
          "name": "startTime",
          "type": "uint256"
        },
        {
          "internalType": "uint256",
          "name": "duration",
          "type": "uint256"
        },
        {
          "internalType": "address",
          "name": "winner",
          "type": "address"
        }
      ],
      "stateMutability": "view",
      "type": "function"
    },
    {
      "inputs": [
        {
          "internalType": "string",
          "name": "_title",
          "type": "string"
        },
        {
          "internalType": "string",
          "name": "_description",
          "type": "string"
        },
        {
          "internalType": "string",
          "name": "_requirements",
          "type": "string"
        },
        {
          "internalType": "uint256",
          "name": "_bountyAmount",
          "type": "uint256"
        },
        {
          "internalType": "uint256",
          "name": "_durationInDays",
          "type": "uint256"
        }
      ],
      "name": "createChallenge",
      "outputs": [],
      "stateMutability": "payable",
      "type": "function"
    },
    {
      "inputs": [
        {
          "internalType": "uint256",
          "name": "_challengeId",
          "type": "uint256"
        },
        {
          "internalType": "address",
          "name": "winner",
          "type": "address"
        }
      ],
      "name": "distributeReward",
      "outputs": [],
      "stateMutability": "nonpayable",
      "type": "function"
    },
    {
      "inputs": [],
      "name": "getActiveChallenges",
      "outputs": [
        {
          "components": [
            {
              "internalType": "uint256",
              "name": "challengeId",
              "type": "uint256"
            },
            {
              "internalType": "address",
              "name": "creator",
              "type": "address"
            },
            {
              "internalType": "uint256",
              "name": "bountyAmount",
              "type": "uint256"
            },
            {
              "internalType": "string",
              "name": "title",
              "type": "string"
            },
            {
              "internalType": "string",
              "name": "description",
              "type": "string"
            },
            {
              "internalType": "string",
              "name": "requirements",
              "type": "string"
            },
            {
              "internalType": "enum CodeBounty.Status",
              "name": "challengeStatus",
              "type": "uint8"
            },
            {
              "internalType": "uint256",
              "name": "submissionsCount",
              "type": "uint256"
            },
            {
              "internalType": "uint256",
              "name": "startTime",
              "type": "uint256"
            },
            {
              "internalType": "uint256",
              "name": "duration",
              "type": "uint256"
            },
            {
              "internalType": "address",
              "name": "winner",
              "type": "address"
            }
          ],
          "internalType": "struct CodeBounty.Challenge[]",
          "name": "",
          "type": "tuple[]"
        }
      ],
      "stateMutability": "view",
      "type": "function"
    },
    {
      "inputs": [],
      "name": "getCancelledChallenges",
      "outputs": [
        {
          "components": [
            {
              "internalType": "uint256",
              "name": "challengeId",
              "type": "uint256"
            },
            {
              "internalType": "address",
              "name": "creator",
              "type": "address"
            },
            {
              "internalType": "uint256",
              "name": "bountyAmount",
              "type": "uint256"
            },
            {
              "internalType": "string",
              "name": "title",
              "type": "string"
            },
            {
              "internalType": "string",
              "name": "description",
              "type": "string"
            },
            {
              "internalType": "string",
              "name": "requirements",
              "type": "string"
            },
            {
              "internalType": "enum CodeBounty.Status",
              "name": "challengeStatus",
              "type": "uint8"
            },
            {
              "internalType": "uint256",
              "name": "submissionsCount",
              "type": "uint256"
            },
            {
              "internalType": "uint256",
              "name": "startTime",
              "type": "uint256"
            },
            {
              "internalType": "uint256",
              "name": "duration",
              "type": "uint256"
            },
            {
              "internalType": "address",
              "name": "winner",
              "type": "address"
            }
          ],
          "internalType": "struct CodeBounty.Challenge[]",
          "name": "",
          "type": "tuple[]"
        }
      ],
      "stateMutability": "view",
      "type": "function"
    },
    {
      "inputs": [
        {
          "internalType": "uint256",
          "name": "_challengeId",
          "type": "uint256"
        }
      ],
      "name": "getChallengeRemainingTime",
      "outputs": [
        {
          "internalType": "uint256",
          "name": "",
          "type": "uint256"
        }
      ],
      "stateMutability": "view",
      "type": "function"
    },
    {
      "inputs": [],
      "name": "getCompletedChallenges",
      "outputs": [
        {
          "components": [
            {
              "internalType": "uint256",
              "name": "challengeId",
              "type": "uint256"
            },
            {
              "internalType": "address",
              "name": "creator",
              "type": "address"
            },
            {
              "internalType": "uint256",
              "name": "bountyAmount",
              "type": "uint256"
            },
            {
              "internalType": "string",
              "name": "title",
              "type": "string"
            },
            {
              "internalType": "string",
              "name": "description",
              "type": "string"
            },
            {
              "internalType": "string",
              "name": "requirements",
              "type": "string"
            },
            {
              "internalType": "enum CodeBounty.Status",
              "name": "challengeStatus",
              "type": "uint8"
            },
            {
              "internalType": "uint256",
              "name": "submissionsCount",
              "type": "uint256"
            },
            {
              "internalType": "uint256",
              "name": "startTime",
              "type": "uint256"
            },
            {
              "internalType": "uint256",
              "name": "duration",
              "type": "uint256"
            },
            {
              "internalType": "address",
              "name": "winner",
              "type": "address"
            }
          ],
          "internalType": "struct CodeBounty.Challenge[]",
          "name": "",
          "type": "tuple[]"
        }
      ],
      "stateMutability": "view",
      "type": "function"
    },
    {
      "inputs": [],
      "name": "getExpiredChallenges",
      "outputs": [
        {
          "components": [
            {
              "internalType": "uint256",
              "name": "challengeId",
              "type": "uint256"
            },
            {
              "internalType": "address",
              "name": "creator",
              "type": "address"
            },
            {
              "internalType": "uint256",
              "name": "bountyAmount",
              "type": "uint256"
            },
            {
              "internalType": "string",
              "name": "title",
              "type": "string"
            },
            {
              "internalType": "string",
              "name": "description",
              "type": "string"
            },
            {
              "internalType": "string",
              "name": "requirements",
              "type": "string"
            },
            {
              "internalType": "enum CodeBounty.Status",
              "name": "challengeStatus",
              "type": "uint8"
            },
            {
              "internalType": "uint256",
              "name": "submissionsCount",
              "type": "uint256"
            },
            {
              "internalType": "uint256",
              "name": "startTime",
              "type": "uint256"
            },
            {
              "internalType": "uint256",
              "name": "duration",
              "type": "uint256"
            },
            {
              "internalType": "address",
              "name": "winner",
              "type": "address"
            }
          ],
          "internalType": "struct CodeBounty.Challenge[]",
          "name": "",
          "type": "tuple[]"
        }
      ],
      "stateMutability": "view",
      "type": "function"
    },
    {
      "inputs": [
        {
          "internalType": "address",
          "name": "_user",
          "type": "address"
        }
      ],
      "name": "getUserStats",
      "outputs": [
        {
          "internalType": "uint256",
          "name": "winCount",
          "type": "uint256"
        },
        {
          "internalType": "uint256",
          "name": "submissionCount",
          "type": "uint256"
        },
        {
          "internalType": "uint256",
          "name": "totalRewards",
          "type": "uint256"
        }
      ],
      "stateMutability": "view",
      "type": "function"
    },
    {
      "inputs": [],
      "name": "owner",
      "outputs": [
        {
          "internalType": "address",
          "name": "",
          "type": "address"
        }
      ],
      "stateMutability": "view",
      "type": "function"
    },
    {
      "inputs": [
        {
          "internalType": "uint256",
          "name": "_challengeId",
          "type": "uint256"
        }
      ],
      "name": "resolveExpiredChallenge",
      "outputs": [],
      "stateMutability": "nonpayable",
      "type": "function"
    },
    {
      "inputs": [
        {
          "internalType": "uint256",
          "name": "_challengeId",
          "type": "uint256"
        },
        {
          "internalType": "bytes32",
          "name": "_solutionHash",
          "type": "bytes32"
        }
      ],
      "name": "submitSolution",
      "outputs": [],
      "stateMutability": "nonpayable",
      "type": "function"
    },
    {
      "inputs": [],
      "name": "totalSubmissionsCount",
      "outputs": [
        {
          "internalType": "uint256",
          "name": "",
          "type": "uint256"
        }
      ],
      "stateMutability": "view",
      "type": "function"
    },
    {
      "inputs": [
        {
          "internalType": "address",
          "name": "",
          "type": "address"
        }
      ],
      "name": "userRewarded",
      "outputs": [
        {
          "internalType": "uint256",
          "name": "",
          "type": "uint256"
        }
      ],
      "stateMutability": "view",
      "type": "function"
    },
    {
      "inputs": [
        {
          "internalType": "address",
          "name": "",
          "type": "address"
        }
      ],
      "name": "userStats",
      "outputs": [
        {
          "internalType": "uint256",
          "name": "winCount",
          "type": "uint256"
        },
        {
          "internalType": "uint256",
          "name": "submissionCount",
          "type": "uint256"
        },
        {
          "internalType": "uint256",
          "name": "totalRewards",
          "type": "uint256"
        }
      ],
      "stateMutability": "view",
      "type": "function"
    },
    {
      "inputs": [],
      "name": "withdrawRewards",
      "outputs": [],
      "stateMutability": "nonpayable",
      "type": "function"
    }
  ],
  "bytecode": "0x608060405234801561001057600080fd5b5033600160006101000a81548173ffffffffffffffffffffffffffffffffffffffff021916908373ffffffffffffffffffffffffffffffffffffffff16021790555061459e806100616000396000f3fe60806040526004361061011f5760003560e01c80638f1d3776116100a0578063c7b8981c11610064578063c7b8981c14610420578063d4e9a0af14610437578063de4ba26d14610453578063e1d455771461047e578063e917fbf2146104a75761011f565b80638f1d37761461031f5780638f4125ea14610366578063a41483e31461038f578063a5a7c336146103b8578063c6f20ddb146103f55761011f565b80634e43603a116100e75780634e43603a1461020b578063571446db1461024a5780635f77bf641461028a5780638a65d874146102b55780638da5cb5b146102f45761011f565b806309f2313e146101245780631f47991e1461014f57806343bcc29b1461017a578063481c4643146101a35780634adf3051146101e0575b600080fd5b34801561013057600080fd5b506101396104e4565b60405161014691906133ee565b60405180910390f35b34801561015b57600080fd5b50610164610959565b60405161017191906133ee565b60405180910390f35b34801561018657600080fd5b506101a1600480360381019061019c919061347c565b610e4e565b005b3480156101af57600080fd5b506101ca60048036038101906101c591906134bc565b61137d565b6040516101d79190613504565b60405180910390f35b3480156101ec57600080fd5b506101f561139d565b604051610202919061352e565b60405180910390f35b34801561021757600080fd5b50610232600480360381019061022d9190613549565b6113a3565b60405161024193929190613576565b60405180910390f35b34801561025657600080fd5b50610271600480360381019061026c91906135ad565b611407565b6040516102819493929190613615565b60405180910390f35b34801561029657600080fd5b5061029f611481565b6040516102ac919061352e565b60405180910390f35b3480156102c157600080fd5b506102dc60048036038101906102d79190613549565b611487565b6040516102eb93929190613576565b60405180910390f35b34801561030057600080fd5b506103096114b1565b604051610316919061365a565b60405180910390f35b34801561032b57600080fd5b50610346600480360381019061034191906134bc565b6114d7565b60405161035d9b9a999897969594939291906136ce565b60405180910390f35b34801561037257600080fd5b5061038d600480360381019061038891906134bc565b611716565b005b34801561039b57600080fd5b506103b660048036038101906103b191906134bc565b611d6c565b005b3480156103c457600080fd5b506103df60048036038101906103da9190613549565b611fcd565b6040516103ec919061352e565b60405180910390f35b34801561040157600080fd5b5061040a611fe5565b60405161041791906133ee565b60405180910390f35b34801561042c57600080fd5b50610435612458565b005b610451600480360381019061044c91906138c3565b61256e565b005b34801561045f57600080fd5b5061046861283a565b60405161047591906133ee565b60405180910390f35b34801561048a57600080fd5b506104a560048036038101906104a091906139be565b612caf565b005b3480156104b357600080fd5b506104ce60048036038101906104c991906134bc565b612f82565b6040516104db919061352e565b60405180910390f35b6060600080600190505b6000548111610568576001600381111561050b5761050a6131e4565b5b6003600083815260200190815260200160002060060160009054906101000a900460ff166003811115610541576105406131e4565b5b0361055557818061055190613a2d565b9250505b808061056090613a2d565b9150506104ee565b5060008167ffffffffffffffff81111561058557610584613798565b5b6040519080825280602002602001820160405280156105be57816020015b6105ab613036565b8152602001906001900390816105a35790505b509050600080600190505b600054811161094f57600160038111156105e6576105e56131e4565b5b6003600083815260200190815260200160002060060160009054906101000a900460ff16600381111561061c5761061b6131e4565b5b0361093c576003600082815260200190815260200160002060405180610160016040529081600082015481526020016001820160009054906101000a900473ffffffffffffffffffffffffffffffffffffffff1673ffffffffffffffffffffffffffffffffffffffff1673ffffffffffffffffffffffffffffffffffffffff168152602001600282015481526020016003820180546106ba90613aa4565b80601f01602080910402602001604051908101604052809291908181526020018280546106e690613aa4565b80156107335780601f1061070857610100808354040283529160200191610733565b820191906000526020600020905b81548152906001019060200180831161071657829003601f168201915b5050505050815260200160048201805461074c90613aa4565b80601f016020809104026020016040519081016040528092919081815260200182805461077890613aa4565b80156107c55780601f1061079a576101008083540402835291602001916107c5565b820191906000526020600020905b8154815290600101906020018083116107a857829003601f168201915b505050505081526020016005820180546107de90613aa4565b80601f016020809104026020016040519081016040528092919081815260200182805461080a90613aa4565b80156108575780601f1061082c57610100808354040283529160200191610857565b820191906000526020600020905b81548152906001019060200180831161083a57829003601f168201915b505050505081526020016006820160009054906101000a900460ff166003811115610885576108846131e4565b5b6003811115610897576108966131e4565b5b8152602001600782015481526020016008820154815260200160098201548152602001600a820160009054906101000a900473ffffffffffffffffffffffffffffffffffffffff1673ffffffffffffffffffffffffffffffffffffffff1673ffffffffffffffffffffffffffffffffffffffff168152505083838151811061092257610921613ad5565b5b6020026020010181905250818061093890613a2d565b9250505b808061094790613a2d565b9150506105c9565b5081935050505090565b6060600080600190505b6000548111610a1d57600060038111156109805761097f6131e4565b5b6003600083815260200190815260200160002060060160009054906101000a900460ff1660038111156109b6576109b56131e4565b5b03610a0a57600360008281526020019081526020016000206009015460036000838152602001908152602001600020600801546109f39190613b04565b421015610a09578180610a0590613a2d565b9250505b5b8080610a1590613a2d565b915050610963565b5060008167ffffffffffffffff811115610a3a57610a39613798565b5b604051908082528060200260200182016040528015610a7357816020015b610a60613036565b815260200190600190039081610a585790505b509050600080600190505b6000548111610e445760006003811115610a9b57610a9a6131e4565b5b6003600083815260200190815260200160002060060160009054906101000a900460ff166003811115610ad157610ad06131e4565b5b03610e315760036000828152602001908152602001600020600901546003600083815260200190815260200160002060080154610b0e9190613b04565b421015610e30576003600082815260200190815260200160002060405180610160016040529081600082015481526020016001820160009054906101000a900473ffffffffffffffffffffffffffffffffffffffff1673ffffffffffffffffffffffffffffffffffffffff1673ffffffffffffffffffffffffffffffffffffffff16815260200160028201548152602001600382018054610bae90613aa4565b80601f0160208091040260200160405190810160405280929190818152602001828054610bda90613aa4565b8015610c275780601f10610bfc57610100808354040283529160200191610c27565b820191906000526020600020905b815481529060010190602001808311610c0a57829003601f168201915b50505050508152602001600482018054610c4090613aa4565b80601f0160208091040260200160405190810160405280929190818152602001828054610c6c90613aa4565b8015610cb95780601f10610c8e57610100808354040283529160200191610cb9565b820191906000526020600020905b815481529060010190602001808311610c9c57829003601f168201915b50505050508152602001600582018054610cd290613aa4565b80601f0160208091040260200160405190810160405280929190818152602001828054610cfe90613aa4565b8015610d4b5780601f10610d2057610100808354040283529160200191610d4b565b820191906000526020600020905b815481529060010190602001808311610d2e57829003601f168201915b505050505081526020016006820160009054906101000a900460ff166003811115610d7957610d786131e4565b5b6003811115610d8b57610d8a6131e4565b5b8152602001600782015481526020016008820154815260200160098201548152602001600a820160009054906101000a900473ffffffffffffffffffffffffffffffffffffffff1673ffffffffffffffffffffffffffffffffffffffff1673ffffffffffffffffffffffffffffffffffffffff1681525050838381518110610e1657610e15613ad5565b5b60200260200101819052508180610e2c90613a2d565b9250505b5b8080610e3c90613a2d565b915050610a7e565b5081935050505090565b816003600082815260200190815260200160002060010160009054906101000a900473ffffffffffffffffffffffffffffffffffffffff1673ffffffffffffffffffffffffffffffffffffffff163373ffffffffffffffffffffffffffffffffffffffff1614610ef3576040517f08c379a0000000000000000000000000000000000000000000000000000000008152600401610eea90613baa565b60405180910390fd5b60006003811115610f0757610f066131e4565b5b6003600085815260200190815260200160002060060160009054906101000a900460ff166003811115610f3d57610f3c6131e4565b5b14610f7d576040517f08c379a0000000000000000000000000000000000000000000000000000000008152600401610f7490613c16565b60405180910390fd5b6005600084815260200190815260200160002060009054906101000a900460ff1615610fde576040517f08c379a0000000000000000000000000000000000000000000000000000000008152600401610fd590613c82565b60405180910390fd5b6000805b60046000868152602001908152602001600020805490508110156110f2578373ffffffffffffffffffffffffffffffffffffffff1660046000878152602001908152602001600020828154811061103c5761103b613ad5565b5b906000526020600020906004020160000160009054906101000a900473ffffffffffffffffffffffffffffffffffffffff1673ffffffffffffffffffffffffffffffffffffffff161480156110d157506004600086815260200190815260200160002081815481106110b1576110b0613ad5565b5b906000526020600020906004020160020160009054906101000a900460ff165b156110df57600191506110f2565b80806110ea90613a2d565b915050610fe2565b5080611133576040517f08c379a000000000000000000000000000000000000000000000000000000000815260040161112a90613d14565b60405180910390fd5b8260036000868152602001908152602001600020600a0160006101000a81548173ffffffffffffffffffffffffffffffffffffffff021916908373ffffffffffffffffffffffffffffffffffffffff1602179055506003600085815260200190815260200160002060020154600660008573ffffffffffffffffffffffffffffffffffffffff1673ffffffffffffffffffffffffffffffffffffffff16815260200190815260200160002060008282546111ed9190613b04565b9250508190555060016003600086815260200190815260200160002060060160006101000a81548160ff0219169083600381111561122e5761122d6131e4565b5b021790555060016005600086815260200190815260200160002060006101000a81548160ff021916908315150217905550600760008473ffffffffffffffffffffffffffffffffffffffff1673ffffffffffffffffffffffffffffffffffffffff16815260200190815260200160002060000160008154809291906112b290613a2d565b91905055506003600085815260200190815260200160002060020154600760008573ffffffffffffffffffffffffffffffffffffffff1673ffffffffffffffffffffffffffffffffffffffff168152602001908152602001600020600201600082825461131f9190613b04565b925050819055507fab7542bafced3da2d8c881cb2dd1de859fac7c20d3650d2902ad389a64e088838484600360008881526020019081526020016000206002015460405161136f93929190613d34565b60405180910390a150505050565b60056020528060005260406000206000915054906101000a900460ff1681565b60005481565b600080600080600760008673ffffffffffffffffffffffffffffffffffffffff1673ffffffffffffffffffffffffffffffffffffffff1681526020019081526020016000209050806000015481600101548260020154935093509350509193909250565b6004602052816000526040600020818154811061142357600080fd5b9060005260206000209060040201600091509150508060000160009054906101000a900473ffffffffffffffffffffffffffffffffffffffff16908060010154908060020160009054906101000a900460ff16908060030154905084565b60025481565b60076020528060005260406000206000915090508060000154908060010154908060020154905083565b600160009054906101000a900473ffffffffffffffffffffffffffffffffffffffff1681565b60036020528060005260406000206000915090508060000154908060010160009054906101000a900473ffffffffffffffffffffffffffffffffffffffff169080600201549080600301805461152c90613aa4565b80601f016020809104026020016040519081016040528092919081815260200182805461155890613aa4565b80156115a55780601f1061157a576101008083540402835291602001916115a5565b820191906000526020600020905b81548152906001019060200180831161158857829003601f168201915b5050505050908060040180546115ba90613aa4565b80601f01602080910402602001604051908101604052809291908181526020018280546115e690613aa4565b80156116335780601f1061160857610100808354040283529160200191611633565b820191906000526020600020905b81548152906001019060200180831161161657829003601f168201915b50505050509080600501805461164890613aa4565b80601f016020809104026020016040519081016040528092919081815260200182805461167490613aa4565b80156116c15780601f10611696576101008083540402835291602001916116c1565b820191906000526020600020905b8154815290600101906020018083116116a457829003601f168201915b5050505050908060060160009054906101000a900460ff169080600701549080600801549080600901549080600a0160009054906101000a900473ffffffffffffffffffffffffffffffffffffffff1690508b565b600060036000838152602001908152602001600020905060006003811115611741576117406131e4565b5b8160060160009054906101000a900460ff166003811115611765576117646131e4565b5b146117a5576040517f08c379a000000000000000000000000000000000000000000000000000000000815260040161179c90613ddd565b60405180910390fd5b806009015481600801546117b99190613b04565b4210156117fb576040517f08c379a00000000000000000000000000000000000000000000000000000000081526004016117f290613e49565b60405180910390fd5b6005600083815260200190815260200160002060009054906101000a900460ff161561185c576040517f08c379a000000000000000000000000000000000000000000000000000000000815260040161185390613c82565b60405180910390fd5b600060046000848152602001908152602001600020805490501115611c91576000805b6004600085815260200190815260200160002080549050811015611957576004600085815260200190815260200160002081815481106118c2576118c1613ad5565b5b906000526020600020906004020160020160009054906101000a900460ff16156119445760046000858152602001908152602001600020818154811061190b5761190a613ad5565b5b906000526020600020906004020160000160009054906101000a900473ffffffffffffffffffffffffffffffffffffffff169150611957565b808061194f90613a2d565b91505061187f565b50600073ffffffffffffffffffffffffffffffffffffffff168173ffffffffffffffffffffffffffffffffffffffff1614611bb4578082600a0160006101000a81548173ffffffffffffffffffffffffffffffffffffffff021916908373ffffffffffffffffffffffffffffffffffffffff1602179055508160020154600660008373ffffffffffffffffffffffffffffffffffffffff1673ffffffffffffffffffffffffffffffffffffffff1681526020019081526020016000206000828254611a229190613b04565b9250508190555060018260060160006101000a81548160ff02191690836003811115611a5157611a506131e4565b5b021790555060016005600085815260200190815260200160002060006101000a81548160ff021916908315150217905550600760008273ffffffffffffffffffffffffffffffffffffffff1673ffffffffffffffffffffffffffffffffffffffff1681526020019081526020016000206000016000815480929190611ad590613a2d565b91905055508160020154600760008373ffffffffffffffffffffffffffffffffffffffff1673ffffffffffffffffffffffffffffffffffffffff1681526020019081526020016000206002016000828254611b309190613b04565b925050819055507f94f424150827ceaf7d7f36a7ef11c743a3ffbd87a462df186e1804189e71eba88382604051611b68929190613e69565b60405180910390a17fab7542bafced3da2d8c881cb2dd1de859fac7c20d3650d2902ad389a64e0888383828460020154604051611ba793929190613d34565b60405180910390a1611c8b565b60038260060160006101000a81548160ff02191690836003811115611bdc57611bdb6131e4565b5b02179055508160010160009054906101000a900473ffffffffffffffffffffffffffffffffffffffff1673ffffffffffffffffffffffffffffffffffffffff166108fc83600201549081150290604051600060405180830381858888f19350505050158015611c4f573d6000803e3d6000fd5b507f94f424150827ceaf7d7f36a7ef11c743a3ffbd87a462df186e1804189e71eba8836000604051611c82929190613e69565b60405180910390a15b50611d68565b60038160060160006101000a81548160ff02191690836003811115611cb957611cb86131e4565b5b02179055508060010160009054906101000a900473ffffffffffffffffffffffffffffffffffffffff1673ffffffffffffffffffffffffffffffffffffffff166108fc82600201549081150290604051600060405180830381858888f19350505050158015611d2c573d6000803e3d6000fd5b507f94f424150827ceaf7d7f36a7ef11c743a3ffbd87a462df186e1804189e71eba8826000604051611d5f929190613e69565b60405180910390a15b5050565b806003600082815260200190815260200160002060010160009054906101000a900473ffffffffffffffffffffffffffffffffffffffff1673ffffffffffffffffffffffffffffffffffffffff163373ffffffffffffffffffffffffffffffffffffffff1614611e11576040517f08c379a0000000000000000000000000000000000000000000000000000000008152600401611e0890613baa565b60405180910390fd5b60006003811115611e2557611e246131e4565b5b6003600084815260200190815260200160002060060160009054906101000a900460ff166003811115611e5b57611e5a6131e4565b5b14611e9b576040517f08c379a0000000000000000000000000000000000000000000000000000000008152600401611e9290613f04565b60405180910390fd5b6000600460008481526020019081526020016000208054905014611ef4576040517f08c379a0000000000000000000000000000000000000000000000000000000008152600401611eeb90613f96565b60405180910390fd5b3373ffffffffffffffffffffffffffffffffffffffff166108fc60036000858152602001908152602001600020600201549081150290604051600060405180830381858888f19350505050158015611f50573d6000803e3d6000fd5b5060026003600084815260200190815260200160002060060160006101000a81548160ff02191690836003811115611f8b57611f8a6131e4565b5b02179055507f331f4510d26912f0e9f474e9a3151c359ce5d28378f1151479d27ec63236fa098233604051611fc1929190613e69565b60405180910390a15050565b60066020528060005260406000206000915090505481565b6060600080600190505b60005481116120685760038081111561200b5761200a6131e4565b5b6003600083815260200190815260200160002060060160009054906101000a900460ff166003811115612041576120406131e4565b5b0361205557818061205190613a2d565b9250505b808061206090613a2d565b915050611fef565b5060008167ffffffffffffffff81111561208557612084613798565b5b6040519080825280602002602001820160405280156120be57816020015b6120ab613036565b8152602001906001900390816120a35790505b509050600080600190505b600054811161244e576003808111156120e5576120e46131e4565b5b6003600083815260200190815260200160002060060160009054906101000a900460ff16600381111561211b5761211a6131e4565b5b0361243b576003600082815260200190815260200160002060405180610160016040529081600082015481526020016001820160009054906101000a900473ffffffffffffffffffffffffffffffffffffffff1673ffffffffffffffffffffffffffffffffffffffff1673ffffffffffffffffffffffffffffffffffffffff168152602001600282015481526020016003820180546121b990613aa4565b80601f01602080910402602001604051908101604052809291908181526020018280546121e590613aa4565b80156122325780601f1061220757610100808354040283529160200191612232565b820191906000526020600020905b81548152906001019060200180831161221557829003601f168201915b5050505050815260200160048201805461224b90613aa4565b80601f016020809104026020016040519081016040528092919081815260200182805461227790613aa4565b80156122c45780601f10612299576101008083540402835291602001916122c4565b820191906000526020600020905b8154815290600101906020018083116122a757829003601f168201915b505050505081526020016005820180546122dd90613aa4565b80601f016020809104026020016040519081016040528092919081815260200182805461230990613aa4565b80156123565780601f1061232b57610100808354040283529160200191612356565b820191906000526020600020905b81548152906001019060200180831161233957829003601f168201915b505050505081526020016006820160009054906101000a900460ff166003811115612384576123836131e4565b5b6003811115612396576123956131e4565b5b8152602001600782015481526020016008820154815260200160098201548152602001600a820160009054906101000a900473ffffffffffffffffffffffffffffffffffffffff1673ffffffffffffffffffffffffffffffffffffffff1673ffffffffffffffffffffffffffffffffffffffff168152505083838151811061242157612420613ad5565b5b6020026020010181905250818061243790613a2d565b9250505b808061244690613a2d565b9150506120c9565b5081935050505090565b6000600660003373ffffffffffffffffffffffffffffffffffffffff1673ffffffffffffffffffffffffffffffffffffffff168152602001908152602001600020549050600081116124df576040517f08c379a00000000000000000000000000000000000000000000000000000000081526004016124d690614002565b60405180910390fd5b6000600660003373ffffffffffffffffffffffffffffffffffffffff1673ffffffffffffffffffffffffffffffffffffffff168152602001908152602001600020819055503373ffffffffffffffffffffffffffffffffffffffff166108fc829081150290604051600060405180830381858888f1935050505015801561256a573d6000803e3d6000fd5b5050565b813410156125b1576040517f08c379a00000000000000000000000000000000000000000000000000000000081526004016125a890614094565b60405180910390fd5b600081116125f4576040517f08c379a00000000000000000000000000000000000000000000000000000000081526004016125eb90614100565b60405180910390fd5b60008081548092919061260690613a2d565b919050555060405180610160016040528060005481526020013373ffffffffffffffffffffffffffffffffffffffff16815260200183815260200186815260200185815260200184815260200160006003811115612667576126666131e4565b5b81526020016000815260200142815260200162015180836126889190614120565b8152602001600073ffffffffffffffffffffffffffffffffffffffff1681525060036000805481526020019081526020016000206000820151816000015560208201518160010160006101000a81548173ffffffffffffffffffffffffffffffffffffffff021916908373ffffffffffffffffffffffffffffffffffffffff16021790555060408201518160020155606082015181600301908161272c919061430e565b506080820151816004019081612742919061430e565b5060a0820151816005019081612758919061430e565b5060c08201518160060160006101000a81548160ff02191690836003811115612784576127836131e4565b5b021790555060e082015181600701556101008201518160080155610120820151816009015561014082015181600a0160006101000a81548173ffffffffffffffffffffffffffffffffffffffff021916908373ffffffffffffffffffffffffffffffffffffffff1602179055509050507f7c9c42ea4a98ff02e597498c394568923c74c2d3e031718ad08dbb59a42f03eb60005433848460405161282b94939291906143e0565b60405180910390a15050505050565b6060600080600190505b60005481116128be5760026003811115612861576128606131e4565b5b6003600083815260200190815260200160002060060160009054906101000a900460ff166003811115612897576128966131e4565b5b036128ab5781806128a790613a2d565b9250505b80806128b690613a2d565b915050612844565b5060008167ffffffffffffffff8111156128db576128da613798565b5b60405190808252806020026020018201604052801561291457816020015b612901613036565b8152602001906001900390816128f95790505b509050600080600190505b6000548111612ca5576002600381111561293c5761293b6131e4565b5b6003600083815260200190815260200160002060060160009054906101000a900460ff166003811115612972576129716131e4565b5b03612c92576003600082815260200190815260200160002060405180610160016040529081600082015481526020016001820160009054906101000a900473ffffffffffffffffffffffffffffffffffffffff1673ffffffffffffffffffffffffffffffffffffffff1673ffffffffffffffffffffffffffffffffffffffff16815260200160028201548152602001600382018054612a1090613aa4565b80601f0160208091040260200160405190810160405280929190818152602001828054612a3c90613aa4565b8015612a895780601f10612a5e57610100808354040283529160200191612a89565b820191906000526020600020905b815481529060010190602001808311612a6c57829003601f168201915b50505050508152602001600482018054612aa290613aa4565b80601f0160208091040260200160405190810160405280929190818152602001828054612ace90613aa4565b8015612b1b5780601f10612af057610100808354040283529160200191612b1b565b820191906000526020600020905b815481529060010190602001808311612afe57829003601f168201915b50505050508152602001600582018054612b3490613aa4565b80601f0160208091040260200160405190810160405280929190818152602001828054612b6090613aa4565b8015612bad5780601f10612b8257610100808354040283529160200191612bad565b820191906000526020600020905b815481529060010190602001808311612b9057829003601f168201915b505050505081526020016006820160009054906101000a900460ff166003811115612bdb57612bda6131e4565b5b6003811115612bed57612bec6131e4565b5b8152602001600782015481526020016008820154815260200160098201548152602001600a820160009054906101000a900473ffffffffffffffffffffffffffffffffffffffff1673ffffffffffffffffffffffffffffffffffffffff1673ffffffffffffffffffffffffffffffffffffffff1681525050838381518110612c7857612c77613ad5565b5b60200260200101819052508180612c8e90613a2d565b9250505b8080612c9d90613a2d565b91505061291f565b5081935050505090565b8160036000828152602001908152602001600020600901546003600083815260200190815260200160002060080154612ce89190613b04565b4210612d29576040517f08c379a0000000000000000000000000000000000000000000000000000000008152600401612d2090614471565b60405180910390fd5b60006003811115612d3d57612d3c6131e4565b5b6003600085815260200190815260200160002060060160009054906101000a900460ff166003811115612d7357612d726131e4565b5b14612db3576040517f08c379a0000000000000000000000000000000000000000000000000000000008152600401612daa90613c16565b60405180910390fd5b6004600084815260200190815260200160002060405180608001604052803373ffffffffffffffffffffffffffffffffffffffff16815260200184815260200160011515815260200142815250908060018154018082558091505060019003906000526020600020906004020160009091909190915060008201518160000160006101000a81548173ffffffffffffffffffffffffffffffffffffffff021916908373ffffffffffffffffffffffffffffffffffffffff1602179055506020820151816001015560408201518160020160006101000a81548160ff021916908315150217905550606082015181600301555050600360008481526020019081526020016000206007016000815480929190612ecd90613a2d565b919050555060026000815480929190612ee590613a2d565b9190505550600760003373ffffffffffffffffffffffffffffffffffffffff1673ffffffffffffffffffffffffffffffffffffffff1681526020019081526020016000206001016000815480929190612f3d90613a2d565b91905055507f09ac6a172865e35166d6f33bd99d072740d79f99349a94047863e2f12bb7aac4833384604051612f7593929190614491565b60405180910390a1505050565b60008082118015612f9557506000548211155b612fd4576040517f08c379a0000000000000000000000000000000000000000000000000000000008152600401612fcb90614514565b60405180910390fd5b60006003600084815260200190815260200160002060090154600360008581526020019081526020016000206008015461300e9190613b04565b9050804210613021576000915050613031565b428161302d9190614534565b9150505b919050565b60405180610160016040528060008152602001600073ffffffffffffffffffffffffffffffffffffffff1681526020016000815260200160608152602001606081526020016060815260200160006003811115613096576130956131e4565b5b8152602001600081526020016000815260200160008152602001600073ffffffffffffffffffffffffffffffffffffffff1681525090565b600081519050919050565b600082825260208201905092915050565b6000819050602082019050919050565b6000819050919050565b61310d816130fa565b82525050565b600073ffffffffffffffffffffffffffffffffffffffff82169050919050565b600061313e82613113565b9050919050565b61314e81613133565b82525050565b600081519050919050565b600082825260208201905092915050565b60005b8381101561318e578082015181840152602081019050613173565b60008484015250505050565b6000601f19601f8301169050919050565b60006131b682613154565b6131c0818561315f565b93506131d0818560208601613170565b6131d98161319a565b840191505092915050565b7f4e487b7100000000000000000000000000000000000000000000000000000000600052602160045260246000fd5b60048110613224576132236131e4565b5b50565b600081905061323582613213565b919050565b600061324582613227565b9050919050565b6132558161323a565b82525050565b6000610160830160008301516132746000860182613104565b5060208301516132876020860182613145565b50604083015161329a6040860182613104565b50606083015184820360608601526132b282826131ab565b915050608083015184820360808601526132cc82826131ab565b91505060a083015184820360a08601526132e682826131ab565b91505060c08301516132fb60c086018261324c565b5060e083015161330e60e0860182613104565b50610100830151613323610100860182613104565b50610120830151613338610120860182613104565b5061014083015161334d610140860182613145565b508091505092915050565b6000613364838361325b565b905092915050565b6000602082019050919050565b6000613384826130ce565b61338e81856130d9565b9350836020820285016133a0856130ea565b8060005b858110156133dc57848403895281516133bd8582613358565b94506133c88361336c565b925060208a019950506001810190506133a4565b50829750879550505050505092915050565b600060208201905081810360008301526134088184613379565b905092915050565b6000604051905090565b600080fd5b600080fd5b61342d816130fa565b811461343857600080fd5b50565b60008135905061344a81613424565b92915050565b61345981613133565b811461346457600080fd5b50565b60008135905061347681613450565b92915050565b600080604083850312156134935761349261341a565b5b60006134a18582860161343b565b92505060206134b285828601613467565b9150509250929050565b6000602082840312156134d2576134d161341a565b5b60006134e08482850161343b565b91505092915050565b60008115159050919050565b6134fe816134e9565b82525050565b600060208201905061351960008301846134f5565b92915050565b613528816130fa565b82525050565b6000602082019050613543600083018461351f565b92915050565b60006020828403121561355f5761355e61341a565b5b600061356d84828501613467565b91505092915050565b600060608201905061358b600083018661351f565b613598602083018561351f565b6135a5604083018461351f565b949350505050565b600080604083850312156135c4576135c361341a565b5b60006135d28582860161343b565b92505060206135e38582860161343b565b9150509250929050565b6135f681613133565b82525050565b6000819050919050565b61360f816135fc565b82525050565b600060808201905061362a60008301876135ed565b6136376020830186613606565b61364460408301856134f5565b613651606083018461351f565b95945050505050565b600060208201905061366f60008301846135ed565b92915050565b600082825260208201905092915050565b600061369182613154565b61369b8185613675565b93506136ab818560208601613170565b6136b48161319a565b840191505092915050565b6136c88161323a565b82525050565b6000610160820190506136e4600083018e61351f565b6136f1602083018d6135ed565b6136fe604083018c61351f565b8181036060830152613710818b613686565b90508181036080830152613724818a613686565b905081810360a08301526137388189613686565b905061374760c08301886136bf565b61375460e083018761351f565b61376261010083018661351f565b61377061012083018561351f565b61377e6101408301846135ed565b9c9b505050505050505050505050565b600080fd5b600080fd5b7f4e487b7100000000000000000000000000000000000000000000000000000000600052604160045260246000fd5b6137d08261319a565b810181811067ffffffffffffffff821117156137ef576137ee613798565b5b80604052505050565b6000613802613410565b905061380e82826137c7565b919050565b600067ffffffffffffffff82111561382e5761382d613798565b5b6138378261319a565b9050602081019050919050565b82818337600083830152505050565b600061386661386184613813565b6137f8565b90508281526020810184848401111561388257613881613793565b5b61388d848285613844565b509392505050565b600082601f8301126138aa576138a961378e565b5b81356138ba848260208601613853565b91505092915050565b600080600080600060a086880312156138df576138de61341a565b5b600086013567ffffffffffffffff8111156138fd576138fc61341f565b5b61390988828901613895565b955050602086013567ffffffffffffffff81111561392a5761392961341f565b5b61393688828901613895565b945050604086013567ffffffffffffffff8111156139575761395661341f565b5b61396388828901613895565b93505060606139748882890161343b565b92505060806139858882890161343b565b9150509295509295909350565b61399b816135fc565b81146139a657600080fd5b50565b6000813590506139b881613992565b92915050565b600080604083850312156139d5576139d461341a565b5b60006139e38582860161343b565b92505060206139f4858286016139a9565b9150509250929050565b7f4e487b7100000000000000000000000000000000000000000000000000000000600052601160045260246000fd5b6000613a38826130fa565b91507fffffffffffffffffffffffffffffffffffffffffffffffffffffffffffffffff8203613a6a57613a696139fe565b5b600182019050919050565b7f4e487b7100000000000000000000000000000000000000000000000000000000600052602260045260246000fd5b60006002820490506001821680613abc57607f821691505b602082108103613acf57613ace613a75565b5b50919050565b7f4e487b7100000000000000000000000000000000000000000000000000000000600052603260045260246000fd5b6000613b0f826130fa565b9150613b1a836130fa565b9250828201905080821115613b3257613b316139fe565b5b92915050565b7f4f6e6c79206368616c6c656e67652063726561746f722063616e2063616c6c2060008201527f746869732066756e6374696f6e00000000000000000000000000000000000000602082015250565b6000613b94602d83613675565b9150613b9f82613b38565b604082019050919050565b60006020820190508181036000830152613bc381613b87565b9050919050565b7f4368616c6c656e6765206973206e6f7420616374697665000000000000000000600082015250565b6000613c00601783613675565b9150613c0b82613bca565b602082019050919050565b60006020820190508181036000830152613c2f81613bf3565b9050919050565b7f4368616c6c656e676520616c726561647920636f6d706c657465640000000000600082015250565b6000613c6c601b83613675565b9150613c7782613c36565b602082019050919050565b60006020820190508181036000830152613c9b81613c5f565b9050919050565b7f57696e6e6572206d7573742062652061207665726966696564207375626d697460008201527f7465720000000000000000000000000000000000000000000000000000000000602082015250565b6000613cfe602383613675565b9150613d0982613ca2565b604082019050919050565b60006020820190508181036000830152613d2d81613cf1565b9050919050565b6000606082019050613d49600083018661351f565b613d5660208301856135ed565b613d63604083018461351f565b949350505050565b7f4368616c6c656e6765206973206e6f7420696e2077616974696e67207374617460008201527f7573000000000000000000000000000000000000000000000000000000000000602082015250565b6000613dc7602283613675565b9150613dd282613d6b565b604082019050919050565b60006020820190508181036000830152613df681613dba565b9050919050565b7f4368616c6c656e676520686173206e6f74206578706972656420796574000000600082015250565b6000613e33601d83613675565b9150613e3e82613dfd565b602082019050919050565b60006020820190508181036000830152613e6281613e26565b9050919050565b6000604082019050613e7e600083018561351f565b613e8b60208301846135ed565b9392505050565b7f4368616c6c656e676520697320616c726561647920636f6d706c65746564206f60008201527f722063616e63656c6c6564000000000000000000000000000000000000000000602082015250565b6000613eee602b83613675565b9150613ef982613e92565b604082019050919050565b60006020820190508181036000830152613f1d81613ee1565b9050919050565b7f4368616c6c656e676520686173207375626d697373696f6e732c2063616e6e6f60008201527f742063616e63656c000000000000000000000000000000000000000000000000602082015250565b6000613f80602883613675565b9150613f8b82613f24565b604082019050919050565b60006020820190508181036000830152613faf81613f73565b9050919050565b7f4e6f207265776172647320746f20776974686472617700000000000000000000600082015250565b6000613fec601683613675565b9150613ff782613fb6565b602082019050919050565b6000602082019050818103600083015261401b81613fdf565b9050919050565b7f416d6f756e742050616964206973204c657373205468616e2056616c7565205060008201527f75626c6973686564000000000000000000000000000000000000000000000000602082015250565b600061407e602883613675565b915061408982614022565b604082019050919050565b600060208201905081810360008301526140ad81614071565b9050919050565b7f4475726174696f6e206d7573742062652067726561746572207468616e203000600082015250565b60006140ea601f83613675565b91506140f5826140b4565b602082019050919050565b60006020820190508181036000830152614119816140dd565b9050919050565b600061412b826130fa565b9150614136836130fa565b9250828202614144816130fa565b9150828204841483151761415b5761415a6139fe565b5b5092915050565b60008190508160005260206000209050919050565b60006020601f8301049050919050565b600082821b905092915050565b6000600883026141c47fffffffffffffffffffffffffffffffffffffffffffffffffffffffffffffffff82614187565b6141ce8683614187565b95508019841693508086168417925050509392505050565b6000819050919050565b600061420b614206614201846130fa565b6141e6565b6130fa565b9050919050565b6000819050919050565b614225836141f0565b61423961423182614212565b848454614194565b825550505050565b600090565b61424e614241565b61425981848461421c565b505050565b5b8181101561427d57614272600082614246565b60018101905061425f565b5050565b601f8211156142c25761429381614162565b61429c84614177565b810160208510156142ab578190505b6142bf6142b785614177565b83018261425e565b50505b505050565b600082821c905092915050565b60006142e5600019846008026142c7565b1980831691505092915050565b60006142fe83836142d4565b9150826002028217905092915050565b61431782613154565b67ffffffffffffffff8111156143305761432f613798565b5b61433a8254613aa4565b614345828285614281565b600060209050601f8311600181146143785760008415614366578287015190505b61437085826142f2565b8655506143d8565b601f19841661438686614162565b60005b828110156143ae57848901518255600182019150602085019450602081019050614389565b868310156143cb57848901516143c7601f8916826142d4565b8355505b6001600288020188555050505b505050505050565b60006080820190506143f5600083018761351f565b61440260208301866135ed565b61440f604083018561351f565b61441c606083018461351f565b95945050505050565b7f4368616c6c656e67652068617320657870697265640000000000000000000000600082015250565b600061445b601583613675565b915061446682614425565b602082019050919050565b6000602082019050818103600083015261448a8161444e565b9050919050565b60006060820190506144a6600083018661351f565b6144b360208301856135ed565b6144c06040830184613606565b949350505050565b7f496e76616c6964206368616c6c656e6765204944000000000000000000000000600082015250565b60006144fe601483613675565b9150614509826144c8565b602082019050919050565b6000602082019050818103600083015261452d816144f1565b9050919050565b600061453f826130fa565b915061454a836130fa565b9250828203905081811115614562576145616139fe565b5b9291505056fea26469706673582212202c4e6e4d82a16fcf228a62c0cdb3f472481008ffd30f67f853e3558536748b4c64736f6c63430008140033",
  "linkReferences": {},
  "deployedLinkReferences": {}
}