{
  "_format": "hh-sol-artifact-1",
  "contractName": "NFTCertificate",
  "sourceName": "contracts/NFTCertificate.sol",
  "abi": [
    {
      "inputs": [],
      "stateMutability": "nonpayable",
      "type": "constructor"
    },
    {
      "inputs": [
        {
          "internalType": "address",
          "name": "sender",
          "type": "address"
        },
        {
          "internalType": "uint256",
          "name": "tokenId",
          "type": "uint256"
        },
        {
          "internalType": "address",
          "name": "owner",
          "type": "address"
        }
      ],
      "name": "ERC721IncorrectOwner",
      "type": "error"
    },
    {
      "inputs": [
        {
          "internalType": "address",
          "name": "operator",
          "type": "address"
        },
        {
          "internalType": "uint256",
          "name": "tokenId",
          "type": "uint256"
        }
      ],
      "name": "ERC721InsufficientApproval",
      "type": "error"
    },
    {
      "inputs": [
        {
          "internalType": "address",
          "name": "approver",
          "type": "address"
        }
      ],
      "name": "ERC721InvalidApprover",
      "type": "error"
    },
    {
      "inputs": [
        {
          "internalType": "address",
          "name": "operator",
          "type": "address"
        }
      ],
      "name": "ERC721InvalidOperator",
      "type": "error"
    },
    {
      "inputs": [
        {
          "internalType": "address",
          "name": "owner",
          "type": "address"
        }
      ],
      "name": "ERC721InvalidOwner",
      "type": "error"
    },
    {
      "inputs": [
        {
          "internalType": "address",
          "name": "receiver",
          "type": "address"
        }
      ],
      "name": "ERC721InvalidReceiver",
      "type": "error"
    },
    {
      "inputs": [
        {
          "internalType": "address",
          "name": "sender",
          "type": "address"
        }
      ],
      "name": "ERC721InvalidSender",
      "type": "error"
    },
    {
      "inputs": [
        {
          "internalType": "uint256",
          "name": "tokenId",
          "type": "uint256"
        }
      ],
      "name": "ERC721NonexistentToken",
      "type": "error"
    },
    {
      "inputs": [
        {
          "internalType": "address",
          "name": "owner",
          "type": "address"
        }
      ],
      "name": "OwnableInvalidOwner",
      "type": "error"
    },
    {
      "inputs": [
        {
          "internalType": "address",
          "name": "account",
          "type": "address"
        }
      ],
      "name": "OwnableUnauthorizedAccount",
      "type": "error"
    },
    {
      "anonymous": false,
      "inputs": [
        {
          "indexed": true,
          "internalType": "address",
          "name": "owner",
          "type": "address"
        },
        {
          "indexed": true,
          "internalType": "address",
          "name": "approved",
          "type": "address"
        },
        {
          "indexed": true,
          "internalType": "uint256",
          "name": "tokenId",
          "type": "uint256"
        }
      ],
      "name": "Approval",
      "type": "event"
    },
    {
      "anonymous": false,
      "inputs": [
        {
          "indexed": true,
          "internalType": "address",
          "name": "owner",
          "type": "address"
        },
        {
          "indexed": true,
          "internalType": "address",
          "name": "operator",
          "type": "address"
        },
        {
          "indexed": false,
          "internalType": "bool",
          "name": "approved",
          "type": "bool"
        }
      ],
      "name": "ApprovalForAll",
      "type": "event"
    },
    {
      "anonymous": false,
      "inputs": [
        {
          "indexed": false,
          "internalType": "address",
          "name": "recipient",
          "type": "address"
        },
        {
          "indexed": false,
          "internalType": "uint256",
          "name": "tokenId",
          "type": "uint256"
        },
        {
          "indexed": false,
          "internalType": "string",
          "name": "metadataURI",
          "type": "string"
        }
      ],
      "name": "CertificateMinted",
      "type": "event"
    },
    {
      "anonymous": false,
      "inputs": [
        {
          "indexed": true,
          "internalType": "address",
          "name": "previousOwner",
          "type": "address"
        },
        {
          "indexed": true,
          "internalType": "address",
          "name": "newOwner",
          "type": "address"
        }
      ],
      "name": "OwnershipTransferred",
      "type": "event"
    },
    {
      "anonymous": false,
      "inputs": [
        {
          "indexed": true,
          "internalType": "address",
          "name": "from",
          "type": "address"
        },
        {
          "indexed": true,
          "internalType": "address",
          "name": "to",
          "type": "address"
        },
        {
          "indexed": true,
          "internalType": "uint256",
          "name": "tokenId",
          "type": "uint256"
        }
      ],
      "name": "Transfer",
      "type": "event"
    },
    {
      "inputs": [
        {
          "internalType": "address",
          "name": "to",
          "type": "address"
        },
        {
          "internalType": "uint256",
          "name": "tokenId",
          "type": "uint256"
        }
      ],
      "name": "approve",
      "outputs": [],
      "stateMutability": "nonpayable",
      "type": "function"
    },
    {
      "inputs": [
        {
          "internalType": "address",
          "name": "owner",
          "type": "address"
        }
      ],
      "name": "balanceOf",
      "outputs": [
        {
          "internalType": "uint256",
          "name": "",
          "type": "uint256"
        }
      ],
      "stateMutability": "view",
      "type": "function"
    },
    {
      "inputs": [
        {
          "internalType": "uint256",
          "name": "tokenId",
          "type": "uint256"
        }
      ],
      "name": "getApproved",
      "outputs": [
        {
          "internalType": "address",
          "name": "",
          "type": "address"
        }
      ],
      "stateMutability": "view",
      "type": "function"
    },
    {
      "inputs": [
        {
          "internalType": "address",
          "name": "owner",
          "type": "address"
        },
        {
          "internalType": "address",
          "name": "operator",
          "type": "address"
        }
      ],
      "name": "isApprovedForAll",
      "outputs": [
        {
          "internalType": "bool",
          "name": "",
          "type": "bool"
        }
      ],
      "stateMutability": "view",
      "type": "function"
    },
    {
      "inputs": [
        {
          "internalType": "address",
          "name": "recipient",
          "type": "address"
        },
        {
          "internalType": "string",
          "name": "metadataURI",
          "type": "string"
        }
      ],
      "name": "mintCertificate",
      "outputs": [],
      "stateMutability": "nonpayable",
      "type": "function"
    },
    {
      "inputs": [],
      "name": "name",
      "outputs": [
        {
          "internalType": "string",
          "name": "",
          "type": "string"
        }
      ],
      "stateMutability": "view",
      "type": "function"
    },
    {
      "inputs": [],
      "name": "nextTokenId",
      "outputs": [
        {
          "internalType": "uint256",
          "name": "",
          "type": "uint256"
        }
      ],
      "stateMutability": "view",
      "type": "function"
    },
    {
      "inputs": [],
      "name": "owner",
      "outputs": [
        {
          "internalType": "address",
          "name": "",
          "type": "address"
        }
      ],
      "stateMutability": "view",
      "type": "function"
    },
    {
      "inputs": [
        {
          "internalType": "uint256",
          "name": "tokenId",
          "type": "uint256"
        }
      ],
      "name": "ownerOf",
      "outputs": [
        {
          "internalType": "address",
          "name": "",
          "type": "address"
        }
      ],
      "stateMutability": "view",
      "type": "function"
    },
    {
      "inputs": [],
      "name": "renounceOwnership",
      "outputs": [],
      "stateMutability": "nonpayable",
      "type": "function"
    },
    {
      "inputs": [
        {
          "internalType": "address",
          "name": "from",
          "type": "address"
        },
        {
          "internalType": "address",
          "name": "to",
          "type": "address"
        },
        {
          "internalType": "uint256",
          "name": "tokenId",
          "type": "uint256"
        }
      ],
      "name": "safeTransferFrom",
      "outputs": [],
      "stateMutability": "nonpayable",
      "type": "function"
    },
    {
      "inputs": [
        {
          "internalType": "address",
          "name": "from",
          "type": "address"
        },
        {
          "internalType": "address",
          "name": "to",
          "type": "address"
        },
        {
          "internalType": "uint256",
          "name": "tokenId",
          "type": "uint256"
        },
        {
          "internalType": "bytes",
          "name": "data",
          "type": "bytes"
        }
      ],
      "name": "safeTransferFrom",
      "outputs": [],
      "stateMutability": "nonpayable",
      "type": "function"
    },
    {
      "inputs": [
        {
          "internalType": "address",
          "name": "operator",
          "type": "address"
        },
        {
          "internalType": "bool",
          "name": "approved",
          "type": "bool"
        }
      ],
      "name": "setApprovalForAll",
      "outputs": [],
      "stateMutability": "nonpayable",
      "type": "function"
    },
    {
      "inputs": [
        {
          "internalType": "bytes4",
          "name": "interfaceId",
          "type": "bytes4"
        }
      ],
      "name": "supportsInterface",
      "outputs": [
        {
          "internalType": "bool",
          "name": "",
          "type": "bool"
        }
      ],
      "stateMutability": "view",
      "type": "function"
    },
    {
      "inputs": [],
      "name": "symbol",
      "outputs": [
        {
          "internalType": "string",
          "name": "",
          "type": "string"
        }
      ],
      "stateMutability": "view",
      "type": "function"
    },
    {
      "inputs": [
        {
          "internalType": "uint256",
          "name": "tokenId",
          "type": "uint256"
        }
      ],
      "name": "tokenURI",
      "outputs": [
        {
          "internalType": "string",
          "name": "",
          "type": "string"
        }
      ],
      "stateMutability": "view",
      "type": "function"
    },
    {
      "inputs": [
        {
          "internalType": "address",
          "name": "from",
          "type": "address"
        },
        {
          "internalType": "address",
          "name": "to",
          "type": "address"
        },
        {
          "internalType": "uint256",
          "name": "tokenId",
          "type": "uint256"
        }
      ],
      "name": "transferFrom",
      "outputs": [],
      "stateMutability": "nonpayable",
      "type": "function"
    },
    {
      "inputs": [
        {
          "internalType": "address",
          "name": "newOwner",
          "type": "address"
        }
      ],
      "name": "transferOwnership",
      "outputs": [],
      "stateMutability": "nonpayable",
      "type": "function"
    }
  ],
  "bytecode": "0x60806040523480156200001157600080fd5b50336040518060400160405280600e81526020017f4e465443657274696669636174650000000000000000000000000000000000008152506040518060400160405280600481526020017f4345525400000000000000000000000000000000000000000000000000000000815250816000908162000090919062000472565b508060019081620000a2919062000472565b505050600073ffffffffffffffffffffffffffffffffffffffff168173ffffffffffffffffffffffffffffffffffffffff16036200011a5760006040517f1e4fbdf70000000000000000000000000000000000000000000000000000000081526004016200011191906200059e565b60405180910390fd5b6200012b816200013260201b60201c565b50620005bb565b6000600660009054906101000a900473ffffffffffffffffffffffffffffffffffffffff16905081600660006101000a81548173ffffffffffffffffffffffffffffffffffffffff021916908373ffffffffffffffffffffffffffffffffffffffff1602179055508173ffffffffffffffffffffffffffffffffffffffff168173ffffffffffffffffffffffffffffffffffffffff167f8be0079c531659141344cd1fd0a4f28419497f9722a3daafe3b4186f6b6457e060405160405180910390a35050565b600081519050919050565b7f4e487b7100000000000000000000000000000000000000000000000000000000600052604160045260246000fd5b7f4e487b7100000000000000000000000000000000000000000000000000000000600052602260045260246000fd5b600060028204905060018216806200027a57607f821691505b60208210810362000290576200028f62000232565b5b50919050565b60008190508160005260206000209050919050565b60006020601f8301049050919050565b600082821b905092915050565b600060088302620002fa7fffffffffffffffffffffffffffffffffffffffffffffffffffffffffffffffff82620002bb565b620003068683620002bb565b95508019841693508086168417925050509392505050565b6000819050919050565b6000819050919050565b6000620003536200034d62000347846200031e565b62000328565b6200031e565b9050919050565b6000819050919050565b6200036f8362000332565b620003876200037e826200035a565b848454620002c8565b825550505050565b600090565b6200039e6200038f565b620003ab81848462000364565b505050565b5b81811015620003d357620003c760008262000394565b600181019050620003b1565b5050565b601f8211156200042257620003ec8162000296565b620003f784620002ab565b8101602085101562000407578190505b6200041f6200041685620002ab565b830182620003b0565b50505b505050565b600082821c905092915050565b6000620004476000198460080262000427565b1980831691505092915050565b600062000462838362000434565b9150826002028217905092915050565b6200047d82620001f8565b67ffffffffffffffff81111562000499576200049862000203565b5b620004a5825462000261565b620004b2828285620003d7565b600060209050601f831160018114620004ea5760008415620004d5578287015190505b620004e1858262000454565b86555062000551565b601f198416620004fa8662000296565b60005b828110156200052457848901518255600182019150602085019450602081019050620004fd565b8683101562000544578489015162000540601f89168262000434565b8355505b6001600288020188555050505b505050505050565b600073ffffffffffffffffffffffffffffffffffffffff82169050919050565b6000620005868262000559565b9050919050565b620005988162000579565b82525050565b6000602082019050620005b560008301846200058d565b92915050565b6122c480620005cb6000396000f3fe608060405234801561001057600080fd5b50600436106101165760003560e01c8063715018a6116100a2578063a22cb46511610071578063a22cb465146102cd578063b88d4fde146102e9578063c87b56dd14610305578063e985e9c514610335578063f2fde38b1461036557610116565b8063715018a61461026957806375794a3c146102735780638da5cb5b1461029157806395d89b41146102af57610116565b8063095ea7b3116100e9578063095ea7b3146101b557806323b872dd146101d157806342842e0e146101ed5780636352211e1461020957806370a082311461023957610116565b806301ffc9a71461011b57806306fdde031461014b5780630712249f14610169578063081812fc14610185575b600080fd5b6101356004803603810190610130919061176d565b610381565b60405161014291906117b5565b60405180910390f35b610153610463565b6040516101609190611860565b60405180910390f35b610183600480360381019061017e9190611a15565b6104f5565b005b61019f600480360381019061019a9190611aa7565b61057f565b6040516101ac9190611ae3565b60405180910390f35b6101cf60048036038101906101ca9190611afe565b61059b565b005b6101eb60048036038101906101e69190611b3e565b6105b1565b005b61020760048036038101906102029190611b3e565b6106b3565b005b610223600480360381019061021e9190611aa7565b6106d3565b6040516102309190611ae3565b60405180910390f35b610253600480360381019061024e9190611b91565b6106e5565b6040516102609190611bcd565b60405180910390f35b61027161079f565b005b61027b6107b3565b6040516102889190611bcd565b60405180910390f35b6102996107b9565b6040516102a69190611ae3565b60405180910390f35b6102b76107e3565b6040516102c49190611860565b60405180910390f35b6102e760048036038101906102e29190611c14565b610875565b005b61030360048036038101906102fe9190611cf5565b61088b565b005b61031f600480360381019061031a9190611aa7565b6108b0565b60405161032c9190611860565b60405180910390f35b61034f600480360381019061034a9190611d78565b610955565b60405161035c91906117b5565b60405180910390f35b61037f600480360381019061037a9190611b91565b6109e9565b005b60007f80ac58cd000000000000000000000000000000000000000000000000000000007bffffffffffffffffffffffffffffffffffffffffffffffffffffffff1916827bffffffffffffffffffffffffffffffffffffffffffffffffffffffff1916148061044c57507f5b5e139f000000000000000000000000000000000000000000000000000000007bffffffffffffffffffffffffffffffffffffffffffffffffffffffff1916827bffffffffffffffffffffffffffffffffffffffffffffffffffffffff1916145b8061045c575061045b82610a6f565b5b9050919050565b60606000805461047290611de7565b80601f016020809104026020016040519081016040528092919081815260200182805461049e90611de7565b80156104eb5780601f106104c0576101008083540402835291602001916104eb565b820191906000526020600020905b8154815290600101906020018083116104ce57829003601f168201915b5050505050905090565b600060075490506105068382610ad9565b816008600083815260200190815260200160002090816105269190611fc4565b506007600081548092919061053a906120c5565b91905055507fde5d6fd45e32fffb472bcbaeedf6a2e3944633c9701eec7d99adfa07ad6104c18382846040516105729392919061210d565b60405180910390a1505050565b600061058a82610af7565b5061059482610b7f565b9050919050565b6105ad82826105a8610bbc565b610bc4565b5050565b600073ffffffffffffffffffffffffffffffffffffffff168273ffffffffffffffffffffffffffffffffffffffff16036106235760006040517f64a0ae9200000000000000000000000000000000000000000000000000000000815260040161061a9190611ae3565b60405180910390fd5b60006106378383610632610bbc565b610bd6565b90508373ffffffffffffffffffffffffffffffffffffffff168173ffffffffffffffffffffffffffffffffffffffff16146106ad578382826040517f64283d7b0000000000000000000000000000000000000000000000000000000081526004016106a49392919061214b565b60405180910390fd5b50505050565b6106ce8383836040518060200160405280600081525061088b565b505050565b60006106de82610af7565b9050919050565b60008073ffffffffffffffffffffffffffffffffffffffff168273ffffffffffffffffffffffffffffffffffffffff16036107585760006040517f89c62b6400000000000000000000000000000000000000000000000000000000815260040161074f9190611ae3565b60405180910390fd5b600360008373ffffffffffffffffffffffffffffffffffffffff1673ffffffffffffffffffffffffffffffffffffffff168152602001908152602001600020549050919050565b6107a7610df0565b6107b16000610e77565b565b60075481565b6000600660009054906101000a900473ffffffffffffffffffffffffffffffffffffffff16905090565b6060600180546107f290611de7565b80601f016020809104026020016040519081016040528092919081815260200182805461081e90611de7565b801561086b5780601f106108405761010080835404028352916020019161086b565b820191906000526020600020905b81548152906001019060200180831161084e57829003601f168201915b5050505050905090565b610887610880610bbc565b8383610f3d565b5050565b6108968484846105b1565b6108aa6108a1610bbc565b858585856110ac565b50505050565b60606008600083815260200190815260200160002080546108d090611de7565b80601f01602080910402602001604051908101604052809291908181526020018280546108fc90611de7565b80156109495780601f1061091e57610100808354040283529160200191610949565b820191906000526020600020905b81548152906001019060200180831161092c57829003601f168201915b50505050509050919050565b6000600560008473ffffffffffffffffffffffffffffffffffffffff1673ffffffffffffffffffffffffffffffffffffffff16815260200190815260200160002060008373ffffffffffffffffffffffffffffffffffffffff1673ffffffffffffffffffffffffffffffffffffffff16815260200190815260200160002060009054906101000a900460ff16905092915050565b6109f1610df0565b600073ffffffffffffffffffffffffffffffffffffffff168173ffffffffffffffffffffffffffffffffffffffff1603610a635760006040517f1e4fbdf7000000000000000000000000000000000000000000000000000000008152600401610a5a9190611ae3565b60405180910390fd5b610a6c81610e77565b50565b60007f01ffc9a7000000000000000000000000000000000000000000000000000000007bffffffffffffffffffffffffffffffffffffffffffffffffffffffff1916827bffffffffffffffffffffffffffffffffffffffffffffffffffffffff1916149050919050565b610af382826040518060200160405280600081525061125d565b5050565b600080610b0383611281565b9050600073ffffffffffffffffffffffffffffffffffffffff168173ffffffffffffffffffffffffffffffffffffffff1603610b7657826040517f7e273289000000000000000000000000000000000000000000000000000000008152600401610b6d9190611bcd565b60405180910390fd5b80915050919050565b60006004600083815260200190815260200160002060009054906101000a900473ffffffffffffffffffffffffffffffffffffffff169050919050565b600033905090565b610bd183838360016112be565b505050565b600080610be284611281565b9050600073ffffffffffffffffffffffffffffffffffffffff168373ffffffffffffffffffffffffffffffffffffffff1614610c2457610c23818486611483565b5b600073ffffffffffffffffffffffffffffffffffffffff168173ffffffffffffffffffffffffffffffffffffffff1614610cb557610c666000856000806112be565b6001600360008373ffffffffffffffffffffffffffffffffffffffff1673ffffffffffffffffffffffffffffffffffffffff168152602001908152602001600020600082825403925050819055505b600073ffffffffffffffffffffffffffffffffffffffff168573ffffffffffffffffffffffffffffffffffffffff1614610d38576001600360008773ffffffffffffffffffffffffffffffffffffffff1673ffffffffffffffffffffffffffffffffffffffff168152602001908152602001600020600082825401925050819055505b846002600086815260200190815260200160002060006101000a81548173ffffffffffffffffffffffffffffffffffffffff021916908373ffffffffffffffffffffffffffffffffffffffff160217905550838573ffffffffffffffffffffffffffffffffffffffff168273ffffffffffffffffffffffffffffffffffffffff167fddf252ad1be2c89b69c2b068fc378daa952ba7f163c4a11628f55a4df523b3ef60405160405180910390a4809150509392505050565b610df8610bbc565b73ffffffffffffffffffffffffffffffffffffffff16610e166107b9565b73ffffffffffffffffffffffffffffffffffffffff1614610e7557610e39610bbc565b6040517f118cdaa7000000000000000000000000000000000000000000000000000000008152600401610e6c9190611ae3565b60405180910390fd5b565b6000600660009054906101000a900473ffffffffffffffffffffffffffffffffffffffff16905081600660006101000a81548173ffffffffffffffffffffffffffffffffffffffff021916908373ffffffffffffffffffffffffffffffffffffffff1602179055508173ffffffffffffffffffffffffffffffffffffffff168173ffffffffffffffffffffffffffffffffffffffff167f8be0079c531659141344cd1fd0a4f28419497f9722a3daafe3b4186f6b6457e060405160405180910390a35050565b600073ffffffffffffffffffffffffffffffffffffffff168273ffffffffffffffffffffffffffffffffffffffff1603610fae57816040517f5b08ba18000000000000000000000000000000000000000000000000000000008152600401610fa59190611ae3565b60405180910390fd5b80600560008573ffffffffffffffffffffffffffffffffffffffff1673ffffffffffffffffffffffffffffffffffffffff16815260200190815260200160002060008473ffffffffffffffffffffffffffffffffffffffff1673ffffffffffffffffffffffffffffffffffffffff16815260200190815260200160002060006101000a81548160ff0219169083151502179055508173ffffffffffffffffffffffffffffffffffffffff168373ffffffffffffffffffffffffffffffffffffffff167f17307eab39ab6107e8899845ad3d59bd9653f200f220920489ca2b5937696c318360405161109f91906117b5565b60405180910390a3505050565b60008373ffffffffffffffffffffffffffffffffffffffff163b1115611256578273ffffffffffffffffffffffffffffffffffffffff1663150b7a02868685856040518563ffffffff1660e01b815260040161110b94939291906121d7565b6020604051808303816000875af192505050801561114757506040513d601f19601f820116820180604052508101906111449190612238565b60015b6111cb573d8060008114611177576040519150601f19603f3d011682016040523d82523d6000602084013e61117c565b606091505b5060008151036111c357836040517f64a0ae920000000000000000000000000000000000000000000000000000000081526004016111ba9190611ae3565b60405180910390fd5b805181602001fd5b63150b7a0260e01b7bffffffffffffffffffffffffffffffffffffffffffffffffffffffff1916817bffffffffffffffffffffffffffffffffffffffffffffffffffffffff19161461125457836040517f64a0ae9200000000000000000000000000000000000000000000000000000000815260040161124b9190611ae3565b60405180910390fd5b505b5050505050565b6112678383611547565b61127c611272610bbc565b60008585856110ac565b505050565b60006002600083815260200190815260200160002060009054906101000a900473ffffffffffffffffffffffffffffffffffffffff169050919050565b80806112f75750600073ffffffffffffffffffffffffffffffffffffffff168273ffffffffffffffffffffffffffffffffffffffff1614155b1561142b57600061130784610af7565b9050600073ffffffffffffffffffffffffffffffffffffffff168373ffffffffffffffffffffffffffffffffffffffff161415801561137257508273ffffffffffffffffffffffffffffffffffffffff168173ffffffffffffffffffffffffffffffffffffffff1614155b801561138557506113838184610955565b155b156113c757826040517fa9fbf51f0000000000000000000000000000000000000000000000000000000081526004016113be9190611ae3565b60405180910390fd5b811561142957838573ffffffffffffffffffffffffffffffffffffffff168273ffffffffffffffffffffffffffffffffffffffff167f8c5be1e5ebec7d5bd14f71427d1e84f3dd0314c0f7b2291e5b200ac8c7c3b92560405160405180910390a45b505b836004600085815260200190815260200160002060006101000a81548173ffffffffffffffffffffffffffffffffffffffff021916908373ffffffffffffffffffffffffffffffffffffffff16021790555050505050565b61148e838383611640565b61154257600073ffffffffffffffffffffffffffffffffffffffff168373ffffffffffffffffffffffffffffffffffffffff160361150357806040517f7e2732890000000000000000000000000000000000000000000000000000000081526004016114fa9190611bcd565b60405180910390fd5b81816040517f177e802f000000000000000000000000000000000000000000000000000000008152600401611539929190612265565b60405180910390fd5b505050565b600073ffffffffffffffffffffffffffffffffffffffff168273ffffffffffffffffffffffffffffffffffffffff16036115b95760006040517f64a0ae920000000000000000000000000000000000000000000000000000000081526004016115b09190611ae3565b60405180910390fd5b60006115c783836000610bd6565b9050600073ffffffffffffffffffffffffffffffffffffffff168173ffffffffffffffffffffffffffffffffffffffff161461163b5760006040517f73c6ac6e0000000000000000000000000000000000000000000000000000000081526004016116329190611ae3565b60405180910390fd5b505050565b60008073ffffffffffffffffffffffffffffffffffffffff168373ffffffffffffffffffffffffffffffffffffffff16141580156116f857508273ffffffffffffffffffffffffffffffffffffffff168473ffffffffffffffffffffffffffffffffffffffff1614806116b957506116b88484610955565b5b806116f757508273ffffffffffffffffffffffffffffffffffffffff166116df83610b7f565b73ffffffffffffffffffffffffffffffffffffffff16145b5b90509392505050565b6000604051905090565b600080fd5b600080fd5b60007fffffffff0000000000000000000000000000000000000000000000000000000082169050919050565b61174a81611715565b811461175557600080fd5b50565b60008135905061176781611741565b92915050565b6000602082840312156117835761178261170b565b5b600061179184828501611758565b91505092915050565b60008115159050919050565b6117af8161179a565b82525050565b60006020820190506117ca60008301846117a6565b92915050565b600081519050919050565b600082825260208201905092915050565b60005b8381101561180a5780820151818401526020810190506117ef565b60008484015250505050565b6000601f19601f8301169050919050565b6000611832826117d0565b61183c81856117db565b935061184c8185602086016117ec565b61185581611816565b840191505092915050565b6000602082019050818103600083015261187a8184611827565b905092915050565b600073ffffffffffffffffffffffffffffffffffffffff82169050919050565b60006118ad82611882565b9050919050565b6118bd816118a2565b81146118c857600080fd5b50565b6000813590506118da816118b4565b92915050565b600080fd5b600080fd5b7f4e487b7100000000000000000000000000000000000000000000000000000000600052604160045260246000fd5b61192282611816565b810181811067ffffffffffffffff82111715611941576119406118ea565b5b80604052505050565b6000611954611701565b90506119608282611919565b919050565b600067ffffffffffffffff8211156119805761197f6118ea565b5b61198982611816565b9050602081019050919050565b82818337600083830152505050565b60006119b86119b384611965565b61194a565b9050828152602081018484840111156119d4576119d36118e5565b5b6119df848285611996565b509392505050565b600082601f8301126119fc576119fb6118e0565b5b8135611a0c8482602086016119a5565b91505092915050565b60008060408385031215611a2c57611a2b61170b565b5b6000611a3a858286016118cb565b925050602083013567ffffffffffffffff811115611a5b57611a5a611710565b5b611a67858286016119e7565b9150509250929050565b6000819050919050565b611a8481611a71565b8114611a8f57600080fd5b50565b600081359050611aa181611a7b565b92915050565b600060208284031215611abd57611abc61170b565b5b6000611acb84828501611a92565b91505092915050565b611add816118a2565b82525050565b6000602082019050611af86000830184611ad4565b92915050565b60008060408385031215611b1557611b1461170b565b5b6000611b23858286016118cb565b9250506020611b3485828601611a92565b9150509250929050565b600080600060608486031215611b5757611b5661170b565b5b6000611b65868287016118cb565b9350506020611b76868287016118cb565b9250506040611b8786828701611a92565b9150509250925092565b600060208284031215611ba757611ba661170b565b5b6000611bb5848285016118cb565b91505092915050565b611bc781611a71565b82525050565b6000602082019050611be26000830184611bbe565b92915050565b611bf18161179a565b8114611bfc57600080fd5b50565b600081359050611c0e81611be8565b92915050565b60008060408385031215611c2b57611c2a61170b565b5b6000611c39858286016118cb565b9250506020611c4a85828601611bff565b9150509250929050565b600067ffffffffffffffff821115611c6f57611c6e6118ea565b5b611c7882611816565b9050602081019050919050565b6000611c98611c9384611c54565b61194a565b905082815260208101848484011115611cb457611cb36118e5565b5b611cbf848285611996565b509392505050565b600082601f830112611cdc57611cdb6118e0565b5b8135611cec848260208601611c85565b91505092915050565b60008060008060808587031215611d0f57611d0e61170b565b5b6000611d1d878288016118cb565b9450506020611d2e878288016118cb565b9350506040611d3f87828801611a92565b925050606085013567ffffffffffffffff811115611d6057611d5f611710565b5b611d6c87828801611cc7565b91505092959194509250565b60008060408385031215611d8f57611d8e61170b565b5b6000611d9d858286016118cb565b9250506020611dae858286016118cb565b9150509250929050565b7f4e487b7100000000000000000000000000000000000000000000000000000000600052602260045260246000fd5b60006002820490506001821680611dff57607f821691505b602082108103611e1257611e11611db8565b5b50919050565b60008190508160005260206000209050919050565b60006020601f8301049050919050565b600082821b905092915050565b600060088302611e7a7fffffffffffffffffffffffffffffffffffffffffffffffffffffffffffffffff82611e3d565b611e848683611e3d565b95508019841693508086168417925050509392505050565b6000819050919050565b6000611ec1611ebc611eb784611a71565b611e9c565b611a71565b9050919050565b6000819050919050565b611edb83611ea6565b611eef611ee782611ec8565b848454611e4a565b825550505050565b600090565b611f04611ef7565b611f0f818484611ed2565b505050565b5b81811015611f3357611f28600082611efc565b600181019050611f15565b5050565b601f821115611f7857611f4981611e18565b611f5284611e2d565b81016020851015611f61578190505b611f75611f6d85611e2d565b830182611f14565b50505b505050565b600082821c905092915050565b6000611f9b60001984600802611f7d565b1980831691505092915050565b6000611fb48383611f8a565b9150826002028217905092915050565b611fcd826117d0565b67ffffffffffffffff811115611fe657611fe56118ea565b5b611ff08254611de7565b611ffb828285611f37565b600060209050601f83116001811461202e576000841561201c578287015190505b6120268582611fa8565b86555061208e565b601f19841661203c86611e18565b60005b828110156120645784890151825560018201915060208501945060208101905061203f565b86831015612081578489015161207d601f891682611f8a565b8355505b6001600288020188555050505b505050505050565b7f4e487b7100000000000000000000000000000000000000000000000000000000600052601160045260246000fd5b60006120d082611a71565b91507fffffffffffffffffffffffffffffffffffffffffffffffffffffffffffffffff820361210257612101612096565b5b600182019050919050565b60006060820190506121226000830186611ad4565b61212f6020830185611bbe565b81810360408301526121418184611827565b9050949350505050565b60006060820190506121606000830186611ad4565b61216d6020830185611bbe565b61217a6040830184611ad4565b949350505050565b600081519050919050565b600082825260208201905092915050565b60006121a982612182565b6121b3818561218d565b93506121c38185602086016117ec565b6121cc81611816565b840191505092915050565b60006080820190506121ec6000830187611ad4565b6121f96020830186611ad4565b6122066040830185611bbe565b8181036060830152612218818461219e565b905095945050505050565b60008151905061223281611741565b92915050565b60006020828403121561224e5761224d61170b565b5b600061225c84828501612223565b91505092915050565b600060408201905061227a6000830185611ad4565b6122876020830184611bbe565b939250505056fea2646970667358221220f108fbeebc8bf8b937ecc4e4ced83d6d3897dbdded8cfe28d9133d5e566b331864736f6c63430008140033",
  "linkReferences": {},
  "deployedLinkReferences": {}
}