{
  "_format": "hh-sol-artifact-1",
  "contractName": "NFTCertificate",
  "sourceName": "contracts/NFTCertificate.sol",
  "abi": [
    {
      "inputs": [],
      "stateMutability": "nonpayable",
      "type": "constructor"
    },
    {
      "inputs": [
        {
          "internalType": "address",
          "name": "sender",
          "type": "address"
        },
        {
          "internalType": "uint256",
          "name": "tokenId",
          "type": "uint256"
        },
        {
          "internalType": "address",
          "name": "owner",
          "type": "address"
        }
      ],
      "name": "ERC721IncorrectOwner",
      "type": "error"
    },
    {
      "inputs": [
        {
          "internalType": "address",
          "name": "operator",
          "type": "address"
        },
        {
          "internalType": "uint256",
          "name": "tokenId",
          "type": "uint256"
        }
      ],
      "name": "ERC721InsufficientApproval",
      "type": "error"
    },
    {
      "inputs": [
        {
          "internalType": "address",
          "name": "approver",
          "type": "address"
        }
      ],
      "name": "ERC721InvalidApprover",
      "type": "error"
    },
    {
      "inputs": [
        {
          "internalType": "address",
          "name": "operator",
          "type": "address"
        }
      ],
      "name": "ERC721InvalidOperator",
      "type": "error"
    },
    {
      "inputs": [
        {
          "internalType": "address",
          "name": "owner",
          "type": "address"
        }
      ],
      "name": "ERC721InvalidOwner",
      "type": "error"
    },
    {
      "inputs": [
        {
          "internalType": "address",
          "name": "receiver",
          "type": "address"
        }
      ],
      "name": "ERC721InvalidReceiver",
      "type": "error"
    },
    {
      "inputs": [
        {
          "internalType": "address",
          "name": "sender",
          "type": "address"
        }
      ],
      "name": "ERC721InvalidSender",
      "type": "error"
    },
    {
      "inputs": [
        {
          "internalType": "uint256",
          "name": "tokenId",
          "type": "uint256"
        }
      ],
      "name": "ERC721NonexistentToken",
      "type": "error"
    },
    {
      "inputs": [
        {
          "internalType": "address",
          "name": "owner",
          "type": "address"
        }
      ],
      "name": "OwnableInvalidOwner",
      "type": "error"
    },
    {
      "inputs": [
        {
          "internalType": "address",
          "name": "account",
          "type": "address"
        }
      ],
      "name": "OwnableUnauthorizedAccount",
      "type": "error"
    },
    {
      "anonymous": false,
      "inputs": [
        {
          "indexed": true,
          "internalType": "address",
          "name": "owner",
          "type": "address"
        },
        {
          "indexed": true,
          "internalType": "address",
          "name": "approved",
          "type": "address"
        },
        {
          "indexed": true,
          "internalType": "uint256",
          "name": "tokenId",
          "type": "uint256"
        }
      ],
      "name": "Approval",
      "type": "event"
    },
    {
      "anonymous": false,
      "inputs": [
        {
          "indexed": true,
          "internalType": "address",
          "name": "owner",
          "type": "address"
        },
        {
          "indexed": true,
          "internalType": "address",
          "name": "operator",
          "type": "address"
        },
        {
          "indexed": false,
          "internalType": "bool",
          "name": "approved",
          "type": "bool"
        }
      ],
      "name": "ApprovalForAll",
      "type": "event"
    },
    {
      "anonymous": false,
      "inputs": [
        {
          "indexed": false,
          "internalType": "address",
          "name": "recepient",
          "type": "address"
        },
        {
          "indexed": false,
          "internalType": "uint256",
          "name": "tokenId",
          "type": "uint256"
        },
        {
          "indexed": false,
          "internalType": "string",
          "name": "metadataURI",
          "type": "string"
        }
      ],
      "name": "CertificateMinted",
      "type": "event"
    },
    {
      "anonymous": false,
      "inputs": [
        {
          "indexed": true,
          "internalType": "address",
          "name": "previousOwner",
          "type": "address"
        },
        {
          "indexed": true,
          "internalType": "address",
          "name": "newOwner",
          "type": "address"
        }
      ],
      "name": "OwnershipTransferred",
      "type": "event"
    },
    {
      "anonymous": false,
      "inputs": [
        {
          "indexed": true,
          "internalType": "address",
          "name": "from",
          "type": "address"
        },
        {
          "indexed": true,
          "internalType": "address",
          "name": "to",
          "type": "address"
        },
        {
          "indexed": true,
          "internalType": "uint256",
          "name": "tokenId",
          "type": "uint256"
        }
      ],
      "name": "Transfer",
      "type": "event"
    },
    {
      "inputs": [
        {
          "internalType": "address",
          "name": "to",
          "type": "address"
        },
        {
          "internalType": "uint256",
          "name": "tokenId",
          "type": "uint256"
        }
      ],
      "name": "approve",
      "outputs": [],
      "stateMutability": "nonpayable",
      "type": "function"
    },
    {
      "inputs": [
        {
          "internalType": "address",
          "name": "owner",
          "type": "address"
        }
      ],
      "name": "balanceOf",
      "outputs": [
        {
          "internalType": "uint256",
          "name": "",
          "type": "uint256"
        }
      ],
      "stateMutability": "view",
      "type": "function"
    },
    {
      "inputs": [
        {
          "internalType": "uint256",
          "name": "tokenId",
          "type": "uint256"
        }
      ],
      "name": "getApproved",
      "outputs": [
        {
          "internalType": "address",
          "name": "",
          "type": "address"
        }
      ],
      "stateMutability": "view",
      "type": "function"
    },
    {
      "inputs": [
        {
          "internalType": "address",
          "name": "",
          "type": "address"
        }
      ],
      "name": "hasMinted",
      "outputs": [
        {
          "internalType": "bool",
          "name": "",
          "type": "bool"
        }
      ],
      "stateMutability": "view",
      "type": "function"
    },
    {
      "inputs": [
        {
          "internalType": "address",
          "name": "owner",
          "type": "address"
        },
        {
          "internalType": "address",
          "name": "operator",
          "type": "address"
        }
      ],
      "name": "isApprovedForAll",
      "outputs": [
        {
          "internalType": "bool",
          "name": "",
          "type": "bool"
        }
      ],
      "stateMutability": "view",
      "type": "function"
    },
    {
      "inputs": [
        {
          "internalType": "address",
          "name": "recipient",
          "type": "address"
        },
        {
          "internalType": "uint256",
          "name": "metadataIndex",
          "type": "uint256"
        }
      ],
      "name": "mintCertificate",
      "outputs": [],
      "stateMutability": "nonpayable",
      "type": "function"
    },
    {
      "inputs": [],
      "name": "name",
      "outputs": [
        {
          "internalType": "string",
          "name": "",
          "type": "string"
        }
      ],
      "stateMutability": "view",
      "type": "function"
    },
    {
      "inputs": [],
      "name": "nextTokenId",
      "outputs": [
        {
          "internalType": "uint256",
          "name": "",
          "type": "uint256"
        }
      ],
      "stateMutability": "view",
      "type": "function"
    },
    {
      "inputs": [
        {
          "internalType": "uint256",
          "name": "",
          "type": "uint256"
        }
      ],
      "name": "nftMetadataURIs",
      "outputs": [
        {
          "internalType": "string",
          "name": "",
          "type": "string"
        }
      ],
      "stateMutability": "view",
      "type": "function"
    },
    {
      "inputs": [],
      "name": "owner",
      "outputs": [
        {
          "internalType": "address",
          "name": "",
          "type": "address"
        }
      ],
      "stateMutability": "view",
      "type": "function"
    },
    {
      "inputs": [
        {
          "internalType": "uint256",
          "name": "tokenId",
          "type": "uint256"
        }
      ],
      "name": "ownerOf",
      "outputs": [
        {
          "internalType": "address",
          "name": "",
          "type": "address"
        }
      ],
      "stateMutability": "view",
      "type": "function"
    },
    {
      "inputs": [],
      "name": "renounceOwnership",
      "outputs": [],
      "stateMutability": "nonpayable",
      "type": "function"
    },
    {
      "inputs": [
        {
          "internalType": "address",
          "name": "from",
          "type": "address"
        },
        {
          "internalType": "address",
          "name": "to",
          "type": "address"
        },
        {
          "internalType": "uint256",
          "name": "tokenId",
          "type": "uint256"
        }
      ],
      "name": "safeTransferFrom",
      "outputs": [],
      "stateMutability": "nonpayable",
      "type": "function"
    },
    {
      "inputs": [
        {
          "internalType": "address",
          "name": "from",
          "type": "address"
        },
        {
          "internalType": "address",
          "name": "to",
          "type": "address"
        },
        {
          "internalType": "uint256",
          "name": "tokenId",
          "type": "uint256"
        },
        {
          "internalType": "bytes",
          "name": "data",
          "type": "bytes"
        }
      ],
      "name": "safeTransferFrom",
      "outputs": [],
      "stateMutability": "nonpayable",
      "type": "function"
    },
    {
      "inputs": [
        {
          "internalType": "address",
          "name": "operator",
          "type": "address"
        },
        {
          "internalType": "bool",
          "name": "approved",
          "type": "bool"
        }
      ],
      "name": "setApprovalForAll",
      "outputs": [],
      "stateMutability": "nonpayable",
      "type": "function"
    },
    {
      "inputs": [
        {
          "internalType": "bytes4",
          "name": "interfaceId",
          "type": "bytes4"
        }
      ],
      "name": "supportsInterface",
      "outputs": [
        {
          "internalType": "bool",
          "name": "",
          "type": "bool"
        }
      ],
      "stateMutability": "view",
      "type": "function"
    },
    {
      "inputs": [],
      "name": "symbol",
      "outputs": [
        {
          "internalType": "string",
          "name": "",
          "type": "string"
        }
      ],
      "stateMutability": "view",
      "type": "function"
    },
    {
      "inputs": [
        {
          "internalType": "uint256",
          "name": "tokenId",
          "type": "uint256"
        }
      ],
      "name": "tokenURI",
      "outputs": [
        {
          "internalType": "string",
          "name": "",
          "type": "string"
        }
      ],
      "stateMutability": "view",
      "type": "function"
    },
    {
      "inputs": [
        {
          "internalType": "address",
          "name": "from",
          "type": "address"
        },
        {
          "internalType": "address",
          "name": "to",
          "type": "address"
        },
        {
          "internalType": "uint256",
          "name": "tokenId",
          "type": "uint256"
        }
      ],
      "name": "transferFrom",
      "outputs": [],
      "stateMutability": "nonpayable",
      "type": "function"
    },
    {
      "inputs": [
        {
          "internalType": "address",
          "name": "newOwner",
          "type": "address"
        }
      ],
      "name": "transferOwnership",
      "outputs": [],
      "stateMutability": "nonpayable",
      "type": "function"
    }
  ],
  "bytecode": "0x608060405260405180604001604052806040518060a001604052806075815260200162002b446075913981526020016040518060a001604052806075815260200162002acf6075913981525060079060026200005d92919062000252565b503480156200006b57600080fd5b50336040518060400160405280600e81526020017f4e465443657274696669636174650000000000000000000000000000000000008152506040518060400160405280600481526020017f43455254000000000000000000000000000000000000000000000000000000008152508160009081620000ea9190620005b9565b508060019081620000fc9190620005b9565b505050600073ffffffffffffffffffffffffffffffffffffffff168173ffffffffffffffffffffffffffffffffffffffff1603620001745760006040517f1e4fbdf70000000000000000000000000000000000000000000000000000000081526004016200016b9190620006e5565b60405180910390fd5b62000185816200018c60201b60201c565b5062000702565b6000600660009054906101000a900473ffffffffffffffffffffffffffffffffffffffff16905081600660006101000a81548173ffffffffffffffffffffffffffffffffffffffff021916908373ffffffffffffffffffffffffffffffffffffffff1602179055508173ffffffffffffffffffffffffffffffffffffffff168173ffffffffffffffffffffffffffffffffffffffff167f8be0079c531659141344cd1fd0a4f28419497f9722a3daafe3b4186f6b6457e060405160405180910390a35050565b8280548282559060005260206000209081019282156200029f579160200282015b828111156200029e5782518290816200028d9190620005b9565b509160200191906001019062000273565b5b509050620002ae9190620002b2565b5090565b5b80821115620002d65760008181620002cc9190620002da565b50600101620002b3565b5090565b508054620002e890620003a8565b6000825580601f10620002fc57506200031d565b601f0160209004906000526020600020908101906200031c919062000320565b5b50565b5b808211156200033b57600081600090555060010162000321565b5090565b600081519050919050565b7f4e487b7100000000000000000000000000000000000000000000000000000000600052604160045260246000fd5b7f4e487b7100000000000000000000000000000000000000000000000000000000600052602260045260246000fd5b60006002820490506001821680620003c157607f821691505b602082108103620003d757620003d662000379565b5b50919050565b60008190508160005260206000209050919050565b60006020601f8301049050919050565b600082821b905092915050565b600060088302620004417fffffffffffffffffffffffffffffffffffffffffffffffffffffffffffffffff8262000402565b6200044d868362000402565b95508019841693508086168417925050509392505050565b6000819050919050565b6000819050919050565b60006200049a620004946200048e8462000465565b6200046f565b62000465565b9050919050565b6000819050919050565b620004b68362000479565b620004ce620004c582620004a1565b8484546200040f565b825550505050565b600090565b620004e5620004d6565b620004f2818484620004ab565b505050565b5b818110156200051a576200050e600082620004db565b600181019050620004f8565b5050565b601f82111562000569576200053381620003dd565b6200053e84620003f2565b810160208510156200054e578190505b620005666200055d85620003f2565b830182620004f7565b50505b505050565b600082821c905092915050565b60006200058e600019846008026200056e565b1980831691505092915050565b6000620005a983836200057b565b9150826002028217905092915050565b620005c4826200033f565b67ffffffffffffffff811115620005e057620005df6200034a565b5b620005ec8254620003a8565b620005f98282856200051e565b600060209050601f8311600181146200063157600084156200061c578287015190505b6200062885826200059b565b86555062000698565b601f1984166200064186620003dd565b60005b828110156200066b5784890151825560018201915060208501945060208101905062000644565b868310156200068b578489015162000687601f8916826200057b565b8355505b6001600288020188555050505b505050505050565b600073ffffffffffffffffffffffffffffffffffffffff82169050919050565b6000620006cd82620006a0565b9050919050565b620006df81620006c0565b82525050565b6000602082019050620006fc6000830184620006d4565b92915050565b6123bd80620007126000396000f3fe608060405234801561001057600080fd5b506004361061012c5760003560e01c806375794a3c116100ad578063b88d4fde11610071578063b88d4fde1461032f578063c87b56dd1461034b578063e985e9c51461037b578063f2fde38b146103ab578063ffc1e676146103c75761012c565b806375794a3c1461029d5780638da5cb5b146102bb57806395d89b41146102d9578063a22cb465146102f7578063a5015dd1146103135761012c565b806338e21cce116100f457806338e21cce146101e757806342842e0e146102175780636352211e1461023357806370a0823114610263578063715018a6146102935761012c565b806301ffc9a71461013157806306fdde0314610161578063081812fc1461017f578063095ea7b3146101af57806323b872dd146101cb575b600080fd5b61014b60048036038101906101469190611a1b565b6103f7565b6040516101589190611a63565b60405180910390f35b6101696104d9565b6040516101769190611b0e565b60405180910390f35b61019960048036038101906101949190611b66565b61056b565b6040516101a69190611bd4565b60405180910390f35b6101c960048036038101906101c49190611c1b565b610587565b005b6101e560048036038101906101e09190611c5b565b61059d565b005b61020160048036038101906101fc9190611cae565b61069f565b60405161020e9190611a63565b60405180910390f35b610231600480360381019061022c9190611c5b565b6106bf565b005b61024d60048036038101906102489190611b66565b6106df565b60405161025a9190611bd4565b60405180910390f35b61027d60048036038101906102789190611cae565b6106f1565b60405161028a9190611cea565b60405180910390f35b61029b6107ab565b005b6102a56107bf565b6040516102b29190611cea565b60405180910390f35b6102c36107c5565b6040516102d09190611bd4565b60405180910390f35b6102e16107ef565b6040516102ee9190611b0e565b60405180910390f35b610311600480360381019061030c9190611d31565b610881565b005b61032d60048036038101906103289190611c1b565b610897565b005b61034960048036038101906103449190611ea6565b610a69565b005b61036560048036038101906103609190611b66565b610a8e565b6040516103729190611b0e565b60405180910390f35b61039560048036038101906103909190611f29565b610b57565b6040516103a29190611a63565b60405180910390f35b6103c560048036038101906103c09190611cae565b610beb565b005b6103e160048036038101906103dc9190611b66565b610c71565b6040516103ee9190611b0e565b60405180910390f35b60007f80ac58cd000000000000000000000000000000000000000000000000000000007bffffffffffffffffffffffffffffffffffffffffffffffffffffffff1916827bffffffffffffffffffffffffffffffffffffffffffffffffffffffff191614806104c257507f5b5e139f000000000000000000000000000000000000000000000000000000007bffffffffffffffffffffffffffffffffffffffffffffffffffffffff1916827bffffffffffffffffffffffffffffffffffffffffffffffffffffffff1916145b806104d257506104d182610d1d565b5b9050919050565b6060600080546104e890611f98565b80601f016020809104026020016040519081016040528092919081815260200182805461051490611f98565b80156105615780601f1061053657610100808354040283529160200191610561565b820191906000526020600020905b81548152906001019060200180831161054457829003601f168201915b5050505050905090565b600061057682610d87565b5061058082610e0f565b9050919050565b6105998282610594610e4c565b610e54565b5050565b600073ffffffffffffffffffffffffffffffffffffffff168273ffffffffffffffffffffffffffffffffffffffff160361060f5760006040517f64a0ae920000000000000000000000000000000000000000000000000000000081526004016106069190611bd4565b60405180910390fd5b6000610623838361061e610e4c565b610e66565b90508373ffffffffffffffffffffffffffffffffffffffff168173ffffffffffffffffffffffffffffffffffffffff1614610699578382826040517f64283d7b00000000000000000000000000000000000000000000000000000000815260040161069093929190611fc9565b60405180910390fd5b50505050565b60096020528060005260406000206000915054906101000a900460ff1681565b6106da83838360405180602001604052806000815250610a69565b505050565b60006106ea82610d87565b9050919050565b60008073ffffffffffffffffffffffffffffffffffffffff168273ffffffffffffffffffffffffffffffffffffffff16036107645760006040517f89c62b6400000000000000000000000000000000000000000000000000000000815260040161075b9190611bd4565b60405180910390fd5b600360008373ffffffffffffffffffffffffffffffffffffffff1673ffffffffffffffffffffffffffffffffffffffff168152602001908152602001600020549050919050565b6107b3611080565b6107bd6000611107565b565b60085481565b6000600660009054906101000a900473ffffffffffffffffffffffffffffffffffffffff16905090565b6060600180546107fe90611f98565b80601f016020809104026020016040519081016040528092919081815260200182805461082a90611f98565b80156108775780601f1061084c57610100808354040283529160200191610877565b820191906000526020600020905b81548152906001019060200180831161085a57829003601f168201915b5050505050905090565b61089361088c610e4c565b83836111cd565b5050565b61089f611080565b60078054905081106108e6576040517f08c379a00000000000000000000000000000000000000000000000000000000081526004016108dd9061204c565b60405180910390fd5b600960008373ffffffffffffffffffffffffffffffffffffffff1673ffffffffffffffffffffffffffffffffffffffff16815260200190815260200160002060009054906101000a900460ff1615610973576040517f08c379a000000000000000000000000000000000000000000000000000000000815260040161096a906120de565b60405180910390fd5b60006008549050610984838261133c565b81600a6000838152602001908152602001600020819055506001600960008573ffffffffffffffffffffffffffffffffffffffff1673ffffffffffffffffffffffffffffffffffffffff16815260200190815260200160002060006101000a81548160ff02191690831515021790555060086000815480929190610a079061212d565b91905055507fde5d6fd45e32fffb472bcbaeedf6a2e3944633c9701eec7d99adfa07ad6104c1838260078581548110610a4357610a42612175565b5b90600052602060002001604051610a5c9392919061223d565b60405180910390a1505050565b610a7484848461059d565b610a88610a7f610e4c565b8585858561135a565b50505050565b60606000600a600084815260200190815260200160002054905060078181548110610abc57610abb612175565b5b906000526020600020018054610ad190611f98565b80601f0160208091040260200160405190810160405280929190818152602001828054610afd90611f98565b8015610b4a5780601f10610b1f57610100808354040283529160200191610b4a565b820191906000526020600020905b815481529060010190602001808311610b2d57829003601f168201915b5050505050915050919050565b6000600560008473ffffffffffffffffffffffffffffffffffffffff1673ffffffffffffffffffffffffffffffffffffffff16815260200190815260200160002060008373ffffffffffffffffffffffffffffffffffffffff1673ffffffffffffffffffffffffffffffffffffffff16815260200190815260200160002060009054906101000a900460ff16905092915050565b610bf3611080565b600073ffffffffffffffffffffffffffffffffffffffff168173ffffffffffffffffffffffffffffffffffffffff1603610c655760006040517f1e4fbdf7000000000000000000000000000000000000000000000000000000008152600401610c5c9190611bd4565b60405180910390fd5b610c6e81611107565b50565b60078181548110610c8157600080fd5b906000526020600020016000915090508054610c9c90611f98565b80601f0160208091040260200160405190810160405280929190818152602001828054610cc890611f98565b8015610d155780601f10610cea57610100808354040283529160200191610d15565b820191906000526020600020905b815481529060010190602001808311610cf857829003601f168201915b505050505081565b60007f01ffc9a7000000000000000000000000000000000000000000000000000000007bffffffffffffffffffffffffffffffffffffffffffffffffffffffff1916827bffffffffffffffffffffffffffffffffffffffffffffffffffffffff1916149050919050565b600080610d938361150b565b9050600073ffffffffffffffffffffffffffffffffffffffff168173ffffffffffffffffffffffffffffffffffffffff1603610e0657826040517f7e273289000000000000000000000000000000000000000000000000000000008152600401610dfd9190611cea565b60405180910390fd5b80915050919050565b60006004600083815260200190815260200160002060009054906101000a900473ffffffffffffffffffffffffffffffffffffffff169050919050565b600033905090565b610e618383836001611548565b505050565b600080610e728461150b565b9050600073ffffffffffffffffffffffffffffffffffffffff168373ffffffffffffffffffffffffffffffffffffffff1614610eb457610eb381848661170d565b5b600073ffffffffffffffffffffffffffffffffffffffff168173ffffffffffffffffffffffffffffffffffffffff1614610f4557610ef6600085600080611548565b6001600360008373ffffffffffffffffffffffffffffffffffffffff1673ffffffffffffffffffffffffffffffffffffffff168152602001908152602001600020600082825403925050819055505b600073ffffffffffffffffffffffffffffffffffffffff168573ffffffffffffffffffffffffffffffffffffffff1614610fc8576001600360008773ffffffffffffffffffffffffffffffffffffffff1673ffffffffffffffffffffffffffffffffffffffff168152602001908152602001600020600082825401925050819055505b846002600086815260200190815260200160002060006101000a81548173ffffffffffffffffffffffffffffffffffffffff021916908373ffffffffffffffffffffffffffffffffffffffff160217905550838573ffffffffffffffffffffffffffffffffffffffff168273ffffffffffffffffffffffffffffffffffffffff167fddf252ad1be2c89b69c2b068fc378daa952ba7f163c4a11628f55a4df523b3ef60405160405180910390a4809150509392505050565b611088610e4c565b73ffffffffffffffffffffffffffffffffffffffff166110a66107c5565b73ffffffffffffffffffffffffffffffffffffffff1614611105576110c9610e4c565b6040517f118cdaa70000000000000000000000000000000000000000000000000000000081526004016110fc9190611bd4565b60405180910390fd5b565b6000600660009054906101000a900473ffffffffffffffffffffffffffffffffffffffff16905081600660006101000a81548173ffffffffffffffffffffffffffffffffffffffff021916908373ffffffffffffffffffffffffffffffffffffffff1602179055508173ffffffffffffffffffffffffffffffffffffffff168173ffffffffffffffffffffffffffffffffffffffff167f8be0079c531659141344cd1fd0a4f28419497f9722a3daafe3b4186f6b6457e060405160405180910390a35050565b600073ffffffffffffffffffffffffffffffffffffffff168273ffffffffffffffffffffffffffffffffffffffff160361123e57816040517f5b08ba180000000000000000000000000000000000000000000000000000000081526004016112359190611bd4565b60405180910390fd5b80600560008573ffffffffffffffffffffffffffffffffffffffff1673ffffffffffffffffffffffffffffffffffffffff16815260200190815260200160002060008473ffffffffffffffffffffffffffffffffffffffff1673ffffffffffffffffffffffffffffffffffffffff16815260200190815260200160002060006101000a81548160ff0219169083151502179055508173ffffffffffffffffffffffffffffffffffffffff168373ffffffffffffffffffffffffffffffffffffffff167f17307eab39ab6107e8899845ad3d59bd9653f200f220920489ca2b5937696c318360405161132f9190611a63565b60405180910390a3505050565b6113568282604051806020016040528060008152506117d1565b5050565b60008373ffffffffffffffffffffffffffffffffffffffff163b1115611504578273ffffffffffffffffffffffffffffffffffffffff1663150b7a02868685856040518563ffffffff1660e01b81526004016113b994939291906122d0565b6020604051808303816000875af19250505080156113f557506040513d601f19601f820116820180604052508101906113f29190612331565b60015b611479573d8060008114611425576040519150601f19603f3d011682016040523d82523d6000602084013e61142a565b606091505b50600081510361147157836040517f64a0ae920000000000000000000000000000000000000000000000000000000081526004016114689190611bd4565b60405180910390fd5b805181602001fd5b63150b7a0260e01b7bffffffffffffffffffffffffffffffffffffffffffffffffffffffff1916817bffffffffffffffffffffffffffffffffffffffffffffffffffffffff19161461150257836040517f64a0ae920000000000000000000000000000000000000000000000000000000081526004016114f99190611bd4565b60405180910390fd5b505b5050505050565b60006002600083815260200190815260200160002060009054906101000a900473ffffffffffffffffffffffffffffffffffffffff169050919050565b80806115815750600073ffffffffffffffffffffffffffffffffffffffff168273ffffffffffffffffffffffffffffffffffffffff1614155b156116b557600061159184610d87565b9050600073ffffffffffffffffffffffffffffffffffffffff168373ffffffffffffffffffffffffffffffffffffffff16141580156115fc57508273ffffffffffffffffffffffffffffffffffffffff168173ffffffffffffffffffffffffffffffffffffffff1614155b801561160f575061160d8184610b57565b155b1561165157826040517fa9fbf51f0000000000000000000000000000000000000000000000000000000081526004016116489190611bd4565b60405180910390fd5b81156116b357838573ffffffffffffffffffffffffffffffffffffffff168273ffffffffffffffffffffffffffffffffffffffff167f8c5be1e5ebec7d5bd14f71427d1e84f3dd0314c0f7b2291e5b200ac8c7c3b92560405160405180910390a45b505b836004600085815260200190815260200160002060006101000a81548173ffffffffffffffffffffffffffffffffffffffff021916908373ffffffffffffffffffffffffffffffffffffffff16021790555050505050565b6117188383836117f5565b6117cc57600073ffffffffffffffffffffffffffffffffffffffff168373ffffffffffffffffffffffffffffffffffffffff160361178d57806040517f7e2732890000000000000000000000000000000000000000000000000000000081526004016117849190611cea565b60405180910390fd5b81816040517f177e802f0000000000000000000000000000000000000000000000000000000081526004016117c392919061235e565b60405180910390fd5b505050565b6117db83836118b6565b6117f06117e6610e4c565b600085858561135a565b505050565b60008073ffffffffffffffffffffffffffffffffffffffff168373ffffffffffffffffffffffffffffffffffffffff16141580156118ad57508273ffffffffffffffffffffffffffffffffffffffff168473ffffffffffffffffffffffffffffffffffffffff16148061186e575061186d8484610b57565b5b806118ac57508273ffffffffffffffffffffffffffffffffffffffff1661189483610e0f565b73ffffffffffffffffffffffffffffffffffffffff16145b5b90509392505050565b600073ffffffffffffffffffffffffffffffffffffffff168273ffffffffffffffffffffffffffffffffffffffff16036119285760006040517f64a0ae9200000000000000000000000000000000000000000000000000000000815260040161191f9190611bd4565b60405180910390fd5b600061193683836000610e66565b9050600073ffffffffffffffffffffffffffffffffffffffff168173ffffffffffffffffffffffffffffffffffffffff16146119aa5760006040517f73c6ac6e0000000000000000000000000000000000000000000000000000000081526004016119a19190611bd4565b60405180910390fd5b505050565b6000604051905090565b600080fd5b600080fd5b60007fffffffff0000000000000000000000000000000000000000000000000000000082169050919050565b6119f8816119c3565b8114611a0357600080fd5b50565b600081359050611a15816119ef565b92915050565b600060208284031215611a3157611a306119b9565b5b6000611a3f84828501611a06565b91505092915050565b60008115159050919050565b611a5d81611a48565b82525050565b6000602082019050611a786000830184611a54565b92915050565b600081519050919050565b600082825260208201905092915050565b60005b83811015611ab8578082015181840152602081019050611a9d565b60008484015250505050565b6000601f19601f8301169050919050565b6000611ae082611a7e565b611aea8185611a89565b9350611afa818560208601611a9a565b611b0381611ac4565b840191505092915050565b60006020820190508181036000830152611b288184611ad5565b905092915050565b6000819050919050565b611b4381611b30565b8114611b4e57600080fd5b50565b600081359050611b6081611b3a565b92915050565b600060208284031215611b7c57611b7b6119b9565b5b6000611b8a84828501611b51565b91505092915050565b600073ffffffffffffffffffffffffffffffffffffffff82169050919050565b6000611bbe82611b93565b9050919050565b611bce81611bb3565b82525050565b6000602082019050611be96000830184611bc5565b92915050565b611bf881611bb3565b8114611c0357600080fd5b50565b600081359050611c1581611bef565b92915050565b60008060408385031215611c3257611c316119b9565b5b6000611c4085828601611c06565b9250506020611c5185828601611b51565b9150509250929050565b600080600060608486031215611c7457611c736119b9565b5b6000611c8286828701611c06565b9350506020611c9386828701611c06565b9250506040611ca486828701611b51565b9150509250925092565b600060208284031215611cc457611cc36119b9565b5b6000611cd284828501611c06565b91505092915050565b611ce481611b30565b82525050565b6000602082019050611cff6000830184611cdb565b92915050565b611d0e81611a48565b8114611d1957600080fd5b50565b600081359050611d2b81611d05565b92915050565b60008060408385031215611d4857611d476119b9565b5b6000611d5685828601611c06565b9250506020611d6785828601611d1c565b9150509250929050565b600080fd5b600080fd5b7f4e487b7100000000000000000000000000000000000000000000000000000000600052604160045260246000fd5b611db382611ac4565b810181811067ffffffffffffffff82111715611dd257611dd1611d7b565b5b80604052505050565b6000611de56119af565b9050611df18282611daa565b919050565b600067ffffffffffffffff821115611e1157611e10611d7b565b5b611e1a82611ac4565b9050602081019050919050565b82818337600083830152505050565b6000611e49611e4484611df6565b611ddb565b905082815260208101848484011115611e6557611e64611d76565b5b611e70848285611e27565b509392505050565b600082601f830112611e8d57611e8c611d71565b5b8135611e9d848260208601611e36565b91505092915050565b60008060008060808587031215611ec057611ebf6119b9565b5b6000611ece87828801611c06565b9450506020611edf87828801611c06565b9350506040611ef087828801611b51565b925050606085013567ffffffffffffffff811115611f1157611f106119be565b5b611f1d87828801611e78565b91505092959194509250565b60008060408385031215611f4057611f3f6119b9565b5b6000611f4e85828601611c06565b9250506020611f5f85828601611c06565b9150509250929050565b7f4e487b7100000000000000000000000000000000000000000000000000000000600052602260045260246000fd5b60006002820490506001821680611fb057607f821691505b602082108103611fc357611fc2611f69565b5b50919050565b6000606082019050611fde6000830186611bc5565b611feb6020830185611cdb565b611ff86040830184611bc5565b949350505050565b7f496e76616c6964206d6574616461746120696e64657800000000000000000000600082015250565b6000612036601683611a89565b915061204182612000565b602082019050919050565b6000602082019050818103600083015261206581612029565b9050919050565b7f43657274696669636174652068617320616c7265616479206265656e206d696e60008201527f74656420666f7220746869732061646472657373000000000000000000000000602082015250565b60006120c8603483611a89565b91506120d38261206c565b604082019050919050565b600060208201905081810360008301526120f7816120bb565b9050919050565b7f4e487b7100000000000000000000000000000000000000000000000000000000600052601160045260246000fd5b600061213882611b30565b91507fffffffffffffffffffffffffffffffffffffffffffffffffffffffffffffffff820361216a576121696120fe565b5b600182019050919050565b7f4e487b7100000000000000000000000000000000000000000000000000000000600052603260045260246000fd5b60008190508160005260206000209050919050565b600081546121c681611f98565b6121d08186611a89565b945060018216600081146121eb576001811461220157612234565b60ff198316865281151560200286019350612234565b61220a856121a4565b60005b8381101561222c5781548189015260018201915060208101905061220d565b808801955050505b50505092915050565b60006060820190506122526000830186611bc5565b61225f6020830185611cdb565b818103604083015261227181846121b9565b9050949350505050565b600081519050919050565b600082825260208201905092915050565b60006122a28261227b565b6122ac8185612286565b93506122bc818560208601611a9a565b6122c581611ac4565b840191505092915050565b60006080820190506122e56000830187611bc5565b6122f26020830186611bc5565b6122ff6040830185611cdb565b81810360608301526123118184612297565b905095945050505050565b60008151905061232b816119ef565b92915050565b600060208284031215612347576123466119b9565b5b60006123558482850161231c565b91505092915050565b60006040820190506123736000830185611bc5565b6123806020830184611cdb565b939250505056fea2646970667358221220519f06327c241747df7144daffc1ade2deffa36c592a95cd7f9f3aad3a66a58e64736f6c6343000814003368747470733a2f2f617175612d726172652d776f726d2d3435342e6d7970696e6174612e636c6f75642f697066732f6261667962656965636f77656c786169747937636d35766f37756979327133786a32767636777968736134773779676c79687678616b66796c77342f73706565642e6a736f6e68747470733a2f2f617175612d726172652d776f726d2d3435342e6d7970696e6174612e636c6f75642f697066732f6261667962656965636f77656c786169747937636d35766f37756979327133786a32767636777968736134773779676c79687678616b66796c77342f627261696e2e6a736f6e",
  "linkReferences": {},
  "deployedLinkReferences": {}
}